:02000004080AE8
:1000000000000A0854330A08000006000600050133
:080010000402FD0800000000DD
:04001800E8300A08BA
:1000200009480A4908B5884205D0094A824202D0E7
:10003000121A02F0A5FF0748074A0021121A02F01F
:10004000ADFF064808BD00BF00000020B4320A081A
:100050007800002078000020090600200906002012
:1000600070B501F0F5FE0025054E064CA41BA40852
:10007000A54200D170BD56F8043B98470135F7E71B
:100080008C320A08B0320A0800F04AB808B500F00D
:1000900073F8BDE8084001F093BE01F047BC01F0E1
:1000A0004DBC0078B0FA80F040097047012303701E
:1000B0007047000010B51549044601F0F0FC20B16E
:1000C00000220120124B1A7010BD2046114901F088
:1000D000E6FC18B101200E4B1870F5E720460E49DA
:1000E00001F0DDFC20B10222094B01201A70EBE780
:1000F00001F0D6FF094901F00AFD01F0D1FF2168A6
:1001000001F018FD4FF0FF30DEE700BFFC300A08B9
:100110000800002001310A0805310A080A310A08DE
:1001200008B50F4800F00CF9002302220D490E48D3
:1001300001F0E4FB0D4A0E490E4801F0D1FE01F03A
:10014000AFFF4FF4165101F091FF0121072002F09B
:10015000CBF9BDE8084000210A2002F0C5B900BF74
:10016000800000207C00002019310A0824310A0890
:10017000B5000A08B51E0A0800222DE9F34711460A
:10018000FF2001F007FA0022FF210746104601F088
:1001900001FA00218046FF22084601F0FBF94C4C91
:1001A00081462178002965D102464A4801F0AEF91E
:1001B000484800F0FBF80121072002F0A6F90A20C8
:1001C00001F0BEFD0A2002F0B9F9434D002128607C
:1001D000072002F09AF901F063FF2E688246002E94
:1001E00058DA2D2101F097FC71420A22504601F0A5
:1001F000ABFC01F055FF394901F089FC01F050FFDB
:10020000064628684FF0020AA0F51B7002F050FB6A
:100210002DA3D3E9002302F0DFFCCDF800A00B46AC
:100220000246304601F06EFD01F03AFF2B4901F025
:100230006EFC01F035FF0A22217801F085FC01F007
:100240002FFF274901F076FC4FF47A7001F078FD1A
:100250002B68B3F5617F1FDA84F800A0217819BB01
:100260004A461C4801F052F91A4802B0BDE8F0476E
:1002700000F09CB8012905D142460021154801F043
:1002800045F995E7022993D13A460021114801F03A
:100290003DF98DE73146A8E740F2A2329342CCBF48
:1002A000002301232370D9E7012905D1424600210B
:1002B000084801F02BF9D7E70229D5D13A460021A9
:1002C000044801F023F9CFE7CDCCCCCCCCCC2840EE
:1002D00008000020800000207C0000202C310A084B
:1002E0002E310A08044B054A05491B781278098803
:1002F000044800F04AB800BF780000200400002045
:10030000000000208000002038B50446C0680D467B
:1003100008B101F013FBA379062B0CBF04200320C6
:10032000684380B2A08001F001FBE06028B10021A9
:10033000A28802F033FE658038BDA0806080FBE7B4
:1003400010B504460121C07902F0CEF80021E07911
:1003500002F0DBF80123237010BD38B503780546A1
:100360000C461BB10021C07902F0BEF82B78EC716D
:1003700053B1A4B22046012102F0B6F82046BDE8F0
:100380003840002102F0C1B838BD70B500250446E0
:1003900016468371C0E9035505700572FFF7B4FF77
:1003A00020463146FFF7D9FF204670BDC368002BB9
:1003B00000F04184F0B583790446023BDBB2042BA4
:1003C0008CBF3225284A87B098BF52F8235001F0DD
:1003D00027F92369C01AA842F9D372B6A388A57970
:1003E000ADF80A30BDF80A30022DE1689BB200F08A
:1003F0006E82072D00F06B82062D00F01D84052D06
:1004000000F0A183082D00F09E83002D40F04F8561
:10041000002B00F092834FF40006144A0496BDF8B6
:100420000A300331033B9BB2ADF80A3011F8033CAC
:10043000DBB28DF8073011F8023CDBB28DF80630E4
:1004400011F8013CDBB28DF808309DF807709DF87B
:1004500006309DF808001B0243EA07430343039359
:100460008DF805501BE100BF30310A0894000020D0
:10047000004600BF00BF00BF00BF00BF00BF00BFFD
:1004800000BF00BF00BF00BF00BF00BF00BF00BF74
:1004900000BF00BF00BF00BF00BF00BF00BF00BF64
:1004A00000BF00BF00BF00BF00BF00BF00BF00BF54
:1004B00000BF00BF00BF00BF00BF00BF00BF00BF44
:1004C00000BF00BF00BF00BF00BF00BF00BF00BF34
:1004D00000BF00BF00BF00BF00BF00BF00BF00BF24
:1004E00000BF00BF00BF00BF00BF00BF00BF00BF14
:1004F00000BF00BF00BF00BF00BF00BF00BF00BF04
:1005000000BF00BF00BF00BF00BF00BF00BF00BFF3
:1005100000BF00BF00BF00BF00BF00BF00BF00BFE3
:1005200000BF00BF00BF00BF00BF00BF00BF00BFD3
:1005300000BF00BF00BF00BF00BF00BF00BF00BFC3
:1005400000BF00BF00BF00BF00BF00BF00BF00BFB3
:1005500000BF00BF00BF00BF00BF00BF00BF00BFA3
:1005600000BF00BF00BF00BF00BF00BF00BF00BF93
:1005700000BF00BF00BF00BFE3791068C3EBC30337
:1005800000EB8307BF8850F823305F83004600BF2D
:1005900000BF00BF00BF00BF00BF00BF00BF00BF63
:1005A00000BF00BF00BF00BF00BF00BF00BF00BF53
:1005B00000BF00BF00BF00BF00BF00BF00BF00BF43
:1005C00000BF00BF00BF00BF00BF00BF00BF00BF33
:1005D00000BF00BF00BF00BF00BF00BF00BF00BF23
:1005E00000BF00BF00BF00BF00BF00BF00BF00BF13
:1005F00000BF00BF00BF00BF00BF00BF00BF00BF03
:1006000000BF00BF00BF00BF00BF00BF00BF00BFF2
:1006100000BF00BF00BF00BF00BF00BF00BF00BFE2
:1006200000BF00BF00BF00BF00BF00BF00BF00BFD2
:1006300000BF00BF00BF00BF00BF00BF00BF00BFC2
:1006400000BF00BF00BF00BF00BF00BF00BF00BFB2
:1006500000BF00BF00BF00BF00BF00BF00BF00BFA2
:1006600000BF00BF00BF00BF00BF00BF00BF00BF92
:1006700000BF00BF00BF00BF00BF00BF00BF00BF82
:1006800000BF00BF00BF049B5B0804939DF80530CA
:100690000133DBB2172B8DF8053000F22787E379A1
:1006A0001068C3EBC30300EB8307BF8850F8233007
:1006B0001F830398049B18427FF4DAAE004600BF04
:1006C00000BF00BF00BF00BF00BF00BF00BF00BF32
:1006D00000BF00BF00BF00BF00BF00BF00BF00BF22
:1006E00000BF00BF00BF00BF00BF00BF00BF00BF12
:1006F00000BF00BF00BF00BF00BF00BF00BF00BF02
:1007000000BF00BF00BF00BF00BF00BF00BFE37954
:100710001068C3EBC30300EB8307BF8850F8233096
:100720005F83004600BF00BF00BF00BF00BF00BF27
:1007300000BF00BF00BF00BF00BF00BF00BF00BFC1
:1007400000BF00BF00BF00BF00BF00BF00BF00BFB1
:1007500000BF00BF00BF00BF00BF00BF00BF00BFA1
:1007600000BF00BF00BF00BF00BF00BF00BF00BF91
:1007700000BF00BF00BF00BF00BF00BF00BF00BF81
:1007800000BF00BF00BF00BF00BF00BF00BF00BF71
:1007900000BF00BF00BF00BF00BF00BF00BF00BF61
:1007A00000BF00BF00BF00BF00BF00BF00BF00BF51
:1007B00000BF00BF00BF00BF00BF00BF00BF00BF41
:1007C00000BF00BF00BF00BF00BF00BF00BF00BF31
:1007D00000BF00BF00BF00BF00BF00BF00BF00BF21
:1007E00000BF00BF00BF00BF00BF00BF00BF00BF11
:1007F00000BF00BF00BF00BF00BF00BF00BF00BF01
:1008000000BF00BF00BF00BF00BF00BF00BF00BFF0
:1008100000BF00BF00BF00BF00BF00BF00BF00BFE0
:1008200000BF00BF00BF00BF00BF00BF00BF00BFD0
:1008300000BF00BF00BF00BF00BF00BF00BF00BFC0
:1008400000BF00BF00BF00BF00BF00BF00BF00BFB0
:1008500000BF00BF00BF00BF00BF00BF00BF00BFA0
:1008600000BF00BF00BF00BF00BF00BF00BF00BF90
:1008700000BF00BF00BF00BF00BF00BF00BF00BF80
:1008800000BF00BF00BF00BF00BF00BF00BF00BF70
:1008900000BF00BF00BF00BF00BF00BF00BF00BF60
:1008A00000BF00BF00BF00BF00BF00BF00BF00BF50
:1008B00000BF00BF00BF00BF00BF00BF00BF00BF40
:1008C00000BF00BF00BF00BF00BF00BFDBE6002BC2
:1008D00000F033814FF400050026134A0495BDF85B
:1008E0000A300331033B9BB2ADF80A3011F8033CE8
:1008F000DBB28DF8063011F8023CDBB28DF8073020
:1009000011F8013CDBB28DF808309DF806709DF8B7
:1009100007309DF808001B0243EA07430343039393
:100920008DF8056080E000BF94000020004600BF05
:1009300000BF00BF00BF00BF00BF00BF00BF00BFBF
:1009400000BF00BF00BF00BF00BF00BF00BF00BFAF
:1009500000BF00BF00BF00BF00BF00BF00BF00BF9F
:1009600000BF00BF00BF00BF00BF00BF00BF00BF8F
:1009700000BF00BF00BF00BF00BF00BF00BF00BF7F
:1009800000BF00BF00BF00BF00BF00BF00BF00BF6F
:1009900000BF00BF00BF00BF00BF00BF00BF00BF5F
:1009A00000BF00BF00BF00BF00BF00BF00BF00BF4F
:1009B00000BF00BF00BF00BF00BF00BF00BF00BF3F
:1009C00000BF00BF00BFE3791068C3EBC30300EBB7
:1009D0008307BF8850F823305F83004600BF00BF05
:1009E00000BF00BF00BF00BF00BF00BF00BF00BF0F
:1009F00000BF00BF00BF00BF00BF00BF00BF00BFFF
:100A000000BF00BF00BF00BF00BF00BF00BF00BFEE
:100A1000049B5B0804939DF805300133DBB2172B70
:100A20008DF8053000F28380E3791068C3EBC303CF
:100A300000EB8307BF8850F823301F830398049B83
:100A400018427FF473AF004600BF00BF00BF00BF75
:100A500000BF00BF00BF00BF00BF00BF00BF00BF9E
:100A600000BF00BF00BF00BF00BF00BF00BFE379F1
:100A70001068C3EBC30300EB8307BF8850F8233033
:100A80005F83004600BF00BF00BF00BF00BF00BFC4
:100A900000BF00BF00BF00BF00BF00BF00BF00BF5E
:100AA00000BF00BF00BF00BF00BF00BF00BF00BF4E
:100AB00000BF00BF00BF00BF00BF00BF00BF00BF3E
:100AC00000BF00BF00BF00BF00BF00BF00BF00BF2E
:100AD00000BF00BF00BF00BF00BF00BF00BF00BF1E
:100AE00000BF00BF00BF00BF00BF00BF00BF00BF0E
:100AF00000BF00BF00BF00BF00BF00BF00BF00BFFE
:100B000000BF00BF00BF00BF00BF00BF00BF00BFED
:100B100000BF00BF00BF00BF00BF00BF00BF00BFDD
:100B200000BF00BF00BF00BF00BF00BF70E7BDF83F
:100B30000A309BB2002B7FF4D1AE62B600F070FD9C
:100B4000206107B0F0BD002BF7D04FF4000E002657
:100B5000544B1868544BCDF810E0BDF80A2003310F
:100B6000033A92B2ADF80A2011F8032CD2B28DF8F4
:100B7000062011F8022CD2B28DF8072011F8012CB2
:100B8000D2B28DF808209DF806C09DF807209DF888
:100B90000870120242EA0C423A4303928DF8056053
:100BA000E2795D68C2EBC20200EB8207BF8850F8B1
:100BB000222005951783039F049A174225D05A686F
:100BC000059FD21B4F2AFAD9E279C2EBC20200EB91
:100BD0008207BF8850F8222057835A6805925A68C6
:100BE000059FD21B072AFAD9049A520804929DF84D
:100BF00005200132D2B2172A8DF80520D0D9BDF8D0
:100C00000A2092B2002AA6D197E75A68059FD21B04
:100C1000182AFAD9E279C2EBC20200EB8207BF8838
:100C200050F8222057835A6805925A68059FD21BB4
:100C3000452AFAD9D8E77047002B3FF47EAF4FF032
:100C400000450026174A0495BDF80A300431043BDC
:100C50009BB2ADF80A3011F8043CDBB28DF80730D6
:100C600011F8033CDBB28DF8063011F8023CDBB220
:100C70008DF8083011F8013CDBB28DF809309DF891
:100C800007C09DF806309DF808001B049DF8097008
:100C900043EA0C633B4343EA002303938DF805606A
:100CA0007FE000BF94000020001000E0004600BF7D
:100CB00000BF00BF00BF00BF00BF00BF00BF00BF3C
:100CC00000BF00BF00BF00BF00BF00BF00BF00BF2C
:100CD00000BF00BF00BF00BF00BF00BF00BF00BF1C
:100CE00000BF00BF00BF00BF00BF00BF00BF00BF0C
:100CF00000BF00BF00BF00BF00BF00BF00BF00BFFC
:100D000000BF00BF00BF00BF00BF00BF00BF00BFEB
:100D100000BF00BF00BF00BF00BFE3791068C3EB96
:100D2000C30300EB8307BF8850F823305F8300467E
:100D300000BF00BF00BF00BF00BF00BF00BF00BFBB
:100D400000BF00BF00BF00BF00BF00BF00BF00BFAB
:100D500000BF00BF00BF00BF00BF00BF00BF00BF9B
:100D600000BF00BF00BF00BF00BF00BF00BF00BF8B
:100D700000BF00BF00BF00BF00BF00BF00BF00BF7B
:100D800000BF00BF00BF00BF00BF00BF049B5B08E7
:100D900004939DF805300133DBB21F2B8DF805302D
:100DA0007ED8E3791068C3EBC30300EB8307BF88E9
:100DB00050F823301F830398049B18427FF476AFCA
:100DC000004600BF00BF00BF00BF00BF00BF00BFA4
:100DD00000BF00BF00BF00BF00BF00BF00BF00BF1B
:100DE00000BF00BF00BF00BFE3791068C3EBC303BF
:100DF00000EB8307BF8850F823305F83004600BFB5
:100E000000BF00BF00BF00BF00BF00BF00BF00BFEA
:100E100000BF00BF00BF00BF00BF00BF00BF00BFDA
:100E200000BF00BF00BF00BF00BF00BF00BF00BFCA
:100E300000BF00BF00BF00BF00BF00BF00BF00BFBA
:100E400000BF00BF00BF00BF00BF00BF00BF00BFAA
:100E500000BF00BF00BF00BF00BF00BF00BF00BF9A
:100E600000BF00BF00BF00BF00BF00BF00BF00BF8A
:100E700000BF00BF00BF00BF00BF00BF00BF00BF7A
:100E800000BF00BF00BF00BF00BF00BF00BF00BF6A
:100E900000BF00BF00BF00BF00BF00BF00BF75E7BD
:100EA000BDF80A309BB2002B7FF4CDAE45E6032D92
:100EB00000F02B81002B3FF440AE4FF400050026DC
:100EC000174A0495BDF80A30E079033B9BB2ADF8B0
:100ED0000A300B781768DBB28DF807304B78C0EB1F
:100EE000C000DBB28DF808308B7807EB800CDBB2EA
:100EF0008DF806309DF807E09DF80830BCF804C076
:100F00001B0243EA0E439DF806E057F8200043EA2F
:100F10000E03039303318DF80560A0F81AC07CE03E
:100F200094000020049B5B080493004600BF00BFB0
:100F300000BF00BF00BF00BF00BF00BF00BF00BFB9
:100F400000BF00BF00BF00BF00BF00BF00BF00BFA9
:100F500000BF00BF00BF00BF00BF00BF00BF00BF99
:100F600000BF00BF00BF00BF00BF00BF00BF00BF89
:100F700000BF00BF00BF00BF00BF00BF00BF00BF79
:100F800000BF00BF00BF00BF00BF00BF00BF00BF69
:100F900000BF00BF00BF00BF00BF00BF00BF00BF59
:100FA00000BF00BF00BF00BF00BF00BF00BF00BF49
:100FB000E07917689DF80530C0EBC00007EB800CA6
:100FC000BCF804C057F820000133DBB28DF80530BF
:100FD000A0F818C0004600BF00BF00BF00BF00BFA0
:100FE00000BF00BF00BF00BF00BF00BF00BF00BF09
:100FF00000BF00BF00BF00BF00BF00BF00BF9DF823
:101000000530182B7AD0E3791068C3EBC30300EBEB
:101010008307BF8850F823305F830398049B1842EE
:1010200080D1004600BF00BF00BF00BF00BF00BFAF
:1010300000BF00BF00BF00BF00BF00BF00BF00BFB8
:1010400000BF00BFE3791068C3EBC30300EB830765
:10105000BF8850F823301F839DF805300133DBB281
:101060008DF80530049B5B080493004600BF00BF69
:1010700000BF00BF00BF00BF00BF00BF00BF00BF78
:1010800000BF00BF00BF00BF00BF00BF00BF00BF68
:1010900000BF00BF00BF00BF00BF00BF00BF00BF58
:1010A00000BF00BF00BF00BF00BF00BF00BF00BF48
:1010B00000BF00BF00BF00BF00BF00BF00BF00BF38
:1010C00000BF00BF00BF00BF00BF00BF00BF00BF28
:1010D00000BF00BF00BF00BF00BF00BF00BF00BF18
:1010E00000BF00BF00BF00BF00BF00BF00BF00BF08
:1010F00000BF00BF9DF80530182B84D1BDF80A3021
:101100009BB2002B7FF4DDAE17E5002B3FF415AD4D
:101110004FF400050026134A0495BDF80A30033148
:10112000033B9BB2ADF80A3011F8033CDBB28DF8FB
:10113000073011F8023CDBB28DF8063011F8013CA3
:10114000DBB28DF808309DF807709DF806309DF8E9
:1011500008001B0243EA0743034303938DF805602D
:10116000E1E000BF94000020004600BF00BF00BFC8
:1011700000BF00BF00BF00BF00BF00BF00BF00BF77
:1011800000BF00BF00BF00BF00BF00BF00BF00BF67
:1011900000BF00BF00BF00BF00BF00BF00BF00BF57
:1011A00000BF00BF00BF00BF00BF00BF00BF00BF47
:1011B00000BF00BF00BF00BF00BF00BF00BF00BF37
:1011C00000BF00BF00BF00BF00BF00BF00BF00BF27
:1011D00000BF00BF00BF00BF00BF00BF00BF00BF17
:1011E00000BF00BF00BF00BF00BF00BF00BF00BF07
:1011F00000BF00BF00BF00BF00BF00BF00BF00BFF7
:1012000000BF00BF00BF00BF00BF00BF00BF00BFE6
:1012100000BF00BF00BF00BF00BF00BF00BF00BFD6
:1012200000BF00BF00BF00BF00BF00BF00BF00BFC6
:1012300000BF00BF00BF00BF00BF00BF00BF00BFB6
:1012400000BF00BF00BF00BF00BF00BF00BF00BFA6
:1012500000BF00BF00BF00BF00BF00BF00BF00BF96
:1012600000BF00BF00BF00BF00BF00BF00BF00BF86
:1012700000BF00BF00BF00BF00BF00BF00BF00BF76
:1012800000BF00BF00BF00BF00BFE3791068C3EB21
:10129000C30300EB8307BF8850F823305F83004609
:1012A00000BF00BF00BF00BF00BF00BF00BF00BF46
:1012B00000BF00BF00BF00BF00BF00BF00BF00BF36
:1012C00000BF00BF00BF00BF00BF00BF00BF00BF26
:1012D00000BF00BF00BF00BF00BF00BF00BF00BF16
:1012E00000BF00BF00BF00BF00BF00BF00BF00BF06
:1012F00000BF00BF00BF00BF00BF00BF00BF00BFF6
:1013000000BF00BF00BF00BF00BF00BF00BF049B05
:101310005B0804939DF805300133DBB2172B8DF881
:10132000053000F2EB80E3791068C3EBC30300EBF8
:101330008307BF8850F823301F830398049B18420B
:101340007FF412AF004600BF00BF00BF00BF00BF68
:1013500000BF00BF00BF00BF00BF00BF00BF00BF95
:1013600000BF00BF00BF00BF00BF00BF00BF00BF85
:1013700000BF00BF00BF00BF00BF00BF00BF00BF75
:1013800000BF00BF00BF00BF00BF00BF00BF00BF65
:1013900000BF00BF00BF00BF00BF00BF00BF00BF55
:1013A00000BF00BF00BF00BF00BF00BF00BF00BF45
:1013B00000BF00BF00BF00BF00BF00BF00BF00BF35
:1013C00000BF00BF00BFE3791068C3EBC30300EBAD
:1013D0008307BF8850F823305F83004600BF00BFFB
:1013E00000BF00BF00BF00BF00BF00BF00BF00BF05
:1013F00000BF00BF00BF00BF00BF00BF00BF00BFF5
:1014000000BF00BF00BF00BF00BF00BF00BF00BFE4
:1014100000BF00BF00BF00BF00BF00BF00BF00BFD4
:1014200000BF00BF00BF00BF00BF00BF00BF00BFC4
:1014300000BF00BF00BF00BF00BF00BF00BF00BFB4
:1014400000BF00BF00BF00BF00BF00BF00BF00BFA4
:1014500000BF00BF00BF00BF00BF00BF00BF00BF94
:1014600000BF00BF00BF00BF00BF00BF00BF00BF84
:1014700000BF00BF00BF00BF00BF00BF00BF00BF74
:1014800000BF00BF00BF00BF00BF00BF00BF00BF64
:1014900000BF00BF00BF00BF00BF00BF00BF00BF54
:1014A00000BF00BF00BF00BF00BF00BF00BF00BF44
:1014B00000BF00BF00BF00BF00BF00BF00BF00BF34
:1014C00000BF00BF00BF00BF00BF00BF00BF00BF24
:1014D00000BF00BF00BF00BF00BF00BF00BF00BF14
:1014E00000BF00BF00BF00BF00BF10E7BDF80A305B
:1014F0009BB2002B7EF492AFFFF71FBBBDF80A3002
:101500009BB2002B7FF408AEFFF717BB4388F0B502
:101510008B4226D9057AC2F30743C2F30724D6B219
:101520003DB16B436C436E43C3F30723C4F30724FD
:10153000360A90F806C0C768BCF1060F0CBF042538
:1015400003256943ACF1020C7D18BCF1060F1DD8D0
:10155000DFE80CF0041C08040F0404007C546B70DA
:10156000AE70F0BDFE2B28BFFE237B546E70AC70B6
:10157000F7E77B546C70AE70037A120E13B9D2B2D7
:10158000EA70EEE75A43C2F30722F9E77B546C7026
:10159000AE70E6E742EA012242EA004070470000EE
:1015A00008B500F005F8014B186008BD9400002054
:1015B00008B5024B1B681B68019308BDB001060803
:1015C00008B5024B1B685B68019308BDB0010608B3
:1015D00008B5024B1B689B68019308BDB001060863
:1015E00008B5024B1B68DB68019308BDB001060813
:1015F00008B5024B1B681B69019308BDB0010608C2
:1016000008B5024B1B681B6B019308BDB0010608AF
:1016100008B5024B1B685B68019308BD9C01060876
:1016200008B5024B1B681B69019308BD9C010608A5
:1016300008B5024B1B685B69019308BD9C01060855
:1016400008B5024B1B685B6C019308BDD00106080E
:1016500008B5024B1B689B6C019308BDD0010608BE
:1016600008B5024B1B689B69019308BDC4010608BD
:1016700008B5024B1B685B6A019308BDC4010608EC
:1016800008B5024B1B689B6A019308BDC40106089C
:1016900008B5024B1B68DB6A019308BDC40106084C
:1016A00008B5024B1B681B6B019308BDC4010608FB
:1016B00008B5024B1B685B6B019308BDC4010608AB
:1016C00008B5024B1B689B6B019308BDC40106085B
:1016D00008B5024B1B681B6C019308BDC4010608CA
:1016E00008B5024B1B681B6E019308BDAC010608D0
:1016F00008B5024B1B685B6E019308BDAC01060880
:1017000008B5024B1B689B6E019308BDAC0106082F
:1017100008B5024B1B68DB6E019308BDAC010608DF
:1017200008B5024B1B681B6F019308BDAC0106088E
:1017300008B5024B1B685B6F019308BDAC0106083E
:1017400008B5034B1B68D3F88030019308BD000037
:10175000AC01060808B5024B1B68DB69019308BDA4
:10176000B401060808B5024B1B681B6A019308BD4B
:10177000B401060808B5024B1B681B68019308BD3D
:10178000D801060808B5024B1B685B68019308BDC9
:10179000D801060808B5024B1B681B69019308BDF8
:1017A000D801060808B5024B1B685B69019308BDA8
:1017B000D801060808B5024B1B689B69019308BD58
:1017C000D801060808B5024B1B68DB69019308BD08
:1017D000D801060808B5024B1B681B6A019308BDB7
:1017E000D801060808B5024B1B689B6C019308BD25
:1017F000C001060808B5024B1B685B68019308BD71
:10180000A401060808B5024B1B685B69019308BD7B
:10181000A401060808B5034B1B68D3F89030019368
:1018200008BD0000A401060808B5034B1B68D3F8E7
:101830009C30019308BD0000A401060808B5024BC6
:101840001B685B68019308BDC801060808B5024B18
:101850001B689B68019308BDC801060808B5024BC8
:101860001B68DB68019308BDC801060808B5024B78
:101870001B681B69019308BDC801060808B5024B27
:101880001B685B69019308BDC801060808B5024BD7
:101890001B689B69019308BDC801060808B5024B87
:1018A0001B68DB69019308BDC801060808B5024B37
:1018B0001B681B6A019308BDC801060808B5024BE6
:1018C0001B681B6B019308BDC801060808B5024BD5
:1018D0001B685B6B019308BDC801060808B5024B85
:1018E0001B681B6C019308BDC801060808B5024BB4
:1018F0001B685B6C019308BDC801060808B5024B64
:101900001B681B68019308BDCC01060808B5024B93
:101910001B685B68019308BDCC01060808B5024B43
:101920001B68DB6B019308BDCC01060808B5024BB0
:101930001B681B68019308BDA001060808B5024B8F
:101940001B685B68019308BDA001060808B5024B3F
:101950001B689B68019308BDA001060808B5024BEF
:101960001B685B6C019308BDA001060870B50026DA
:1019700004460D4640F8086FFFF762FE28462570C2
:10198000FFF7E8FE2046666070BD000002220020DE
:10199000044B1A60044B054A1860988098719A604D
:1019A000FFF728BFA4000020980000200000FFFFE0
:1019B00010B504460068FFF7C1FF204610BD10B502
:1019C0000446006808B1FFF7B9FF0023C4E90133FA
:1019D000236010BD38B504460D4600680131FFF79D
:1019E000B5FF10B1C4E90005012038BD10B503688A
:1019F000044623B143688B4201D3012010BD204629
:101A0000FFF7E8FF0028F9D0A368002BF5D1226882
:101A10001370F2E770B50E46114604461546FFF7FF
:101A2000E5FF20B92046FFF7CAFF204670BD2A46D1
:101A300031462068A56001F0A3FA00212268A3685E
:101A4000D154F2E738B5002304460D46C0E900330F
:101A50008360037339B1084601F0D6FA294602467D
:101A60002046FFF7D7FF204638BD884210B50B4609
:101A7000044604D0096821B19A68FFF7CBFF2046DD
:101A800010BDFFF79CFFFAE7002310B50446C0E93C
:101A9000003383600373FFF7E8FF204610BD08B5ED
:101AA00082683AB921B10878B0FA80F0400900E0C4
:101AB000012008BD006809B90078F5E701F09AFA3D
:101AC000F2E7F8B506460D4600248F18BD420CD04B
:101AD000336830469B6815F8011B9847031E01DBED
:101AE0001C44F3E7002C08BF1C462046F8BD70B527
:101AF00005460C46084649B101F086FA2B680246B5
:101B000021462846BDE87040DB68184770BD08B51F
:101B1000FFF7EDFF08BD03689B68184738B50D2136
:101B20000546FFF7F8FF0A2104462846FFF7F3FFB2
:101B3000204438BD38B50546FFF7D9FF044628468E
:101B4000FFF7ECFF204438BD0023012A98BF0A228A
:101B500030B58BB00C468DF8243009A92546B4FB6E
:101B6000F2F404FB1253DBB2092B94BF303337334A
:101B7000DBB2AA4201F8013DF0D9FFF7B8FF0BB084
:101B800030BD00002DE9F74F054619461046924634
:101B90001F469DF8306001F08FF940B1504928464A
:101BA000FFF7A5FF0446204603B0BDE8F08F27F0FD
:101BB00000444FF0FF32504621464A4B01F07CF979
:101BC00048B94FF0FF3250462146464B01F056F9D6
:101BD00008B94549E3E74FF0604250463946434B68
:101BE00001F060F908B14249D9E74FF06042504630
:101BF0003946404B01F038F90028F4D10022002387
:101C00005046394601F030F9044630B12D212846BE
:101C1000FFF781FF044607F100474FF0000B00205B
:101C20004FF000083449DFF8D8905FFA8BF39E42FA
:101C300006D942464B4600F0CFFF0BF1010BF4E70B
:101C40003B46524600F0E8FC8946804601F072F9B6
:101C5000074600F01DFE02460B464046494600F08E
:101C6000D9FC0A228046894628463946FFF76CFF90
:101C7000044426B128462149FFF739FF04444FF0B8
:101C8000000ADFF87CB0013EF6B2FF2E8BD0524640
:101C90005B464046494600F075FE8046894601F0A5
:101CA00021F9071E19DA2D212846FFF734FF0346D4
:101CB00079420A2228460193FFF746FF019B03441D
:101CC00038461C4400F0F4FD02460B4640464946A7
:101CD00000F0A0FC80468946D5E739460023E8E7B6
:101CE00044310A08FFFFEF7F48310A08FFFFEF4148
:101CF0004C310A08FFFFEFC10000E03F50310A08F5
:101D0000000024409DF800100091FFF73BBF002326
:101D100040681A461946FFF7B1BD0000014B024A60
:101D20001A607047A800002052310A08024B1A6856
:101D3000024B1A60704700BF0C000020AC0000206E
:101D40000021FFF75FBD00000022014B9A60704741
:101D5000B0000020014B1860704700BF1000002049
:101D600008B5134B43B100F09BF903681B69984712
:101D7000002801DDAFF300800E4B43B100F040FAC4
:101D800003681B699847002801DDAFF300800A4B08
:101D90000BB1AFF30080094B43B100F0BBF903680E
:101DA0001B699847002801DDAFF3008008BD00BF24
:101DB0000000000000000000000000000000000023
:101DC00008B5FFF7CDFFFFF733FC014B186008BDE6
:101DD0003C0500200548064A08B5121A054901F0DD
:101DE000CFF8054B054A1A6008BD00BF004002400D
:101DF00004400240B0320A08004002401E1C279AEC
:101E0000002307B51A466FF077010093FFF70CFD2A
:101E100003B05DF804FB000007B543880A2B08D027
:101E2000502B0BD1094B1B684BB103B05DF804EB91
:101E30001847FFF7E5FF03B05DF804FB00231A46DF
:101E40006FF077010093FFF7EFFCF4E7C400002088
:101E5000002110B51148FFF781FD114B1A68114B95
:101E60009A420CBF012200220F4B1A7001D0FFF7DB
:101E7000B1FFFFF7CDFB044601F098F80B4B13B10F
:101E80002046AFF3008000210848FFF747FDBDE87A
:101E9000104000210648FFF7BDBC00BF551D0A08D1
:101EA000004002401E1C279AC000002000000000D5
:101EB000191E0A0810B588B004466846FFF7C2FD2F
:101EC000694604A8FFF7E0FD04A8A047044604A85B
:101ED000FFF76EFD6846FFF76BFD204608B010BDAA
:101EE0001FB500231024CDE90201019269461A466C
:101EF0001846ADF80230ADF80040FFF707FD04B01A
:101F000010BD704710B50446182100F07BFB204639
:101F100010BDF8B50E46002400F10807051D17F89E
:101F2000011D0A223046FFF70FFEAF42044401D1E3
:101F30002046F8BD002CF2D02E213046FFF7EBFDF5
:101F40000444ECE710B50446044B1122002140F88C
:101F5000043B01F023F8204610BD00BF7C310A0885
:101F60000346074A10B543F8042B01F1100251F85B
:101F7000044B914243F8044BF9D10A781A7010BD12
:101F80007C310A08024AC0E9002104220275704728
:101F90007C310A0810B59DF8084044EA0324042364
:101FA00044EA024444EA01644460037510BD000041
:101FB00037B5044D05609DF818500095FFF7EAFF0E
:101FC00003B030BD7C310A084174704770477047D8
:101FD00008B50021007CFFF7EDFB40EAE07008BD8A
:101FE00008B50121007CFFF7E5FB40EAE07008BD81
:101FF00008B5007CFFF7D6FB20EAE07008BD08B505
:10200000007CFFF7C7FB20EAE07008BD38B5044646
:10201000007C0D46FFF7C6FB002801DC607C28B180
:102020002946207CFFF7CEFB20EAE07038BD007C1B
:10203000FFF7D0BB10B50446142100F0E3FA2046A8
:1020400010BD704710B54FF47A730446084600215E
:10205000C4E90113044B2074236001231146637407
:10206000FFF788FB204610BD90310A080022007C53
:10207000FFF788BB10B504461422002100F08EFF44
:10208000054B20466360054BE36040F2011323815A
:102090008123238210BD00BFF8000020F901002039
:1020A00030B50E4D87B001A8FFF7E4FF2978BFF3E4
:1020B0005B8F11F001040ED12846FDF7F2FF50B1FD
:1020C000214601AA0648FFF7BDFF2846FDF7EEFFAF
:1020D000044800F04FFF024807B030BDC8000020A0
:1020E000D0000020CD1F0A0810B50446142200219C
:1020F00000F054FF054B20466360054BE36040F25F
:10210000011323818123238210BD00BF7A020020A6
:102110007B03002010B50E4C86B001A8FFF7E4FF4A
:102120002378BFF35B8FDB070ED42046FDF7B9FFA2
:1021300050B1012101AA0748FFF784FF2046FDF7AF
:10214000B5FF054800F016FF024806B010BD00BFFD
:10215000CC000020E400002043200A0870474174AE
:102160007047704708B5007CFFF7B2FA20EAE070CC
:1021700008BD08B5007CFFF783FA20EAE07008BDCF
:1021800008B5007CFFF78CFA40EAE07008BD08B59E
:10219000007CFFF77DFA40EAE07008BD007CFFF7A5
:1021A00087BA70B5467C04460D462EB12946207C80
:1021B000BDE87040FFF75CBA007CFFF789FA0028A1
:1021C000F4DC304670BD10B50446142100F01AFA54
:1021D000204610BD4FF0000C10B5044608461146CD
:1021E0004FF47A72C4E901C2044A207422600122C9
:1021F00062741A46FFF734FA204610BDC0310A084F
:1022000038B50C4D2978BFF35B8F11F001040FD165
:102210002846FDF746FF58B12146074B074A0848B4
:10222000FFF7D8FF2846FDF741FF064800F0A2FE61
:10223000034838BDFC030020840400200004002073
:102240000805002063210A087047F8B506461546C0
:102250000C468F18BC4206D0336830469B6814F891
:10226000011B9847F6E72846F8BD0022007CFFF7DF
:1022700037BA0021007CFFF73BBA0021007CFFF752
:102280003FBA0021007CFFF743BA0021007CFFF732
:1022900047BA10B50446142100F0B4F9204610BD29
:1022A00010B54FF47A73044608460021C4E90113BF
:1022B000034B114623602074FFF742FA204610BDFD
:1022C000F0310A08002240681146FFF7CFBAF0B596
:1022D000154689B011220E460446002103A800F0DD
:1022E0005DFE284600F090FE002781B27368284604
:1022F000009703AAFFF776FA30B139462046FFF778
:1023000041FE204609B0F0BD204603A9FFF728FE94
:10231000F7E7002240681146FFF7C8BA002240687C
:102320001146FFF7D3BA00224068FFF7C7BA002270
:10233000406881F00101FFF7B1BA002340681A46F6
:102340001946FFF7A3BA002240681146FFF77EBA8C
:10235000002202214068FFF781BA002340681A4634
:10236000FFF76CBA0422024B5A60024A1A607047A7
:102370001C05002018320A08002340681A46FFF79F
:102380005DBA002202214068FFF768BA0022406867
:102390001146FFF75BBA002240681146FFF766BAA4
:1023A000002340681A461946FFF768BA00234068C0
:1023B0001A461946FFF76ABA00214068FFF78EBA3D
:1023C00000214068FFF792BA0022406881F00101C5
:1023D000FFF764BA00224068FFF770BA0022406835
:1023E0001146FFF773BA002240681146FFF75EBA44
:1023F00070B515468EB0044608A8FFF7A3FD11225C
:10240000002103A800F0CAFD0026284600F0FCFDCC
:102410000A4B009681B25B68284603AAFFF7E2F9EF
:1024200030B131462046FFF7ADFD20460EB070BDFD
:10243000204603A9FFF794FDF7E700BF1C05002025
:10244000024B034A1A6000225A607047240500209C
:1024500054320A08024B986808B1FFF7F9B8704780
:1024600030050020172870B5044601D9002070BD42
:10247000A0F10D03022B0BD9012824D800F09EF8FF
:102480000021007CFFF754F980F00100C0B2EEE7B4
:10249000124E3178BFF35B8F11F001050DD130463C
:1024A000FDF7FFFD48B129460D48FFF75FFA3046BA
:1024B000FDF7FCFD0B4800F05DFD094B1878FFF7B8
:1024C00051F90028D2D1123C012C05D8FFF798FE13
:1024D000007CFFF7F5F8D7E70120C8E72C050020BE
:1024E0003005002055240A08172838B504460D4643
:1024F0000AD8FF2908D0FFF7B5FF28B129462046A2
:10250000BDE83840FFF764B838BD38B504460D461D
:10251000FFF766F8FF2810D0062804D84D2323FAC9
:1025200000F0C30709D42046FFF79CFF28B12946D5
:102530002046BDE83840FFF75BB838BD10B504460B
:1025400009289CBF0A34A4B22046FFF78BFF50B184
:1025500003212046FFF734F8032804D12046BDE8C4
:102560001040FFF74DB8002010BD0000002307B554
:102570001A46194600930348FFF71AFD03B05DF8A9
:1025800004FB00BF4005002070470000002370B529
:10259000202543801423084E04460380314685607D
:1025A0000561284600F030F831466060284600F0AA
:1025B0002BF8E060204670BD88320A0830B50E4D19
:1025C00087B02978BFF35B8F11F0010411D1284641
:1025D000FDF767FD68B101A8FFF7D8FF214601AA02
:1025E0000648FFF75DFE2846FDF760FD044800F051
:1025F000C1FC024807B030BD580500205C05002032
:1026000089250A08FDF74BBDFDF747BD81F0004164
:1026100002E000BF83F0004330B54FEA41044FEAC7
:10262000430594EA050F08BF90EA020F1FBF54EA62
:10263000000C55EA020C7FEA645C7FEA655C00F0FE
:10264000E2804FEA5454D4EB5555B8BF6D420CDDCF
:102650002C4480EA020281EA030382EA000083EA52
:10266000010180EA020281EA0303362D88BF30BDF2
:1026700011F0004F4FEA01314FF4801C4CEA113148
:1026800002D0404261EB410113F0004F4FEA0333A7
:102690004CEA133302D0524263EB430394EA050F32
:1026A00000F0A780A4F10104D5F1200E0DDB02FAA1
:1026B0000EFC22FA05F2801841F1000103FA0EF235
:1026C000801843FA05F359410EE0A5F120050EF1FB
:1026D000200E012A03FA0EFC28BF4CF0020C43FA2C
:1026E00005F3C01851EBE37101F0004507D54FF039
:1026F000000EDCF1000C7EEB00006EEB0101B1F589
:10270000801F1BD3B1F5001F0CD349085FEA3000CE
:102710004FEA3C0C04F101044FEA445212F5800FD9
:1027200080F09A80BCF1004F08BF5FEA500C50F176
:10273000000041EB045141EA050130BD5FEA4C0C59
:10274000404141EB0101013C28BFB1F5801FE9D2B6
:1027500091F0000F04BF01460020B1FA81F308BFD9
:102760002033A3F10B03B3F120020CDA0C3208DDA5
:1027700002F1140CC2F10C0201FA0CF021FA02F180
:102780000CE002F11402D8BFC2F1200C01FA02F1F0
:1027900020FA0CFCDCBF41EA0C019040E41AA2BF15
:1027A00001EB0451294330BD6FEA04041F3C1CDADD
:1027B0000C340EDC04F11404C4F1200220FA04F0FD
:1027C00001FA02F340EA030021FA04F345EA0301A7
:1027D00030BDC4F10C04C4F1200220FA02F001FA69
:1027E00004F340EA0300294630BD21FA04F02946EB
:1027F00030BD94F0000F83F4801306BF81F4801184
:102800000134013D4EE77FEA645C18BF7FEA655CF6
:1028100029D094EA050F08BF90EA020F05D054EAC8
:10282000000C04BF1946104630BD91EA030F1EBFCD
:102830000021002030BD5FEA545C05D140004941D1
:1028400028BF41F0004130BD14F580043CBF01F5C4
:10285000801130BD01F0004545F0FE4141F47001AA
:102860004FF0000030BD7FEA645C1ABF1946104685
:102870007FEA655C1CBF0B46024650EA013406BF86
:1028800052EA033591EA030F41F4002130BD00BF45
:1028900090F0000F04BF0021704730B54FF4806402
:1028A00004F132044FF000054FF0000150E700BF83
:1028B00090F0000F04BF0021704730B54FF48064E2
:1028C00004F1320410F0004548BF40424FF00001CF
:1028D0003EE700BF42004FEAE2014FEA31014FEA12
:1028E00002701FBF12F07F4393F07F4F81F0605161
:1028F000704732F07F4208BF704793F07F4F04BFAC
:1029000041F40021704730B54FF4607401F0004588
:1029100021F000411CE700BF50EA010208BF7047E8
:1029200030B54FF000050AE050EA010208BF7047D9
:1029300030B511F0004502D5404261EB41014FF442
:10294000806404F132045FEA915C3FF4D8AE4FF04A
:1029500003025FEADC0C18BF03325FEADC0C18BF2D
:10296000033202EBDC02C2F1200300FA03FC20FA7E
:1029700002F001FA03FE40EA0E0021FA02F11444CB
:10298000BDE600BF70B54FF0FF0C4CF4E06C1CEAE4
:1029900011541DBF1CEA135594EA0C0F95EA0C0F55
:1029A00000F0DEF82C4481EA030621EA4C5123EAC8
:1029B0004C5350EA013518BF52EA033541F48011F7
:1029C00043F4801338D0A0FB02CE4FF00005E1FBAA
:1029D00002E506F00042E0FB03E54FF00006E1FBF4
:1029E00003569CF0000F18BF4EF0010EA4F1FF0437
:1029F000B6F5007F64F5407404D25FEA4E0E6D4177
:102A000046EB060642EAC62141EA55514FEAC52087
:102A100040EA5E504FEACE2EB4F1FD0C88BFBCF503
:102A2000E06F1ED8BEF1004F08BF5FEA500E50F1B4
:102A3000000041EB045170BD06F0004646EA01017A
:102A400040EA020081EA0301B4EB5C04C2BFD4EBAC
:102A50000C0541EA045170BD41F480114FF0000EA5
:102A6000013C00F3AB8014F1360FDEBF002001F013
:102A7000004170BDC4F10004203C35DA0C341BDC8D
:102A800004F11404C4F1200500FA05F320FA04F05F
:102A900001FA05F240EA020001F0004221F0004193
:102AA00010EBD37021FA04F642EB06015EEA430E06
:102AB00008BF20EAD37070BDC4F10C04C4F1200536
:102AC00000FA04F320FA05F001FA04F240EA0200E9
:102AD00001F0004110EBD37041F100015EEA430EBA
:102AE00008BF20EAD37070BDC4F1200500FA05F2DA
:102AF0004EEA020E20FA04F301FA05F243EA020359
:102B000021FA04F001F0004121FA04F220EA020067
:102B100000EBD3705EEA430E08BF20EAD37070BDAD
:102B200094F0000F0FD101F00046400041EB01018D
:102B300011F4801F08BF013CF7D041EA060195F06F
:102B4000000F18BF704703F00046520043EB030329
:102B500013F4801F08BF013DF7D043EA0603704716
:102B600094EA0C0F0CEA135518BF95EA0C0F0CD021
:102B700050EA410618BF52EA4306D1D181EA030167
:102B800001F000414FF0000070BD50EA410606BF61
:102B90001046194652EA430619D094EA0C0F02D1A6
:102BA00050EA013613D195EA0C0F05D152EA0336EB
:102BB0001CBF104619460AD181EA030101F0004109
:102BC00041F0FE4141F470014FF0000070BD41F052
:102BD000FE4141F4780170BD70B54FF0FF0C4CF42C
:102BE000E06C1CEA11541DBF1CEA135594EA0C0F4B
:102BF00095EA0C0F00F0A7F8A4EB050481EA030E98
:102C000052EA03354FEA013100F088804FEA03337E
:102C10004FF0805545EA131343EA12634FEA02224C
:102C200045EA111545EA10654FEA00260EF000410D
:102C30009D4208BF964244F1FD0404F5407402D25F
:102C40005B084FEA3202B61A65EB03055B084FEAF0
:102C500032024FF480104FF4002CB6EB020E75EBED
:102C6000030E22BFB61A754640EA0C005B084FEA15
:102C70003202B6EB020E75EB030E22BFB61A754692
:102C800040EA5C005B084FEA3202B6EB020E75EBDD
:102C9000030E22BFB61A754640EA9C005B084FEA55
:102CA0003202B6EB020E75EB030E22BFB61A754662
:102CB00040EADC0055EA060E18D04FEA051545EA51
:102CC00016754FEA06164FEAC30343EA52734FEAFA
:102CD000C2025FEA1C1CC0D111F4801F0BD141EA73
:102CE00000014FF000004FF0004CB6E711F4801FD8
:102CF00004BF01430020B4F1FD0C88BFBCF5E06FB8
:102D00003FF6AFAEB5EB030C04BFB6EB020C5FEAC7
:102D1000500C50F1000041EB045170BD0EF0004E1C
:102D20004EEA113114EB5C04C2BFD4EB0C0541EA4E
:102D3000045170BD41F480114FF0000E013C90E64B
:102D400045EA060E8DE60CEA135594EA0C0F08BF0F
:102D500095EA0C0F3FF43BAF94EA0C0F0AD150EA0E
:102D600001347FF434AF95EA0C0F7FF425AF1046A1
:102D700019462CE795EA0C0F06D152EA03353FF4C9
:102D8000FDAE1046194622E750EA410618BF52EA46
:102D900043067FF4C5AE50EA41047FF40DAF52EA1A
:102DA00043057FF4EBAE12E74FF0FF3C06E000BFB7
:102DB0004FF0010C02E000BF4FF0010C4DF804CDC4
:102DC0004FEA410C7FEA6C5C4FEA430C18BF7FEA84
:102DD0006C5C1BD001B050EA410C0CBF52EA430CB2
:102DE00091EA030F02BF90EA020F0020704710F132
:102DF000000F91EA030F58BF994208BF90422CBFC1
:102E0000D8176FEAE37040F0010070474FEA410CB9
:102E10007FEA6C5C02D150EA013C07D14FEA430CD7
:102E20007FEA6C5CD6D152EA033CD3D05DF8040B48
:102E3000704700BF8446104662468C46194663467A
:102E400000E000BF01B5FFF7B7FF002848BF10F151
:102E5000000F01BD4DF808EDFFF7F4FF0CBF012096
:102E600000205DF808FB00BF4DF808EDFFF7EAFF12
:102E700034BF012000205DF808FB00BF4DF808EDCD
:102E8000FFF7E0FF94BF012000205DF808FB00BFC2
:102E90004DF808EDFFF7CEFF94BF012000205DF84C
:102EA00008FB00BF4DF808EDFFF7C4FF34BF012059
:102EB00000205DF808FB00BF4FEA410C7FEA6C5C24
:102EC00002D150EA013C0AD14FEA430C7FEA6C5C24
:102ED00002D152EA033C02D14FF0000070474FF09C
:102EE000010070474FEA410212F5001215D211D5C8
:102EF0006FF47873B3EB625212D94FEAC12343F0F7
:102F0000004343EA505311F0004F23FA02F018BF78
:102F1000404270474FF00000704750EA013005D141
:102F200011F0004008BF6FF0004070474FF0000004
:102F3000704700BF4A0011D212F5001211D20DD510
:102F40006FF47873B3EB62520ED44FEAC12343F0AF
:102F5000004343EA505323FA02F070474FF0000059
:102F6000704750EA013002D14FF0FF3070474FF008
:102F700000007047002301461A46184600F04CB87E
:102F80000A44914200F1FF3300D1704710B511F8A7
:102F9000014B914203F8014FF9D110BD03460244A1
:102FA000934200D1704703F8011BF9E738B50D4B88
:102FB00004461D68AB6B7BB91820FEF7B7FC0A4AC4
:102FC0000A4BA863C0E90023094B012283600B234D
:102FD00083810023C0E904230022AB6B1C615A618A
:102FE00038BD00BF100000200E33CDAB34126DE6AB
:102FF000ECDE050010F8012B11F8013B012A28BF77
:103000009A42F7D0D01A7047034613F8012B002AD2
:10301000FBD1181A013870472DE9F843DFF8BC805E
:103020000646D8F800001F460D46914600F058F8B5
:10303000264B1C6834B9264C1C60264B13B11B6808
:10304000C4F8883063681F2B07DDD8F8000000F053
:1030500049F84FF0FF30BDE8F8835EB3D4F888003C
:1030600088B91D4B23B9D8F8000000F03AF8F0E712
:103070004FF48470FEF75AFC0028F4D00023C0E916
:103080004033C4F8880001226368022E40F8239080
:1030900002FA03F200EB8301D0F8003143EA0203A5
:1030A000C0F80031C1F8807002BFD0F804311A4373
:1030B000C0F804216368D8F800005A1C023362602B
:1030C00044F8235000F00EF80020C4E7FC0500206F
:1030D00070050020000000002D190A08740000206F
:1030E000704770477047000021000A0861000A0815
:1030F00089000A088D000A0800000000436F6F6C09
:10310000004F6666004865617400496E76616C69BF
:1031100064204D6F64653A200054656D7053656E90
:10312000736F72007365744D6F6465002C003B0013
:103130002C01000018000000F40100002C01000028
:10314000500000006E616E00696E66006F7666006A
:103150002E006170700025592D256D2D2564542594
:10316000483A254D3A2553257A0061736374696D99
:10317000650000000000000000000000131F0A08A6
:10318000031F0A08051F0A080000000000000000D5
:10319000CF1F0A0835200A080D200A08C31A0A089A
:1031A000FF1F0A08D11F0A08E11F0A082F200A087A
:1031B000F11F0A08C91F0A080000000000000000F3
:1031C0005D210A08C7210A08A3210A08C31A0A08B0
:1031D00073210A088F210A0881210A089D210A0803
:1031E0005F210A0865210A080000000000000000B5
:1031F00049220A0893220A086B220A084B220A086D
:1032000073220A087B220A0883220A088B220A08F2
:1032100000000000000000005B230A0851230A0898
:1032200047230A08C5220A080F1D0A083B230A087B
:10323000B9230A08C1230A082F230A0827230A08EA
:103240001D230A0813230A08CF220A0800000000E1
:103250000000000079230A0883230A088D230A0846
:1032600097230A08A1230A08AD230A08B9230A08EC
:10327000C1230A08C9230A08D5230A08DD230A083E
:10328000E7230A08F1230A0800000000E5020A0803
:10329000A1150A088D190A081D1D0A082D1D0A0806
:1032A000491D0A0865230A0841240A086D250A08F1
:0432B000000000001A
:1032B4000100000004000000010000006A310A0857
:1032C40014000020000000000000000000000000C6
:1032D40000000000000000000000000000000000EA
:1032E40000000000000000000000000000000000DA
:1032F40000000000000000000000000000000000CA
:1033040000000000000000000000000000000000B9
:1033140000000000000000000000000000000000A9
:0833240000000000010600207A
:10332C00FFFFFFFF00000102030405060708090A5E
:10333C000B0C0D0E0F101112131415161718191A59
:08334C001B1C1D1E1F202800A0
:043354007856341261
:04000005080A0020C5
:00000001FF
