:02000004080AE8
:1000000000000A0820240A08000006000600050176
:080010000402FD0800000000DD
:04001800FC210A08B5
:10001C0009480A4908B5884205D0094A824202D0EB
:10002C00121A02F03BF80748074A0021121A02F094
:10003C0043F8064808BD00BF0000002084230A08CE
:10004C007400002074000020050600200506002026
:10005C0070B501F081FC0025054E064CA41BA408CC
:10006C00A54200D170BD56F8043B98470135F7E71F
:10007C005C230A0880230A0800F014B808B500F0C5
:10008C0017F8BDE8084001F01FBC01F045BB01F0BA
:10009C004BBB0078B0FA80F0400970470123037025
:1000AC0070470000014800F069B800BF7C000020D8
:1000BC00F8B5194C002223681046FA2BC4BF002354
:1000CC002360217801F084F900220646114620783D
:1000DC0001F07EF9002107462278084601F078F9F4
:1000EC0005463A4600210D4801F02EF93246012111
:1000FC000A4801F029F92A460221084801F024F99E
:10010C00064800F071F84FF47A7001F09DFB2368FB
:10011C0032332360F8BD00BF740000207C00002047
:10012C00044B054A05491B7812780988044800F0ED
:10013C004AB800BF78000020040000200000002016
:10014C007C00002038B50446C0680D4608B101F0AB
:10015C00EBFAA379062B0CBF04200320684380B272
:10016C00A08001F0D9FAE06028B10021A28801F04A
:10017C00A3FF658038BDA0806080FBE710B5044606
:10018C000121C07901F00AFF0021E07901F017FF8D
:10019C000123237010BD38B5037805460C461BB1FE
:1001AC000021C07901F0FAFE2B78EC7153B1A4B2A6
:1001BC002046012101F0F2FE2046BDE83840002126
:1001CC0001F0FDBE38BD70B500250446164683719E
:1001DC00C0E9035505700572FFF7B4FF20463146A0
:1001EC00FFF7D9FF204670BDC368002B00F0418497
:1001FC00F0B583790446023BDBB2042B8CBF32256D
:10020C00284A87B098BF52F8235001F017F9236998
:10021C00C01AA842F9D372B6A388A579ADF80A30F2
:10022C00BDF80A30022DE1689BB200F06E82072DFA
:10023C0000F06B82062D00F01D84052D00F0A183CB
:10024C00082D00F09E83002D40F04F85002B00F010
:10025C0092834FF40006144A0496BDF80A30033119
:10026C00033B9BB2ADF80A3011F8033CDBB28DF8BE
:10027C00073011F8023CDBB28DF8063011F8013C66
:10028C00DBB28DF808309DF807709DF806309DF8AC
:10029C0008001B0243EA0743034303938DF8055000
:1002AC001BE100BF10220A0890000020004600BF8E
:1002BC0000BF00BF00BF00BF00BF00BF00BF00BF3A
:1002CC0000BF00BF00BF00BF00BF00BF00BF00BF2A
:1002DC0000BF00BF00BF00BF00BF00BF00BF00BF1A
:1002EC0000BF00BF00BF00BF00BF00BF00BF00BF0A
:1002FC0000BF00BF00BF00BF00BF00BF00BF00BFFA
:10030C0000BF00BF00BF00BF00BF00BF00BF00BFE9
:10031C0000BF00BF00BF00BF00BF00BF00BF00BFD9
:10032C0000BF00BF00BF00BF00BF00BF00BF00BFC9
:10033C0000BF00BF00BF00BF00BF00BF00BF00BFB9
:10034C0000BF00BF00BF00BF00BF00BF00BF00BFA9
:10035C0000BF00BF00BF00BF00BF00BF00BF00BF99
:10036C0000BF00BF00BF00BF00BF00BF00BF00BF89
:10037C0000BF00BF00BF00BF00BF00BF00BF00BF79
:10038C0000BF00BF00BF00BF00BF00BF00BF00BF69
:10039C0000BF00BF00BF00BF00BF00BF00BF00BF59
:1003AC0000BF00BF00BF00BF00BF00BF00BF00BF49
:1003BC0000BF00BFE3791068C3EBC30300EB8307F6
:1003CC00BF8850F823305F83004600BF00BF00BFDA
:1003DC0000BF00BF00BF00BF00BF00BF00BF00BF19
:1003EC0000BF00BF00BF00BF00BF00BF00BF00BF09
:1003FC0000BF00BF00BF00BF00BF00BF00BF00BFF9
:10040C0000BF00BF00BF00BF00BF00BF00BF00BFE8
:10041C0000BF00BF00BF00BF00BF00BF00BF00BFD8
:10042C0000BF00BF00BF00BF00BF00BF00BF00BFC8
:10043C0000BF00BF00BF00BF00BF00BF00BF00BFB8
:10044C0000BF00BF00BF00BF00BF00BF00BF00BFA8
:10045C0000BF00BF00BF00BF00BF00BF00BF00BF98
:10046C0000BF00BF00BF00BF00BF00BF00BF00BF88
:10047C0000BF00BF00BF00BF00BF00BF00BF00BF78
:10048C0000BF00BF00BF00BF00BF00BF00BF00BF68
:10049C0000BF00BF00BF00BF00BF00BF00BF00BF58
:1004AC0000BF00BF00BF00BF00BF00BF00BF00BF48
:1004BC0000BF00BF00BF00BF00BF00BF00BF00BF38
:1004CC0000BF049B5B0804939DF805300133DBB23D
:1004DC00172B8DF8053000F22787E3791068C3EBF2
:1004EC00C30300EB8307BF8850F823301F830398A6
:1004FC00049B18427FF4DAAE004600BF00BF00BF79
:10050C0000BF00BF00BF00BF00BF00BF00BF00BFE7
:10051C0000BF00BF00BF00BF00BF00BF00BF00BFD7
:10052C0000BF00BF00BF00BF00BF00BF00BF00BFC7
:10053C0000BF00BF00BF00BF00BF00BF00BF00BFB7
:10054C0000BF00BF00BF00BF00BFE3791068C3EB62
:10055C00C30300EB8307BF8850F823305F8300464A
:10056C0000BF00BF00BF00BF00BF00BF00BF00BF87
:10057C0000BF00BF00BF00BF00BF00BF00BF00BF77
:10058C0000BF00BF00BF00BF00BF00BF00BF00BF67
:10059C0000BF00BF00BF00BF00BF00BF00BF00BF57
:1005AC0000BF00BF00BF00BF00BF00BF00BF00BF47
:1005BC0000BF00BF00BF00BF00BF00BF00BF00BF37
:1005CC0000BF00BF00BF00BF00BF00BF00BF00BF27
:1005DC0000BF00BF00BF00BF00BF00BF00BF00BF17
:1005EC0000BF00BF00BF00BF00BF00BF00BF00BF07
:1005FC0000BF00BF00BF00BF00BF00BF00BF00BFF7
:10060C0000BF00BF00BF00BF00BF00BF00BF00BFE6
:10061C0000BF00BF00BF00BF00BF00BF00BF00BFD6
:10062C0000BF00BF00BF00BF00BF00BF00BF00BFC6
:10063C0000BF00BF00BF00BF00BF00BF00BF00BFB6
:10064C0000BF00BF00BF00BF00BF00BF00BF00BFA6
:10065C0000BF00BF00BF00BF00BF00BF00BF00BF96
:10066C0000BF00BF00BF00BF00BF00BF00BF00BF86
:10067C0000BF00BF00BF00BF00BF00BF00BF00BF76
:10068C0000BF00BF00BF00BF00BF00BF00BF00BF66
:10069C0000BF00BF00BF00BF00BF00BF00BF00BF56
:1006AC0000BF00BF00BF00BF00BF00BF00BF00BF46
:1006BC0000BF00BF00BF00BF00BF00BF00BF00BF36
:1006CC0000BF00BF00BF00BF00BF00BF00BF00BF26
:1006DC0000BF00BF00BF00BF00BF00BF00BF00BF16
:1006EC0000BF00BF00BF00BF00BF00BF00BF00BF06
:1006FC0000BF00BF00BF00BF00BF00BF00BF00BFF6
:10070C0000BF00BF00BF00BFDBE6002B00F0338151
:10071C004FF400050026134A0495BDF80A30033146
:10072C00033B9BB2ADF80A3011F8033CDBB28DF8F9
:10073C00063011F8023CDBB28DF8073011F8013CA1
:10074C00DBB28DF808309DF806709DF807309DF8E7
:10075C0008001B0243EA0743034303938DF805602B
:10076C0080E000BF90000020004600BF00BF00BF2B
:10077C0000BF00BF00BF00BF00BF00BF00BF00BF75
:10078C0000BF00BF00BF00BF00BF00BF00BF00BF65
:10079C0000BF00BF00BF00BF00BF00BF00BF00BF55
:1007AC0000BF00BF00BF00BF00BF00BF00BF00BF45
:1007BC0000BF00BF00BF00BF00BF00BF00BF00BF35
:1007CC0000BF00BF00BF00BF00BF00BF00BF00BF25
:1007DC0000BF00BF00BF00BF00BF00BF00BF00BF15
:1007EC0000BF00BF00BF00BF00BF00BF00BF00BF05
:1007FC0000BF00BF00BF00BF00BF00BF00BF00BFF5
:10080C0000BFE3791068C3EBC30300EB8307BF8819
:10081C0050F823305F83004600BF00BF00BF00BF0D
:10082C0000BF00BF00BF00BF00BF00BF00BF00BFC4
:10083C0000BF00BF00BF00BF00BF00BF00BF00BFB4
:10084C0000BF00BF00BF00BF00BF00BF049B5B0820
:10085C0004939DF805300133DBB2172B8DF805306E
:10086C0000F28380E3791068C3EBC30300EB8307CA
:10087C00BF8850F823301F830398049B18427FF4E1
:10088C0073AF004600BF00BF00BF00BF00BF00BF7A
:10089C0000BF00BF00BF00BF00BF00BF00BF00BF54
:1008AC0000BF00BF00BF00BF00BFE3791068C3EBFF
:1008BC00C30300EB8307BF8850F823305F830046E7
:1008CC0000BF00BF00BF00BF00BF00BF00BF00BF24
:1008DC0000BF00BF00BF00BF00BF00BF00BF00BF14
:1008EC0000BF00BF00BF00BF00BF00BF00BF00BF04
:1008FC0000BF00BF00BF00BF00BF00BF00BF00BFF4
:10090C0000BF00BF00BF00BF00BF00BF00BF00BFE3
:10091C0000BF00BF00BF00BF00BF00BF00BF00BFD3
:10092C0000BF00BF00BF00BF00BF00BF00BF00BFC3
:10093C0000BF00BF00BF00BF00BF00BF00BF00BFB3
:10094C0000BF00BF00BF00BF00BF00BF00BF00BFA3
:10095C0000BF00BF00BF00BF00BF00BF00BF00BF93
:10096C0000BF00BF00BF00BF70E7BDF80A309BB2EC
:10097C00002B7FF4D1AE62B600F060FD206107B0B1
:10098C00F0BD002BF7D04FF4000E0026544B186826
:10099C00544BCDF810E0BDF80A200331033A92B263
:1009AC00ADF80A2011F8032CD2B28DF8062011F8FC
:1009BC00022CD2B28DF8072011F8012CD2B28DF88E
:1009CC0008209DF806C09DF807209DF808701202BB
:1009DC0042EA0C423A4303928DF80560E2795D6875
:1009EC00C2EBC20200EB8207BF8850F822200595AB
:1009FC001783039F049A174225D05A68059FD21B70
:100A0C004F2AFAD9E279C2EBC20200EB8207BF8807
:100A1C0050F8222057835A6805925A68059FD21BBA
:100A2C00072AFAD9049A520804929DF8052001323B
:100A3C00D2B2172A8DF80520D0D9BDF80A2092B26F
:100A4C00002AA6D197E75A68059FD21B182AFAD913
:100A5C00E279C2EBC20200EB8207BF8850F8222079
:100A6C0057835A6805925A68059FD21B452AFAD9B2
:100A7C00D8E77047002B3FF47EAF4FF000450026BF
:100A8C00174A0495BDF80A300431043B9BB2ADF80B
:100A9C000A3011F8043CDBB28DF8073011F8033C36
:100AAC00DBB28DF8063011F8023CDBB28DF8083061
:100ABC0011F8013CDBB28DF809309DF807C09DF8A8
:100ACC0006309DF808001B049DF8097043EA0C637E
:100ADC003B4343EA002303938DF805607FE000BF9E
:100AEC0090000020001000E0004600BF00BF00BFD7
:100AFC0000BF00BF00BF00BF00BF00BF00BF00BFF2
:100B0C0000BF00BF00BF00BF00BF00BF00BF00BFE1
:100B1C0000BF00BF00BF00BF00BF00BF00BF00BFD1
:100B2C0000BF00BF00BF00BF00BF00BF00BF00BFC1
:100B3C0000BF00BF00BF00BF00BF00BF00BF00BFB1
:100B4C0000BF00BF00BF00BF00BF00BF00BF00BFA1
:100B5C0000BF00BF00BFE3791068C3EBC30300EB19
:100B6C008307BF8850F823305F83004600BF00BF67
:100B7C0000BF00BF00BF00BF00BF00BF00BF00BF71
:100B8C0000BF00BF00BF00BF00BF00BF00BF00BF61
:100B9C0000BF00BF00BF00BF00BF00BF00BF00BF51
:100BAC0000BF00BF00BF00BF00BF00BF00BF00BF41
:100BBC0000BF00BF00BF00BF00BF00BF00BF00BF31
:100BCC0000BF00BF00BF00BF049B5B0804939DF8EF
:100BDC0005300133DBB21F2B8DF805307ED8E3795D
:100BEC001068C3EBC30300EB8307BF8850F82330B6
:100BFC001F830398049B18427FF476AF004600BF16
:100C0C0000BF00BF00BF00BF00BF00BF00BF00BFE0
:100C1C0000BF00BF00BF00BF00BF00BF00BF00BFD0
:100C2C0000BF00BFE3791068C3EBC30300EB83077D
:100C3C00BF8850F823305F83004600BF00BF00BF61
:100C4C0000BF00BF00BF00BF00BF00BF00BF00BFA0
:100C5C0000BF00BF00BF00BF00BF00BF00BF00BF90
:100C6C0000BF00BF00BF00BF00BF00BF00BF00BF80
:100C7C0000BF00BF00BF00BF00BF00BF00BF00BF70
:100C8C0000BF00BF00BF00BF00BF00BF00BF00BF60
:100C9C0000BF00BF00BF00BF00BF00BF00BF00BF50
:100CAC0000BF00BF00BF00BF00BF00BF00BF00BF40
:100CBC0000BF00BF00BF00BF00BF00BF00BF00BF30
:100CCC0000BF00BF00BF00BF00BF00BF00BF00BF20
:100CDC0000BF00BF00BF00BF00BF75E7BDF80A3002
:100CEC009BB2002B7FF4CDAE45E6032D00F02B819B
:100CFC00002B3FF440AE4FF400050026174A049534
:100D0C00BDF80A30E079033B9BB2ADF80A300B78A2
:100D1C001768DBB28DF807304B78C0EBC000DBB244
:100D2C008DF808308B7807EB800CDBB28DF8063031
:100D3C009DF807E09DF80830BCF804C01B0243EA9C
:100D4C000E439DF806E057F8200043EA0E03039388
:100D5C0003318DF80560A0F81AC07CE090000020EB
:100D6C00049B5B080493004600BF00BF00BF00BF9C
:100D7C0000BF00BF00BF00BF00BF00BF00BF00BF6F
:100D8C0000BF00BF00BF00BF00BF00BF00BF00BF5F
:100D9C0000BF00BF00BF00BF00BF00BF00BF00BF4F
:100DAC0000BF00BF00BF00BF00BF00BF00BF00BF3F
:100DBC0000BF00BF00BF00BF00BF00BF00BF00BF2F
:100DCC0000BF00BF00BF00BF00BF00BF00BF00BF1F
:100DDC0000BF00BF00BF00BF00BF00BF00BF00BF0F
:100DEC0000BF00BF00BF00BF00BF00BFE0791768A5
:100DFC009DF80530C0EBC00007EB800CBCF804C0BC
:100E0C0057F820000133DBB28DF80530A0F818C07C
:100E1C00004600BF00BF00BF00BF00BF00BF00BF47
:100E2C0000BF00BF00BF00BF00BF00BF00BF00BFBE
:100E3C0000BF00BF00BF00BF00BF9DF80530182BDE
:100E4C007AD0E3791068C3EBC30300EB8307BF8848
:100E5C0050F823305F830398049B184280D10046DE
:100E6C0000BF00BF00BF00BF00BF00BF00BF00BF7E
:100E7C0000BF00BF00BF00BF00BF00BF00BF00BF6E
:100E8C00E3791068C3EBC30300EB8307BF8850F80A
:100E9C0023301F839DF805300133DBB28DF805300C
:100EAC00049B5B080493004600BF00BF00BF00BF5B
:100EBC0000BF00BF00BF00BF00BF00BF00BF00BF2E
:100ECC0000BF00BF00BF00BF00BF00BF00BF00BF1E
:100EDC0000BF00BF00BF00BF00BF00BF00BF00BF0E
:100EEC0000BF00BF00BF00BF00BF00BF00BF00BFFE
:100EFC0000BF00BF00BF00BF00BF00BF00BF00BFEE
:100F0C0000BF00BF00BF00BF00BF00BF00BF00BFDD
:100F1C0000BF00BF00BF00BF00BF00BF00BF00BFCD
:100F2C0000BF00BF00BF00BF00BF00BF00BF00BFBD
:100F3C009DF80530182B84D1BDF80A309BB2002BDC
:100F4C007FF4DDAE17E5002B3FF415AD4FF4000533
:100F5C000026134A0495BDF80A300331033B9BB2BB
:100F6C00ADF80A3011F8033CDBB28DF8073011F8FC
:100F7C00023CDBB28DF8063011F8013CDBB28DF887
:100F8C0008309DF807709DF806309DF808001B028C
:100F9C0043EA0743034303938DF80560E1E000BF88
:100FAC0090000020004600BF00BF00BF00BF00BF84
:100FBC0000BF00BF00BF00BF00BF00BF00BF00BF2D
:100FCC0000BF00BF00BF00BF00BF00BF00BF00BF1D
:100FDC0000BF00BF00BF00BF00BF00BF00BF00BF0D
:100FEC0000BF00BF00BF00BF00BF00BF00BF00BFFD
:100FFC0000BF00BF00BF00BF00BF00BF00BF00BFED
:10100C0000BF00BF00BF00BF00BF00BF00BF00BFDC
:10101C0000BF00BF00BF00BF00BF00BF00BF00BFCC
:10102C0000BF00BF00BF00BF00BF00BF00BF00BFBC
:10103C0000BF00BF00BF00BF00BF00BF00BF00BFAC
:10104C0000BF00BF00BF00BF00BF00BF00BF00BF9C
:10105C0000BF00BF00BF00BF00BF00BF00BF00BF8C
:10106C0000BF00BF00BF00BF00BF00BF00BF00BF7C
:10107C0000BF00BF00BF00BF00BF00BF00BF00BF6C
:10108C0000BF00BF00BF00BF00BF00BF00BF00BF5C
:10109C0000BF00BF00BF00BF00BF00BF00BF00BF4C
:1010AC0000BF00BF00BF00BF00BF00BF00BF00BF3C
:1010BC0000BF00BF00BF00BF00BF00BF00BF00BF2C
:1010CC0000BF00BF00BFE3791068C3EBC30300EBA4
:1010DC008307BF8850F823305F83004600BF00BFF2
:1010EC0000BF00BF00BF00BF00BF00BF00BF00BFFC
:1010FC0000BF00BF00BF00BF00BF00BF00BF00BFEC
:10110C0000BF00BF00BF00BF00BF00BF00BF00BFDB
:10111C0000BF00BF00BF00BF00BF00BF00BF00BFCB
:10112C0000BF00BF00BF00BF00BF00BF00BF00BFBB
:10113C0000BF00BF00BF00BF00BF00BF00BF00BFAB
:10114C0000BF00BF00BF00BF00BF049B5B0804933F
:10115C009DF805300133DBB2172B8DF8053000F20A
:10116C00EB80E3791068C3EBC30300EB8307BF8804
:10117C0050F823301F830398049B18427FF412AF5E
:10118C00004600BF00BF00BF00BF00BF00BF00BFD4
:10119C0000BF00BF00BF00BF00BF00BF00BF00BF4B
:1011AC0000BF00BF00BF00BF00BF00BF00BF00BF3B
:1011BC0000BF00BF00BF00BF00BF00BF00BF00BF2B
:1011CC0000BF00BF00BF00BF00BF00BF00BF00BF1B
:1011DC0000BF00BF00BF00BF00BF00BF00BF00BF0B
:1011EC0000BF00BF00BF00BF00BF00BF00BF00BFFB
:1011FC0000BF00BF00BF00BF00BF00BF00BF00BFEB
:10120C0000BFE3791068C3EBC30300EB8307BF880F
:10121C0050F823305F83004600BF00BF00BF00BF03
:10122C0000BF00BF00BF00BF00BF00BF00BF00BFBA
:10123C0000BF00BF00BF00BF00BF00BF00BF00BFAA
:10124C0000BF00BF00BF00BF00BF00BF00BF00BF9A
:10125C0000BF00BF00BF00BF00BF00BF00BF00BF8A
:10126C0000BF00BF00BF00BF00BF00BF00BF00BF7A
:10127C0000BF00BF00BF00BF00BF00BF00BF00BF6A
:10128C0000BF00BF00BF00BF00BF00BF00BF00BF5A
:10129C0000BF00BF00BF00BF00BF00BF00BF00BF4A
:1012AC0000BF00BF00BF00BF00BF00BF00BF00BF3A
:1012BC0000BF00BF00BF00BF00BF00BF00BF00BF2A
:1012CC0000BF00BF00BF00BF00BF00BF00BF00BF1A
:1012DC0000BF00BF00BF00BF00BF00BF00BF00BF0A
:1012EC0000BF00BF00BF00BF00BF00BF00BF00BFFA
:1012FC0000BF00BF00BF00BF00BF00BF00BF00BFEA
:10130C0000BF00BF00BF00BF00BF00BF00BF00BFD9
:10131C0000BF00BF00BF00BF00BF00BF00BF00BFC9
:10132C0000BF00BF00BF10E7BDF80A309BB2002B16
:10133C007EF492AFFFF71FBBBDF80A309BB2002BB7
:10134C007FF408AEFFF717BB4388F0B58B4226D964
:10135C00057AC2F30743C2F30724D6B23DB16B43FF
:10136C006C436E43C3F30723C4F30724360A90F887
:10137C0006C0C768BCF1060F0CBF042503256943E2
:10138C00ACF1020C7D18BCF1060F1DD8DFE80CF097
:10139C00041C08040F0404007C546B70AE70F0BD88
:1013AC00FE2B28BFFE237B546E70AC70F7E77B548A
:1013BC006C70AE70037A120E13B9D2B2EA70EEE70B
:1013CC005A43C2F30722F9E77B546C70AE70E6E720
:1013DC0042EA012242EA00407047000008B500F0E2
:1013EC0005F8014B186008BD9000002008B5024BB1
:1013FC001B681B68019308BDB001060808B5024BB9
:10140C001B689B68019308BDB001060808B5024B28
:10141C001B68DB68019308BDB001060808B5024BD8
:10142C001B681B69019308BDB001060808B5024B87
:10143C001B685B68019308BD9C01060808B5024B4C
:10144C001B681B69019308BD9C01060808B5024B7B
:10145C001B685B69019308BD9C01060808B5024B2B
:10146C001B685B6C019308BDD001060808B5024BE4
:10147C001B689B6C019308BDD001060808B5024B94
:10148C001B689B69019308BDC401060808B5024B93
:10149C001B685B6A019308BDC401060808B5024BC2
:1014AC001B689B6A019308BDC401060808B5024B72
:1014BC001B68DB6A019308BDC401060808B5024B22
:1014CC001B681B6B019308BDC401060808B5024BD1
:1014DC001B685B6B019308BDC401060808B5024B81
:1014EC001B689B6B019308BDC401060808B5024B31
:1014FC001B681B6C019308BDC401060808B5024BA0
:10150C001B681B6E019308BDAC01060808B5024BA5
:10151C001B685B6E019308BDAC01060808B5024B55
:10152C001B689B6E019308BDAC01060808B5024B05
:10153C001B68DB6E019308BDAC01060808B5024BB5
:10154C001B681B6F019308BDAC01060808B5024B64
:10155C001B685B6F019308BDAC01060808B5034B13
:10156C001B68D3F88030019308BD0000AC0106085D
:10157C0008B5024B1B68DB69019308BDB401060872
:10158C0008B5024B1B681B6A019308BDB401060821
:10159C0008B5024B1B681B68019308BDD8010608EF
:1015AC0008B5024B1B681B69019308BDD8010608DE
:1015BC0008B5024B1B685B69019308BDD80106088E
:1015CC0008B5024B1B689B69019308BDD80106083E
:1015DC0008B5024B1B68DB69019308BDD8010608EE
:1015EC0008B5024B1B681B6A019308BDD80106089D
:1015FC0008B5024B1B689B6C019308BDC001060823
:10160C0008B5024B1B685B68019308BDA401060872
:10161C0008B5024B1B685B69019308BDA401060861
:10162C0008B5034B1B68D3F89030019308BD00003C
:10163C00A401060808B5034B1B68D3F89C30019332
:10164C0008BD0000A401060808B5024B1B685B68C6
:10165C00019308BDC801060808B5024B1B689B68BE
:10166C00019308BDC801060808B5024B1B68DB686E
:10167C00019308BDC801060808B5024B1B681B691D
:10168C00019308BDC801060808B5024B1B685B69CD
:10169C00019308BDC801060808B5024B1B689B697D
:1016AC00019308BDC801060808B5024B1B68DB692D
:1016BC00019308BDC801060808B5024B1B681B6ADC
:1016CC00019308BDC801060808B5024B1B681B6BCB
:1016DC00019308BDC801060808B5024B1B685B6B7B
:1016EC00019308BDC801060808B5024B1B681B6CAA
:1016FC00019308BDC801060808B5024B1B685B6C5A
:10170C00019308BDC801060808B5024B1B68DB6BCA
:10171C00019308BDCC01060808B5024B1B681B6879
:10172C00019308BDA001060808B5024B1B685B6855
:10173C00019308BDA001060808B5024B1B685B6C41
:10174C00019308BDA001060870B5002604460D469D
:10175C0040F8086FFFF782FE28462570FFF708FF58
:10176C002046666070BD000002220020044B1A6007
:10177C00044B054A1860988098719A60FFF740BF37
:10178C00A0000020940000200000FFFFF8B50646E2
:10179C000D4600248F18BD420CD0336830469B6830
:1017AC0015F8011B9847031E01DB1C44F3E7002CC2
:1017BC0008BF1C462046F8BD70B505460C460846C9
:1017CC0049B100F0A5FC2B68024621462846BDE82D
:1017DC007040DB68184770BD03689B68184700238E
:1017EC00012A98BF0A2230B58BB00C468DF82430F4
:1017FC0009A92546B4FBF2F404FB1253DBB2092B06
:10180C0094BF30333733DBB2AA4201F8013DF0D933
:10181C00FFF7D2FF0BB030BD002340681A461946C3
:10182C00FFF732BF014B024A1A607047A400002038
:10183C0024220A08024B1A68024B1A60704700BF38
:10184C0008000020A80000200021FFF7E1BE0000E6
:10185C000022014B9A607047AC000020014B1860CD
:10186C00704700BF0C00002008B5134B43B100F0CB
:10187C0071F903681B699847002801DDAFF30080FC
:10188C000E4B43B100F016FA03681B699847002809
:10189C0001DDAFF300800A4B0BB1AFF30080094BB5
:1018AC0043B100F091F903681B699847002801DDEA
:1018BC00AFF3008008BD00BF000000000000000076
:1018CC00000000000000000008B5FFF7CDFFFFF797
:1018DC00BDFD014B186008BD380500200548064ABF
:1018EC0008B5121A054900F0D9FB054B054A1A60D8
:1018FC0008BD00BF004002400440024080230A089B
:10190C00004002401E1C279A002307B51A466FF0B0
:10191C0077010093FFF78EFE03B05DF804FB000027
:10192C0007B543880A2B08D0502B0BD1094B1B68E9
:10193C004BB103B05DF804EB1847FFF7E5FF03B0BC
:10194C005DF804FB00231A466FF077010093FFF754
:10195C0071FEF4E7C0000020002110B51148FFF71C
:10196C00EBFE114B1A68114B9A420CBF012200225C
:10197C000F4B1A7001D0FFF7B1FFFFF757FD04466C
:10198C0000F0A2FB0B4B13B12046AFF300800021FB
:10199C000848FFF7B9FEBDE8104000210648FFF7E4
:1019AC003FBE00BF69180A08004002401E1C279A5F
:1019BC00BC000020000000002D190A08704710B56B
:1019CC000446182100F060FB204610BDF8B50E4609
:1019DC00002400F10807051D17F8011D0A223046E6
:1019EC00FFF7FDFEAF42044401D12046F8BD002CA8
:1019FC00F2D02E213046FFF7EFFE0444ECE7000056
:101A0C0010B50446044B1122002140F8043B00F0B1
:101A1C0053FB204610BD00BF4C220A080346074A60
:101A2C0010B543F8042B01F1100251F8044B91420C
:101A3C0043F8044BF9D10A781A7010BD4C220A08ED
:101A4C00024AC0E900210422027570474C220A08A0
:101A5C0010B59DF8084044EA0324042344EA0244E8
:101A6C0044EA01644460037510BD000037B5044DB1
:101A7C0005609DF818500095FFF7EAFF03B030BDE4
:101A8C004C220A08417470477047704708B5002112
:101A9C00007CFFF795FD40EAE07008BD08B5012118
:101AAC00007CFFF78DFD40EAE07008BD08B5007CB6
:101ABC00FFF77EFD20EAE07008BD08B5007CFFF75B
:101ACC006FFD20EAE07008BD38B50446007C0D4679
:101ADC00FFF76EFD002801DC607C28B12946207CD4
:101AEC00FFF776FD20EAE07038BD007CFFF778BD8B
:101AFC0010B50446142100F0C7FA204610BD7047FB
:101B0C0010B54FF47A73044608460021C4E901135A
:101B1C00044B20742360012311466374FFF738FDD6
:101B2C00204610BD60220A0810B50446142200217C
:101B3C0000F0C2FA054B20466360054BE36040F2AF
:101B4C00011323818123238210BD00BFF4000020E8
:101B5C00F501002030B50E4D87B001A8FFF7E4FF6A
:101B6C002978BFF35B8F11F001040ED12846FEF7E4
:101B7C0090FA50B1214601AA0648FFF7C1FF28464A
:101B8C00FEF78CFA044800F083FA024807B030BD27
:101B9C00C4000020CC000020951A0A0810B5044699
:101BAC001422002100F088FA054B20466360054B97
:101BBC00E36040F2011323818123238210BD00BF17
:101BCC00760200207703002010B50E4C86B001A8D9
:101BDC00FFF7E4FF2378BFF35B8FDB070ED42046BF
:101BEC00FEF757FA50B1012101AA0748FFF788FF09
:101BFC002046FEF753FA054800F04AFA024806B0B0
:101C0C0010BD00BFC8000020E00000200B1B0A081C
:101C1C00704741747047704708B5007CFFF766FC4D
:101C2C0020EAE07008BD08B5007CFFF737FC20EA1D
:101C3C00E07008BD08B5007CFFF740FC40EAE0709E
:101C4C0008BD08B5007CFFF731FC40EAE07008BD28
:101C5C00007CFFF73BBC70B5467C04460D462EB1AC
:101C6C002946207CBDE87040FFF710BC007CFFF7D4
:101C7C003DFC0028F4DC304670BD10B50446142140
:101C8C0000F002FA204610BD4FF0000C10B50446CF
:101C9C00084611464FF47A72C4E901C2044A207412
:101CAC002260012262741A46FFF7E8FB204610BD41
:101CBC0090220A0838B50C4D2978BFF35B8F11F0D0
:101CCC0001040FD12846FEF7E4F958B12146074B21
:101CDC00074A0848FFF7D8FF2846FEF7DFF9064801
:101CEC0000F0D6F9034838BDF8030020800400202A
:101CFC00FC03002004050020231C0A087047F8B5DB
:101D0C00064615460C468F18BC4206D03368304642
:101D1C009B6814F8011B9847F6E72846F8BD00228B
:101D2C00007CFFF7EBBB0021007CFFF7EFBB002131
:101D3C00007CFFF7F3BB0021007CFFF7F7BB002111
:101D4C00007CFFF7FBBB10B50446142100F09CF996
:101D5C00204610BD10B54FF47A7304460846002196
:101D6C00C4E90113034B114623602074FFF7F6FB03
:101D7C00204610BDC0220A08002240681146FFF719
:101D8C007BBCF0B5154689B011220E4604460021E5
:101D9C0003A800F091F9284600F0BAF9002781B2A7
:101DAC0073682846009703AAFFF722FC30B1394626
:101DBC002046FFF745FE204609B0F0BD204603A99A
:101DCC00FFF72CFEF7E7002240681146FFF774BCC2
:101DDC00002240681146FFF77FBC00224068FFF7E5
:101DEC0073BC0022406881F00101FFF75DBC002349
:101DFC0040681A461946FFF74FBC0022406811464E
:101E0C00FFF72ABC002202214068FFF72DBC0023FB
:101E1C0040681A46FFF718BC0422024B5A60024A6B
:101E2C001A60704718050020E8220A080023406851
:101E3C001A46FFF709BC002202214068FFF714BCC8
:101E4C00002240681146FFF707BC0022406811468B
:101E5C00FFF712BC002340681A461946FFF714BC62
:101E6C00002340681A461946FFF716BC002140684B
:101E7C00FFF73ABC00214068FFF73EBC00224068E7
:101E8C0081F00101FFF710BC00224068FFF71CBC79
:101E9C00002240681146FFF71FBC00224068114623
:101EAC00FFF70ABC70B515468EB0044608A8FFF7BC
:101EBC00A7FD1122002103A800F0FEF800262846F9
:101ECC0000F026F90A4B009681B25B68284603AAFB
:101EDC00FFF78EFB30B131462046FFF7B1FD2046AF
:101EEC000EB070BD204603A9FFF798FDF7E700BFC1
:101EFC0018050020024B034A1A6000225A607047F2
:101F0C002005002024230A08024B986808B1FFF72B
:101F1C00ADBA70472C050020172870B5044601D9BE
:101F2C00002070BDA0F10D03022B0BD9012824D881
:101F3C0000F086F80021007CFFF708FB80F0010020
:101F4C00C0B2EEE7124E3178BFF35B8F11F0010592
:101F5C000DD13046FEF79DF848B129460D48FFF7E4
:101F6C00F3FB3046FEF79AF80B4800F091F8094B5A
:101F7C001878FFF705FB0028D2D1123C012C05D8AC
:101F8C00FFF798FE007CFFF7A9FAD7E70120C8E716
:101F9C00280500202C050020151F0A08172838B525
:101FAC0004460D460AD8FF2908D0FFF7B5FF28B123
:101FBC0029462046BDE83840FFF720BA38BD38B571
:101FCC0004460D46FFF722FAFF2810D0062804D845
:101FDC004D2323FA00F0C30709D42046FFF79CFFDA
:101FEC0028B129462046BDE83840FFF717BA38BD5E
:101FFC00002307B51A46194600930348FFF736FD30
:10200C0003B05DF804FB00BF3C05002070470000E6
:10201C00002370B5202543801423084E044603800A
:10202C00314685600561284600F030F83146606025
:10203C00284600F02BF8E060204670BD58230A08B3
:10204C0030B50E4D87B02978BFF35B8F11F00104CA
:10205C0011D12846FEF71DF868B101A8FFF7D8FF8B
:10206C00214601AA0648FFF775FE2846FEF716F82A
:10207C00044800F00DF8024807B030BD54050020AC
:10208C005805002019200A08FEF701B8FDF7FDBF1E
:10209C00002301461A46184600F042B80A44914201
:1020AC0000F1FF3300D1704710B511F8014B91428C
:1020BC0003F8014FF9D110BD03460244934200D1FD
:1020CC00704703F8011BF9E738B50D4B04461D6842
:1020DC00AB6B7BB91820FFF71FFB0A4A0A4BA863AE
:1020EC00C0E90023094B012283600B238381002369
:1020FC00C0E904230022AB6B1C615A6138BD00BFE0
:10210C000C0000200E33CDAB34126DE6ECDE050076
:10211C00034613F8012B002AFBD1181A013870471B
:10212C002DE9F843DFF8BC800646D8F800001F46BE
:10213C000D46914600F058F8264B1C6834B9264CD5
:10214C001C60264B13B11B68C4F8883063681F2BC6
:10215C0007DDD8F8000000F049F84FF0FF30BDE87B
:10216C00F8835EB3D4F8880088B91D4B23B9D8F82E
:10217C00000000F03AF8F0E74FF48470FFF7CCFA67
:10218C000028F4D00023C0E94033C4F888000122B1
:10219C006368022E40F8239002FA03F200EB8301ED
:1021AC00D0F8003143EA0203C0F80031C1F8807066
:1021BC0002BFD0F804311A43C0F804216368D8F880
:1021CC0000005A1C0233626044F8235000F00EF8F1
:1021DC000020C4E7F80500206C050020000000007A
:1021EC0025170A08700000207047704770470000E0
:1021FC001D000A085D000A0885000A0889000A0803
:10220C00000000002C01000018000000F401000088
:10221C002C010000500000006170700025592D2524
:10222C006D2D25645425483A254D3A2553257A00C1
:10223C0061736374696D65000000000000000000AC
:10224C00D9190A08C9190A08CB190A080000000094
:10225C0000000000971A0A08FD1A0A08D51A0A0885
:10226C0099170A08C71A0A08991A0A08A91A0A0813
:10227C00F71A0A08B91A0A08911A0A08000000008D
:10228C00000000001D1C0A08871C0A08631C0A08B1
:10229C0099170A08331C0A084F1C0A08411C0A0823
:1022AC005D1C0A081F1C0A08251C0A0800000000F7
:1022BC0000000000091D0A08531D0A082B1D0A08FE
:1022CC000B1D0A08331D0A083B1D0A08431D0A088A
:1022DC004B1D0A0800000000000000001B1E0A082D
:1022EC00111E0A08071E0A08851D0A0825180A0867
:1022FC00FB1D0A08791E0A08811E0A08EF1D0A0830
:10230C00E71D0A08DD1D0A08D31D0A088F1D0A08DF
:10231C000000000000000000391E0A08431E0A08D5
:10232C004D1E0A08571E0A08611E0A086D1E0A086F
:10233C00791E0A08811E0A08891E0A08951E0A08B9
:10234C009D1E0A08A71E0A08B11E0A0800000000FC
:10235C002D010A08E9130A0875170A0831180A082A
:10236C0041180A085D180A08251E0A08011F0A08E8
:04237C00FD1F0A082F
:042380000000000059
:1023840003000000040000003C220A0810000020A2
:102394000000000000000000000000000000000039
:1023A4000000000000000000000000000000000029
:1023B4000000000000000000000000000000000019
:1023C4000000000000000000000000000000000009
:1023D40000000000000000000000000000000000F9
:1023E40000000000000000000000000000000000E9
:0423F400FD050020C3
:1023F800FFFFFFFF00000102030405060708090AA2
:102408000B0C0D0E0F101112131415161718191A9C
:082418001B1C1D1E1F202800E3
:0424200078563412A4
:04000005080A001CC9
:00000001FF
