:02000004080AE8
:1000000000000A08C8110A080000060006000501E1
:080010000402FD0800000000DD
:04001800B40F0A080F
:10001C0009480A4908B5884205D0094A824202D0EB
:10002C00121A00F017FF0748074A0021121A00F0B5
:10003C001FFF064808BD00BF0000002034110A084D
:10004C006C0000206C000020E1050020E105002080
:10005C0070B500F041FB0025054E064CA41BA4080E
:10006C00A54200D170BD56F8043B98470135F7E71F
:10007C0010110A082C110A0800F013B808B500F08A
:10008C001DF8BDE8084000F0DFBA00F0EBB900F055
:10009C00F1B90078B0FA80F0400970470123037081
:1000AC00704708B500F01AFC4FF4165100F0FCFB39
:1000BC00BDE808400121072000F034BE38B501210D
:1000CC00072000F040FEFA2000F07EFA0B2000F032
:1000DC0053FE124C206000F001FC114900F022FA92
:1000EC0000F0FCFB24680546002C15DA2D2100F0ED
:1000FC001DFA61420A22284600F031FA00F0EEFBAC
:10010C00084900F022FA0720002100F01CFEBDE88F
:10011C003840FA2000F058BA2146EBE76C0000207A
:10012C00C80F0A08D50F0A0808B5024B1B685B6894
:10013C00019308BDB001060808B5024B1B689B680B
:10014C00019308BDB001060808B5024B1B68DB68BB
:10015C00019308BDB001060808B5024B1B681B696A
:10016C00019308BDB001060808B5024B1B681B6B58
:10017C00019308BDB001060808B5024B1B685B680B
:10018C00019308BD9C01060808B5024B1B685B690E
:10019C00019308BD9C01060808B5024B1B685B6CFB
:1001AC00019308BDD001060808B5024B1B689B6C77
:1001BC00019308BDD001060808B5024B1B689B696A
:1001CC00019308BDC401060808B5024B1B685B6AA5
:1001DC00019308BDC401060808B5024B1B689B6A55
:1001EC00019308BDC401060808B5024B1B68DB6A05
:1001FC00019308BDC401060808B5024B1B681B6BB4
:10020C00019308BDC401060808B5024B1B685B6B63
:10021C00019308BDC401060808B5024B1B689B6B13
:10022C00019308BDC401060808B5024B1B681B6C82
:10023C00019308BDC401060808B5024B1B681B6E70
:10024C00019308BDAC01060808B5024B1B685B6E38
:10025C00019308BDAC01060808B5024B1B689B6EE8
:10026C00019308BDAC01060808B5024B1B68DB6E98
:10027C00019308BDAC01060808B5024B1B681B6F47
:10028C00019308BDAC01060808B5024B1B685B6FF7
:10029C00019308BDAC01060808B5034B1B68D3F8E5
:1002AC008030019308BD0000AC01060808B5024B74
:1002BC001B68DB69019308BDB401060808B5024B45
:1002CC001B681B6A019308BDB401060808B5024BF4
:1002DC001B681B68019308BDD801060808B5024BC2
:1002EC001B685B68019308BDD801060808B5024B72
:1002FC001B681B69019308BDD801060808B5024BA1
:10030C001B685B69019308BDD801060808B5024B50
:10031C001B689B69019308BDD801060808B5024B00
:10032C001B68DB69019308BDD801060808B5024BB0
:10033C001B681B6A019308BDD801060808B5024B5F
:10034C001B689B6C019308BDC001060808B5024BE5
:10035C001B685B68019308BDA401060808B5024B35
:10036C001B685B69019308BDA401060808B5034B23
:10037C001B68D3F89030019308BD0000A401060857
:10038C0008B5034B1B68D3F89C30019308BD0000E3
:10039C00A401060808B5024B1B685B68019308BDF5
:1003AC00C801060808B5024B1B689B68019308BD81
:1003BC00C801060808B5024B1B68DB68019308BD31
:1003CC00C801060808B5024B1B681B69019308BDE0
:1003DC00C801060808B5024B1B685B69019308BD90
:1003EC00C801060808B5024B1B689B69019308BD40
:1003FC00C801060808B5024B1B68DB69019308BDF0
:10040C00C801060808B5024B1B681B6A019308BD9E
:10041C00C801060808B5024B1B681B6B019308BD8D
:10042C00C801060808B5024B1B685B6B019308BD3D
:10043C00C801060808B5024B1B681B6C019308BD6C
:10044C00C801060808B5024B1B685B6C019308BD1C
:10045C00C801060808B5024B1B68DB6B019308BD8D
:10046C00CC01060808B5024B1B681B68019308BD3C
:10047C00A001060808B5024B1B685B68019308BD18
:10048C00A001060808B5024B1B685B6C019308BD04
:10049C00A001060870B5002604460D4640F8086F0A
:1004AC00FFF77AFE28462570FFF700FF20466660AE
:1004BC0070BD000002220020044B1A60044B054A58
:1004CC001860988098719A60FFF740BF7C000020FC
:1004DC00700000200000FFFFF8B506460D46002412
:1004EC008F18BD420CD0336830469B6815F8011B41
:1004FC009847031E01DB1C44F3E7002C08BF1C4685
:10050C002046F8BD70B505460C46084649B100F0CA
:10051C00DBFC2B68024621462846BDE87040DB68B0
:10052C00184770BD08B5FFF7EDFF08BD03689B6861
:10053C00184738B50D210546FFF7F8FF0A21044688
:10054C002846FFF7F3FF204438BD38B50546FFF7C2
:10055C00D9FF04462846FFF7ECFF204438BD0023A2
:10056C00012A98BF0A2230B58BB00C468DF8243086
:10057C0009A92546B4FBF2F404FB1253DBB2092B98
:10058C0094BF30333733DBB2AA4201F8013DF0D9C6
:10059C00FFF7B8FF0BB030BD002340681A46194670
:1005AC00FFF718BF014B024A1A6070478000002009
:1005BC00D70F0A08024B1A68024B1A60704700BF2B
:1005CC0000000020840000200021FFF7C7BE0000BF
:1005DC000022014B9A60704788000020014B186084
:1005EC00704700BF0400002008B5134B43B100F066
:1005FC0075F903681B699847002801DDAFF300808B
:10060C000E4B43B100F01AFA03681B699847002897
:10061C0001DDAFF300800A4B0BB1AFF30080094B47
:10062C0043B100F095F903681B699847002801DD78
:10063C00AFF3008008BD00BF000000000000000008
:10064C00000000000000000008B5FFF7CDFFFFF729
:10065C009BFD014B186008BD140500200548064A97
:10066C0008B5121A054900F0F5FB054B054A1A604E
:10067C0008BD00BF004002400440024030110A088F
:10068C00004002401E1C279A002307B51A466FF043
:10069C0077010093FFF774FE03B05DF804FB0000D4
:1006AC0007B543880A2B08D0502B0BD1094B1B687C
:1006BC004BB103B05DF804EB1847FFF7E5FF03B04F
:1006CC005DF804FB00231A466FF077010093FFF7E7
:1006DC0057FEF4E79C000020002110B51148FFF7ED
:1006EC00D1FE114B1A68114B9A420CBF0122002209
:1006FC000F4B1A7001D0FFF7B1FFFFF73DFD044619
:10070C0000F0BEFB0B4B13B12046AFF30080002171
:10071C000848FFF79FFEBDE8104000210648FFF790
:10072C0025BE00BFE9050A08004002401E1C279A9E
:10073C009800002000000000AD060A08704710B5B4
:10074C000446182100F07CFB204610BDF8B50E467F
:10075C00002400F10807051D17F8011D0A22304678
:10076C00FFF7FDFEAF42044401D12046F8BD002C3A
:10077C00F2D02E213046FFF7D9FE0444ECE70000FE
:10078C0010B50446044B1122002140F8043B00F044
:10079C006FFB204610BD00BF00100A080346074A35
:1007AC0010B543F8042B01F1100251F8044B91429F
:1007BC0043F8044BF9D10A781A7010BD00100A08DE
:1007CC00024AC0E9002104220275704700100A0891
:1007DC0010B59DF8084044EA0324042344EA02447B
:1007EC0044EA01644460037510BD000037B5044D44
:1007FC0005609DF818500095FFF7EAFF03B030BD77
:10080C0000100A08417470477047704708B5002102
:10081C00007CFFF77BFD40EAE07008BD08B50121C4
:10082C00007CFFF773FD40EAE07008BD08B5007C62
:10083C00FFF764FD20EAE07008BD08B5007CFFF707
:10084C0055FD20EAE07008BD38B50446007C0D4625
:10085C00FFF754FD002801DC607C28B12946207C80
:10086C00FFF75CFD20EAE07038BD007CFFF75EBD51
:10087C0010B50446142100F0E3FA204610BD704771
:10088C0010B54FF47A73044608460021C4E90113ED
:10089C00044B20742360012311466374FFF716FD8B
:1008AC00204610BD14100A080022007CFFF716BD6C
:1008BC0010B504461422002100F0DAFA054B20464C
:1008CC006360054BE36040F2011323818123238293
:1008DC0010BD00BFD0000020D101002030B50E4D5E
:1008EC0087B001A8FFF7E4FF2978BFF35B8F11F005
:1008FC0001040ED12846FFF7CCFB50B1214601AACA
:10090C000648FFF7BDFF2846FFF7C8FB044800F078
:10091C009BFA024807B030BDA0000020A8000020C0
:10092C0015080A0810B504461422002100F0A0FA9C
:10093C00054B20466360054BE36040F201132381B5
:10094C008123238210BD00BF5202002053030020DC
:10095C0010B50E4C86B001A8FFF7E4FF2378BFF367
:10096C005B8FDB070ED42046FFF793FB50B10121C0
:10097C0001AA0748FFF784FF2046FFF78FFB0548C5
:10098C0000F062FA024806B010BD00BFA4000020BF
:10099C00BC0000208B080A087047417470477047F0
:1009AC0008B5007CFFF740FC20EAE07008BD08B5F4
:1009BC00007CFFF711FC20EAE07008BD08B5007C54
:1009CC00FFF71AFC40EAE07008BD08B5007CFFF7A1
:1009DC000BFC40EAE07008BD007CFFF715BC70B55D
:1009EC00467C04460D462EB12946207CBDE870405D
:1009FC00FFF7EABB007CFFF717FC0028F4DC30465D
:100A0C0070BD10B50446142100F01AFA204610BD32
:100A1C004FF0000C10B50446084611464FF47A729C
:100A2C00C4E901C2044A20742260012262741A468D
:100A3C00FFF7C2FB204610BD44100A0838B50C4D18
:100A4C002978BFF35B8F11F001040FD12846FFF713
:100A5C0020FB58B12146074B074A0848FFF7D8FF3F
:100A6C002846FFF71BFB064800F0EEF9034838BD9B
:100A7C00D40300205C040020D8030020E0040020F4
:100A8C00AB090A087047F8B5064615460C468F1890
:100A9C00BC4206D0336830469B6814F8011B98475B
:100AAC00F6E72846F8BD0022007CFFF7C5BB002105
:100ABC00007CFFF7C9BB0021007CFFF7CDBB0021F8
:100ACC00007CFFF7D1BB0021007CFFF7D5BB10B534
:100ADC000446142100F0B4F9204610BD10B54FF4B3
:100AEC007A73044608460021C4E90113034B1146EE
:100AFC0023602074FFF7D0FB204610BD74100A0849
:100B0C00002240681146FFF75DBCF0B5154689B070
:100B1C0011220E460446002103A800F0A9F928462C
:100B2C0000F0D2F9002781B273682846009703AA17
:100B3C00FFF704FC30B139462046FFF741FE204652
:100B4C0009B0F0BD204603A9FFF728FEF7E7002205
:100B5C0040681146FFF756BC002240681146FFF76B
:100B6C0061BC00224068FFF755BC0022406881F050
:100B7C000101FFF73FBC002340681A461946FFF7F6
:100B8C0031BC002240681146FFF70CBC0022022148
:100B9C004068FFF70FBC002340681A46FFF7FABB0A
:100BAC000422024B5A60024A1A607047F404002077
:100BBC009C100A08002340681A46FFF7EBBB002282
:100BCC0002214068FFF7F6BB002240681146FFF790
:100BDC00E9BB002240681146FFF7F4BB00234068D4
:100BEC001A461946FFF7F6BB002340681A46194609
:100BFC00FFF7F8BB00214068FFF71CBC00214068E0
:100C0C00FFF720BC0022406881F00101FFF7F2BB26
:100C1C0000224068FFF7FEBB002240681146FFF738
:100C2C0001BC002240681146FFF7ECBB70B51546BD
:100C3C008EB0044608A8FFF7A3FD1122002103A8DB
:100C4C0000F016F90026284600F03EF90A4B0096F3
:100C5C0081B25B68284603AAFFF770FB30B13146BE
:100C6C002046FFF7ADFD20460EB070BD204603A90F
:100C7C00FFF794FDF7E700BFF4040020024B034A92
:100C8C001A6000225A607047FC040020D8100A0831
:100C9C00024B986808B1FFF787BA70470805002027
:100CAC00172870B5044601D9002070BDA0F10D03C2
:100CBC00022B0BD9012824D800F09EF80021007CCF
:100CCC00FFF7E2FA80F00100C0B2EEE7124E317885
:100CDC00BFF35B8F11F001050DD13046FFF7D9F949
:100CEC0048B129460D48FFF7D5FB3046FFF7D6F93A
:100CFC000B4800F0A9F8094B1878FFF7DFFA002829
:100D0C00D2D1123C012C05D8FFF798FE007CFFF7DE
:100D1C0083FAD7E70120C8E7040500200805002066
:100D2C009D0C0A08172838B504460D460AD8FF2929
:100D3C0008D0FFF7B5FF28B129462046BDE838405A
:100D4C00FFF7FAB938BD38B504460D46FFF7FCF984
:100D5C00FF2810D0062804D84D2323FA00F0C3072F
:100D6C0009D42046FFF79CFF28B129462046BDE850
:100D7C003840FFF7F1B938BD10B5044609289CBFBF
:100D8C000A34A4B22046FFF78BFF50B10321204652
:100D9C00FFF7CAF9032804D12046BDE81040FFF73D
:100DAC00E3B9002010BD0000002307B51A46194610
:100DBC0000930348FFF71AFD03B05DF804FB00BF76
:100DCC001805002070470000002370B520254380D3
:100DDC001423084E0446038031468560056128467D
:100DEC0000F030F831466060284600F02BF8E060E7
:100DFC00204670BD0C110A0830B50E4D87B029780D
:100E0C00BFF35B8F11F0010411D12846FFF741F9B4
:100E1C0068B101A8FFF7D8FF214601AA0648FFF7E1
:100E2C005DFE2846FFF73AF9044800F00DF8024839
:100E3C0007B030BD3005002034050020D10D0A0864
:100E4C00FFF725B9FFF721B9002301461A461846CA
:100E5C0000F042B80A44914200F1FF3300D17047D0
:100E6C0010B511F8014B914203F8014FF9D110BDA7
:100E7C0003460244934200D1704703F8011BF9E783
:100E8C0038B50D4B04461D68AB6B7BB91820FFF7CA
:100E9C00E9FA0A4A0A4BA863C0E90023094B01226C
:100EAC0083600B2383810023C0E904230022AB6BF6
:100EBC001C615A6138BD00BF040000200E33CDAB5D
:100ECC0034126DE6ECDE0500034613F8012B002A04
:100EDC00FBD1181A013870472DE9F843DFF8BC80B4
:100EEC000646D8F800001F460D46914600F058F80B
:100EFC00264B1C6834B9264C1C60264B13B11B685E
:100F0C00C4F8883063681F2B07DDD8F8000000F0A8
:100F1C0049F84FF0FF30BDE8F8835EB3D4F8880091
:100F2C0088B91D4B23B9D8F8000000F03AF8F0E767
:100F3C004FF48470FFF796FA0028F4D00023C0E930
:100F4C004033C4F8880001226368022E40F82390D5
:100F5C0002FA03F200EB8301D0F8003143EA0203FA
:100F6C00C0F80031C1F8807002BFD0F804311A43C8
:100F7C00C0F804216368D8F800005A1C0233626080
:100F8C0044F8235000F00EF80020C4E7D4050020EC
:100F9C00480500200000000071040A0868000020C9
:100FAC0070477047704700001D000A085D000A0872
:100FBC0085000A0889000A08000000004D792044C9
:100FCC006174612069733A20003B006170700025E8
:100FDC00592D256D2D25645425483A254D3A255318
:100FEC00257A0061736374696D6500000000000070
:100FFC000000000059070A0849070A084B070A08AD
:10100C00000000000000000017080A087D080A080C
:10101C0055080A08E5040A0847080A0819080A08C6
:10102C0029080A0877080A0839080A0811080A0862
:10103C000000000000000000A5090A080F0A0A08B9
:10104C00EB090A08E5040A08BB090A08D7090A08CB
:10105C00C9090A08E5090A08A7090A08AD090A0816
:10106C000000000000000000910A0A08DB0A0A08D0
:10107C00B30A0A08930A0A08BB0A0A08C30A0A0830
:10108C00CB0A0A08D30A0A0800000000000000007E
:10109C00A30B0A08990B0A088F0B0A080D0B0A08F8
:1010AC00A5050A08830B0A08010C0A08090C0A0892
:1010BC00770B0A086F0B0A08650B0A085B0B0A080A
:1010CC00170B0A080000000000000000C10B0A0802
:1010DC00CB0B0A08D50B0A08DF0B0A08E90B0A0828
:1010EC00F50B0A08010C0A08090C0A08110C0A086D
:1010FC001D0C0A08250C0A082F0C0A08390C0A08C2
:10110C0000000000C1040A08B1050A08C1050A085C
:10111C00DD050A08AD0B0A08890C0A08B50D0A088A
:04112C0000000000BF
:0411300000000000BB
:10113400EF0F0A0808000020000000000000000073
:10114400000000000000000000000000000000009B
:10115400000000000000000000000000000000008B
:10116400000000000000000000000000000000007B
:10117400000000000000000000000000000000006B
:10118400000000000000000000000000000000005B
:0C1194000000000000000000D905002051
:1011A000FFFFFFFF00000102030405060708090A0C
:1011B0000B0C0D0E0F101112131415161718191A07
:0811C0001B1C1D1E1F2028004E
:0411C800785634120F
:04000005080A001CC9
:00000001FF
