:02000004080AE8
:1000000000000A08081D0A08000006000600050195
:080010000402FD0800000000DD
:04001800F01A0A08C8
:1000200009480A4908B5884205D0094A824202D0E7
:10003000121A01F0B3FC0748074A0021121A01F016
:10004000BBFC064808BD00BF00000020741C0A0865
:100050006C0000206C000020E1050020E10500207C
:1000600070B500F029FC0025054E064CA41BA40821
:10007000A54200D170BD56F8043B98470135F7E71B
:10008000501C0A086C1C0A0800F013B808B500F0F0
:1000900023F8BDE8084000F0C7BB00F00DBA00F03F
:1000A00013BA0078B0FA80F040097047012303705A
:1000B000704708B500F002FD4FF4165100F0E4FC63
:1000C0000121072000F01EFFBDE8084000210A20A2
:1000D00000F018BF0000000073B50121072000F0F8
:1000E00022FF0A2000F060FB0A2000F035FF204DBF
:1000F00000212860072000F016FF00F0DFFC2C68CC
:100100000646002C2CDA2D2100F03AFA61420A2230
:10011000304600F04EFA00F0D1FC164900F02CFAFF
:1001200000F0CCFC04462868A0F51B7001F0CEF866
:100130000DA3D3E9002301F05DFA0B46022102462C
:100140000091204600F012FB00F0B8FC0A4900F0D4
:1001500026FA4FF4F57002B0BDE8704000F024BB01
:100160002146D4E7AFF30080CDCCCCCCCCCC28401A
:100170006C000020041B0A08061B0A0808B5024B85
:100180001B685B68019308BDB001060808B5024B07
:100190001B689B68019308BDB001060808B5024BB7
:1001A0001B68DB68019308BDB001060808B5024B67
:1001B0001B681B69019308BDB001060808B5024B16
:1001C0001B681B6B019308BDB001060808B5024B04
:1001D0001B685B68019308BD9C01060808B5024BCB
:1001E0001B685B69019308BD9C01060808B5024BBA
:1001F0001B685B6C019308BDD001060808B5024B73
:100200001B689B6C019308BDD001060808B5024B22
:100210001B689B69019308BDC401060808B5024B21
:100220001B685B6A019308BDC401060808B5024B50
:100230001B689B6A019308BDC401060808B5024B00
:100240001B68DB6A019308BDC401060808B5024BB0
:100250001B681B6B019308BDC401060808B5024B5F
:100260001B685B6B019308BDC401060808B5024B0F
:100270001B689B6B019308BDC401060808B5024BBF
:100280001B681B6C019308BDC401060808B5024B2E
:100290001B681B6E019308BDAC01060808B5024B34
:1002A0001B685B6E019308BDAC01060808B5024BE4
:1002B0001B689B6E019308BDAC01060808B5024B94
:1002C0001B68DB6E019308BDAC01060808B5024B44
:1002D0001B681B6F019308BDAC01060808B5024BF3
:1002E0001B685B6F019308BDAC01060808B5034BA2
:1002F0001B68D3F88030019308BD0000AC010608EC
:1003000008B5024B1B68DB69019308BDB401060800
:1003100008B5024B1B681B6A019308BDB4010608AF
:1003200008B5024B1B681B68019308BDD80106087D
:1003300008B5024B1B685B68019308BDD80106082D
:1003400008B5024B1B681B69019308BDD80106085C
:1003500008B5024B1B685B69019308BDD80106080C
:1003600008B5024B1B689B69019308BDD8010608BC
:1003700008B5024B1B68DB69019308BDD80106086C
:1003800008B5024B1B681B6A019308BDD80106081B
:1003900008B5024B1B689B6C019308BDC0010608A1
:1003A00008B5024B1B685B68019308BDA4010608F1
:1003B00008B5024B1B685B69019308BDA4010608E0
:1003C00008B5034B1B68D3F89030019308BD0000BB
:1003D000A401060808B5034B1B68D3F89C300193B1
:1003E00008BD0000A401060808B5024B1B685B6845
:1003F000019308BDC801060808B5024B1B689B683D
:10040000019308BDC801060808B5024B1B68DB68EC
:10041000019308BDC801060808B5024B1B681B699B
:10042000019308BDC801060808B5024B1B685B694B
:10043000019308BDC801060808B5024B1B689B69FB
:10044000019308BDC801060808B5024B1B68DB69AB
:10045000019308BDC801060808B5024B1B681B6A5A
:10046000019308BDC801060808B5024B1B681B6B49
:10047000019308BDC801060808B5024B1B685B6BF9
:10048000019308BDC801060808B5024B1B681B6C28
:10049000019308BDC801060808B5024B1B685B6CD8
:1004A000019308BDC801060808B5024B1B68DB6B49
:1004B000019308BDCC01060808B5024B1B681B68F8
:1004C000019308BDA001060808B5024B1B685B68D4
:1004D000019308BDA001060808B5024B1B685B6CC0
:1004E000019308BDA001060870B5002604460D461C
:1004F00040F8086FFFF77AFE28462570FFF700FFE7
:100500002046666070BD000002220020044B1A6085
:10051000044B054A1860988098719A60FFF740BFB5
:100520007C000020700000200000FFFFF8B50646A8
:100530000D4600248F18BD420CD0336830469B68AE
:1005400015F8011B9847031E01DB1C44F3E7002C40
:1005500008BF1C462046F8BD70B505460C46084647
:1005600049B101F055FA2B68024621462846BDE8FC
:100570007040DB68184770BD08B5FFF7EDFF08BD98
:1005800003689B68184738B50D210546FFF7F8FF4B
:100590000A2104462846FFF7F3FF204438BD38B54A
:1005A0000546FFF7D9FF04462846FFF7ECFF204435
:1005B00038BD0023012A98BF0A2230B58BB00C4603
:1005C0008DF8243009A92546B4FBF2F404FB12533C
:1005D000DBB2092B94BF30333733DBB2AA4201F8C8
:1005E000013DF0D9FFF7B8FF0BB030BD2DE9F74F53
:1005F00005461946104692461F469DF8306001F0A8
:1006000069F940B150492846FFF7A6FF0446204645
:1006100003B0BDE8F08F27F000444FF0FF325046A2
:1006200021464A4B01F056F948B94FF0FF32504687
:100630002146464B01F030F908B94549E3E74FF050
:10064000604250463946434B01F03AF908B14249FD
:10065000D9E74FF0604250463946404B01F012F95D
:100660000028F4D1002200235046394601F00AF94F
:10067000044630B12D212846FFF782FF044607F1DA
:1006800000474FF0000B00204FF000083449DFF81E
:10069000D8905FFA8BF39E4206D942464B4600F053
:1006A000A9FF0BF1010BF4E73B46524600F0C2FCF8
:1006B0008946804601F04CF9074600F0F7FD0246F6
:1006C0000B464046494600F0B3FC0A228046894664
:1006D00028463946FFF76DFF044426B128462149D4
:1006E000FFF73AFF04444FF0000ADFF87CB0013E08
:1006F000F6B2FF2E8BD052465B464046494600F08C
:100700004FFE8046894601F0FBF8071E19DA2D21BD
:100710002846FFF735FF034679420A22284601930F
:10072000FFF747FF019B034438461C4400F0CEFD11
:1007300002460B464046494600F07AFC8046894610
:10074000D5E739460023E8E7081B0A08FFFFEF7FDB
:100750000C1B0A08FFFFEF41101B0A08FFFFEFC147
:100760000000E03F141B0A08000024409DF8001020
:100770000091FFF73BBF002340681A461946FFF778
:1007800053BE0000014B024A1A60704780000020EF
:10079000161B0A08024B1A68024B1A60704700BF0A
:1007A00000000020840000200021FFF701BE0000AF
:1007B0000022014B9A60704788000020014B1860AE
:1007C000704700BF0400002008B5134B43B100F090
:1007D00075F903681B699847002801DDAFF30080B5
:1007E0000E4B43B100F01AFA03681B6998470028C2
:1007F00001DDAFF300800A4B0BB1AFF30080094B72
:1008000043B100F095F903681B699847002801DDA2
:10081000AFF3008008BD00BF000000000000000032
:10082000000000000000000008B5FFF7CDFFFFF753
:10083000D5FC014B186008BD140500200548064A88
:1008400008B5121A054901F0A9F8054B054A1A60C6
:1008500008BD00BF0040024004400240701C0A086E
:10086000004002401E1C279A002307B51A466FF06D
:1008700077010093FFF7AEFD03B05DF804FB0000C5
:1008800007B543880A2B08D0502B0BD1094B1B68A6
:100890004BB103B05DF804EB1847FFF7E5FF03B079
:1008A0005DF804FB00231A466FF077010093FFF711
:1008B00091FDF4E79C000020002110B51148FFF7DE
:1008C0000BFE114B1A68114B9A420CBF01220022F9
:1008D0000F4B1A7001D0FFF7B1FFFFF777FC04460A
:1008E00001F072F80B4B13B12046AFF300800021EA
:1008F0000848FFF7D9FDBDE8104000210648FFF782
:100900005FBD00BFBD070A08004002401E1C279AB9
:10091000980000200000000081080A08704710B508
:100920000446182100F07CFB204610BDF8B50E46A9
:10093000002400F10807051D17F8011D0A223046A2
:10094000FFF737FEAF42044401D12046F8BD002C2A
:10095000F2D02E213046FFF713FE0444ECE70000EE
:1009600010B50446044B1122002140F8043B01F06D
:1009700023F8204610BD00BF401B0A080346074A63
:1009800010B543F8042B01F1100251F8044B9142C9
:1009900043F8044BF9D10A781A7010BD401B0A08BD
:1009A000024AC0E90021042202757047401B0A0870
:1009B00010B59DF8084044EA0324042344EA0244A5
:1009C00044EA01644460037510BD000037B5044D6E
:1009D00005609DF818500095FFF7EAFF03B030BDA1
:1009E000401B0A08417470477047704708B50021E2
:1009F000007CFFF7B5FC40EAE07008BD08B50121B6
:100A0000007CFFF7ADFC40EAE07008BD08B5007C53
:100A1000FFF79EFC20EAE07008BD08B5007CFFF7F8
:100A20008FFC20EAE07008BD38B50446007C0D4616
:100A3000FFF78EFC002801DC607C28B12946207C71
:100A4000FFF796FC20EAE07038BD007CFFF798BC09
:100A500010B50446142100F0E3FA204610BD70479B
:100A600010B54FF47A73044608460021C4E9011317
:100A7000044B20742360012311466374FFF750FC7C
:100A8000204610BD541B0A080022007CFFF750BC12
:100A900010B504461422002100F08EFF054B2046BD
:100AA0006360054BE36040F20113238181232382BD
:100AB00010BD00BFD0000020D101002030B50E4D88
:100AC00087B001A8FFF7E4FF2978BFF35B8F11F02F
:100AD00001040ED12846FFF7E4FA50B1214601AADD
:100AE0000648FFF7BDFF2846FFF7E0FA044800F08C
:100AF0004FFF024807B030BDA0000020A800002032
:100B0000E9090A0810B504461422002100F054FF38
:100B1000054B20466360054BE36040F201132381DF
:100B20008123238210BD00BF520200205303002006
:100B300010B50E4C86B001A8FFF7E4FF2378BFF391
:100B40005B8FDB070ED42046FFF7ABFA50B10121D3
:100B500001AA0748FFF784FF2046FFF7A7FA0548D8
:100B600000F016FF024806B010BD00BFA400002030
:100B7000BC0000205F0A0A08704741747047704744
:100B800008B5007CFFF77AFB20EAE07008BD08B5E5
:100B9000007CFFF74BFB20EAE07008BD08B5007C45
:100BA000FFF754FB40EAE07008BD08B5007CFFF792
:100BB00045FB40EAE07008BD007CFFF74FBB70B515
:100BC000467C04460D462EB12946207CBDE8704087
:100BD000FFF724BB007CFFF751FB0028F4DC304614
:100BE00070BD10B50446142100F01AFA204610BD5D
:100BF0004FF0000C10B50446084611464FF47A72C7
:100C0000C4E901C2044A20742260012262741A46B7
:100C1000FFF7FCFA204610BD841B0A0838B50C4DBE
:100C20002978BFF35B8F11F001040FD12846FFF73D
:100C300038FA58B12146074B074A0848FFF7D8FF52
:100C40002846FFF733FA064800F0A2FE034838BDF5
:100C5000D40300205C040020D8030020E00400201E
:100C60007F0B0A087047F8B5064615460C468F18E4
:100C7000BC4206D0336830469B6814F8011B984785
:100C8000F6E72846F8BD0022007CFFF7FFBA0021F6
:100C9000007CFFF703BB0021007CFFF707BB0021AE
:100CA000007CFFF70BBB0021007CFFF70FBB10B5EA
:100CB0000446142100F0B4F9204610BD10B54FF4DD
:100CC0007A73044608460021C4E90113034B114618
:100CD00023602074FFF70AFB204610BDB41B0A08EE
:100CE000002240681146FFF797BBF0B5154689B062
:100CF00011220E460446002103A800F05DFE28469E
:100D000000F086FE002781B273682846009703AA88
:100D1000FFF73EFB30B139462046FFF741FE204643
:100D200009B0F0BD204603A9FFF728FEF7E700222F
:100D300040681146FFF790BB002240681146FFF75C
:100D40009BBB00224068FFF78FBB0022406881F008
:100D50000101FFF779BB002340681A461946FFF7E7
:100D60006BBB002240681146FFF746BB0022022100
:100D70004068FFF749BB002340681A46FFF734BBC1
:100D80000422024B5A60024A1A607047F4040020A1
:100D9000DC1B0A08002340681A46FFF725BB002227
:100DA00002214068FFF730BB002240681146FFF780
:100DB00023BB002240681146FFF72EBB002340688A
:100DC0001A461946FFF730BB002340681A461946F9
:100DD000FFF732BB00214068FFF756BB0021406897
:100DE000FFF75ABB0022406881F00101FFF72CBBDE
:100DF00000224068FFF738BB002240681146FFF729
:100E00003BBB002240681146FFF726BB70B5154674
:100E10008EB0044608A8FFF7A3FD1122002103A805
:100E200000F0CAFD0026284600F0F2FD0A4B0096AD
:100E300081B25B68284603AAFFF7AAFA30B13146AF
:100E40002046FFF7ADFD20460EB070BD204603A939
:100E5000FFF794FDF7E700BFF4040020024B034ABC
:100E60001A6000225A607047FC040020181C0A080F
:100E7000024B986808B1FFF7C1B970470805002018
:100E8000172870B5044601D9002070BDA0F10D03EC
:100E9000022B0BD9012824D800F09EF80021007CF9
:100EA000FFF71CFA80F00100C0B2EEE7124E317875
:100EB000BFF35B8F11F001050DD13046FFF7F1F85C
:100EC00048B129460D48FFF70FFB3046FFF7EEF813
:100ED0000B4800F05DFD094B1878FFF719FA002860
:100EE000D2D1123C012C05D8FFF798FE007CFFF709
:100EF000BDF9D7E70120C8E7040500200805002058
:100F0000710E0A08172838B504460D460AD8FF297D
:100F100008D0FFF7B5FF28B129462046BDE8384084
:100F2000FFF734B938BD38B504460D46FFF736F93A
:100F3000FF2810D0062804D84D2323FA00F0C30759
:100F400009D42046FFF79CFF28B129462046BDE87A
:100F50003840FFF72BB938BD10B5044609289CBFAF
:100F60000A34A4B22046FFF78BFF50B1032120467C
:100F7000FFF704F9032804D12046BDE81040FFF72D
:100F80001DB9002010BD0000002307B51A46194600
:100F900000930348FFF71AFD03B05DF804FB00BFA0
:100FA0001805002070470000002370B520254380FD
:100FB0001423084E044603803146856005612846A7
:100FC00000F030F831466060284600F02BF8E06011
:100FD000204670BD4C1C0A0830B50E4D87B02978EC
:100FE000BFF35B8F11F0010411D12846FFF759F8C8
:100FF00068B101A8FFF7D8FF214601AA0648FFF70C
:101000005DFE2846FFF752F8044800F0C1FC024894
:1010100007B030BD3005002034050020A50F0A08B8
:10102000FFF73DB8FFF739B881F0004102E000BF9B
:1010300083F0004330B54FEA41044FEA430594EA98
:10104000050F08BF90EA020F1FBF54EA000C55EAD3
:10105000020C7FEA645C7FEA655C00F0E2804FEAA4
:101060005454D4EB5555B8BF6D420CDD2C4480EA86
:10107000020281EA030382EA000083EA010180EAB6
:10108000020281EA0303362D88BF30BD11F0004F04
:101090004FEA01314FF4801C4CEA113102D040423A
:1010A00061EB410113F0004F4FEA03334CEA133375
:1010B00002D0524263EB430394EA050F00F0A7808D
:1010C000A4F10104D5F1200E0DDB02FA0EFC22FA88
:1010D00005F2801841F1000103FA0EF2801843FA7C
:1010E00005F359410EE0A5F120050EF1200E012A6D
:1010F00003FA0EFC28BF4CF0020C43FA05F3C018AB
:1011000051EBE37101F0004507D54FF0000EDCF123
:10111000000C7EEB00006EEB0101B1F5801F1BD3CC
:10112000B1F5001F0CD349085FEA30004FEA3C0CD0
:1011300004F101044FEA445212F5800F80F09A80C6
:10114000BCF1004F08BF5FEA500C50F1000041EBCA
:10115000045141EA050130BD5FEA4C0C404141EBCE
:101160000101013C28BFB1F5801FE9D291F0000FC9
:1011700004BF01460020B1FA81F308BF2033A3F178
:101180000B03B3F120020CDA0C3208DD02F1140C6F
:10119000C2F10C0201FA0CF021FA02F10CE002F1AA
:1011A0001402D8BFC2F1200C01FA02F120FA0CFCA3
:1011B000DCBF41EA0C019040E41AA2BF01EB0451EC
:1011C000294330BD6FEA04041F3C1CDA0C340EDCEA
:1011D00004F11404C4F1200220FA04F001FA02F32D
:1011E00040EA030021FA04F345EA030130BDC4F1EB
:1011F0000C04C4F1200220FA02F001FA04F340EAE0
:101200000300294630BD21FA04F0294630BD94F090
:10121000000F83F4801306BF81F480110134013D77
:101220004EE77FEA645C18BF7FEA655C29D094EAE8
:10123000050F08BF90EA020F05D054EA000C04BF66
:101240001946104630BD91EA030F1EBF0021002051
:1012500030BD5FEA545C05D14000494128BF41F0F0
:10126000004130BD14F580043CBF01F5801130BD54
:1012700001F0004545F0FE4141F470014FF00000DF
:1012800030BD7FEA645C1ABF194610467FEA655C90
:101290001CBF0B46024650EA013406BF52EA033532
:1012A00091EA030F41F4002130BD00BF90F0000F20
:1012B00004BF0021704730B54FF4806404F132045C
:1012C0004FF000054FF0000150E700BF90F0000F15
:1012D00004BF0021704730B54FF4806404F132043C
:1012E00010F0004548BF40424FF000013EE700BF0C
:1012F00042004FEAE2014FEA31014FEA02701FBF9C
:1013000012F07F4393F07F4F81F06051704732F0CD
:101310007F4208BF704793F07F4F04BF41F4002124
:10132000704730B54FF4607401F0004521F0004182
:101330001CE700BF50EA010208BF704730B54FF00C
:1013400000050AE050EA010208BF704730B511F00D
:10135000004502D5404261EB41014FF4806404F145
:1013600032045FEA915C3FF4D8AE4FF003025FEACB
:10137000DC0C18BF03325FEADC0C18BF033202EB4F
:10138000DC02C2F1200300FA03FC20FA02F001FAA9
:1013900003FE40EA0E0021FA02F11444BDE600BF4C
:1013A00070B54FF0FF0C4CF4E06C1CEA11541DBFFB
:1013B0001CEA135594EA0C0F95EA0C0F00F0DEF8C6
:1013C0002C4481EA030621EA4C5123EA4C5350EAAB
:1013D000013518BF52EA033541F4801143F48013FC
:1013E00038D0A0FB02CE4FF00005E1FB02E506F08D
:1013F0000042E0FB03E54FF00006E1FB03569CF0E2
:10140000000F18BF4EF0010EA4F1FF04B6F5007FE7
:1014100064F5407404D25FEA4E0E6D4146EB060659
:1014200042EAC62141EA55514FEAC52040EA5E50E2
:101430004FEACE2EB4F1FD0C88BFBCF5E06F1ED88C
:10144000BEF1004F08BF5FEA500E50F1000041EBC3
:10145000045170BD06F0004646EA010140EA020070
:1014600081EA0301B4EB5C04C2BFD4EB0C0541EA92
:10147000045170BD41F480114FF0000E013C00F3A7
:10148000AB8014F1360FDEBF002001F0004170BDCB
:10149000C4F10004203C35DA0C341BDC04F11404E4
:1014A000C4F1200500FA05F320FA04F001FA05F270
:1014B00040EA020001F0004221F0004110EBD3703D
:1014C00021FA04F642EB06015EEA430E08BF20EA69
:1014D000D37070BDC4F10C04C4F1200500FA04F30C
:1014E00020FA05F001FA04F240EA020001F000419E
:1014F00010EBD37041F100015EEA430E08BF20EA11
:10150000D37070BDC4F1200500FA05F24EEA020E58
:1015100020FA04F301FA05F243EA020321FA04F087
:1015200001F0004121FA04F220EA020000EBD3703E
:101530005EEA430E08BF20EAD37070BD94F0000F3E
:101540000FD101F00046400041EB010111F4801F72
:1015500008BF013CF7D041EA060195F0000F18BF23
:10156000704703F00046520043EB030313F4801F5F
:1015700008BF013DF7D043EA0603704794EA0C0F19
:101580000CEA135518BF95EA0C0F0CD050EA41062F
:1015900018BF52EA4306D1D181EA030101F00041AC
:1015A0004FF0000070BD50EA410606BF10461946D4
:1015B00052EA430619D094EA0C0F02D150EA0136E0
:1015C00013D195EA0C0F05D152EA03361CBF104621
:1015D00019460AD181EA030101F0004141F0FE41C0
:1015E00041F470014FF0000070BD41F0FE4141F444
:1015F000780170BD70B54FF0FF0C4CF4E06C1CEA44
:1016000011541DBF1CEA135594EA0C0F95EA0C0FF8
:1016100000F0A7F8A4EB050481EA030E52EA0335B3
:101620004FEA013100F088804FEA03334FF08055D4
:1016300045EA131343EA12634FEA022245EA111501
:1016400045EA10654FEA00260EF000419D4208BFB2
:10165000964244F1FD0404F5407402D25B084FEA5F
:101660003202B61A65EB03055B084FEA32024FF40B
:1016700080104FF4002CB6EB020E75EB030E22BF68
:10168000B61A754640EA0C005B084FEA3202B6EB28
:10169000020E75EB030E22BFB61A754640EA5C00D7
:1016A0005B084FEA3202B6EB020E75EB030E22BF67
:1016B000B61A754640EA9C005B084FEA3202B6EB68
:1016C000020E75EB030E22BFB61A754640EADC0027
:1016D00055EA060E18D04FEA051545EA16754FEA89
:1016E00006164FEAC30343EA52734FEAC2025FEAA7
:1016F0001C1CC0D111F4801F0BD141EA00014FF036
:1017000000004FF0004CB6E711F4801F04BF014306
:101710000020B4F1FD0C88BFBCF5E06F3FF6AFAE22
:10172000B5EB030C04BFB6EB020C5FEA500C50F1B2
:10173000000041EB045170BD0EF0004E4EEA113135
:1017400014EB5C04C2BFD4EB0C0541EA045170BD3C
:1017500041F480114FF0000E013C90E645EA060E80
:101760008DE60CEA135594EA0C0F08BF95EA0C0FAE
:101770003FF43BAF94EA0C0F0AD150EA01347FF4F6
:1017800034AF95EA0C0F7FF425AF104619462CE7CD
:1017900095EA0C0F06D152EA03353FF4FDAE104630
:1017A000194622E750EA410618BF52EA43067FF481
:1017B000C5AE50EA41047FF40DAF52EA43057FF411
:1017C000EBAE12E74FF0FF3C06E000BF4FF0010C1C
:1017D00002E000BF4FF0010C4DF804CD4FEA410C80
:1017E0007FEA6C5C4FEA430C18BF7FEA6C5C1BD04D
:1017F00001B050EA410C0CBF52EA430C91EA030FCE
:1018000002BF90EA020F0020704710F1000F91EA2A
:10181000030F58BF994208BF90422CBFD8176FEAF8
:10182000E37040F0010070474FEA410C7FEA6C5CC6
:1018300002D150EA013C07D14FEA430C7FEA6C5CCD
:10184000D6D152EA033CD3D05DF8040B704700BFF9
:101850008446104662468C461946634600E000BF47
:1018600001B5FFF7B7FF002848BF10F1000F01BD19
:101870004DF808EDFFF7F4FF0CBF012000205DF8E4
:1018800008FB00BF4DF808EDFFF7EAFF34BF012069
:1018900000205DF808FB00BF4DF808EDFFF7E0FF02
:1018A00094BF012000205DF808FB00BF4DF808ED53
:1018B000FFF7CEFF94BF012000205DF808FB00BFBA
:1018C0004DF808EDFFF7C4FF34BF012000205DF89C
:1018D00008FB00BF4FEA410C7FEA6C5C02D150EA82
:1018E000013C0AD14FEA430C7FEA6C5C02D152EA18
:1018F000033C02D14FF0000070474FF001007047E9
:101900004FEA410212F5001215D211D56FF4787327
:10191000B3EB625212D94FEAC12343F0004343EACA
:10192000505311F0004F23FA02F018BF40427047A5
:101930004FF00000704750EA013005D111F000402F
:1019400008BF6FF0004070474FF00000704700BFC5
:101950004A0011D212F5001211D20DD56FF478732E
:10196000B3EB62520ED44FEAC12343F0004343EA83
:10197000505323FA02F070474FF00000704750EACE
:10198000013002D14FF0FF3070474FF00000704738
:10199000002301461A46184600F042B80A44914214
:1019A00000F1FF3300D1704710B511F8014B91429F
:1019B00003F8014FF9D110BD03460244934200D110
:1019C000704703F8011BF9E738B50D4B04461D6855
:1019D000AB6B7BB91820FEF76FFD0A4A0A4BA86370
:1019E000C0E90023094B012283600B23838100237C
:1019F000C0E904230022AB6B1C615A6138BD00BFF3
:101A0000040000200E33CDAB34126DE6ECDE050091
:101A1000034613F8012B002AFBD1181A013870472E
:101A20002DE9F843DFF8BC800646D8F800001F46D1
:101A30000D46914600F058F8264B1C6834B9264CE8
:101A40001C60264B13B11B68C4F8883063681F2BD9
:101A500007DDD8F8000000F049F84FF0FF30BDE88E
:101A6000F8835EB3D4F8880088B91D4B23B9D8F841
:101A7000000000F03AF8F0E74FF48470FEF71CFD28
:101A80000028F4D00023C0E94033C4F888000122C4
:101A90006368022E40F8239002FA03F200EB830100
:101AA000D0F8003143EA0203C0F80031C1F8807079
:101AB00002BFD0F804311A43C0F804216368D8F893
:101AC00000005A1C0233626044F8235000F00EF804
:101AD0000020C4E7D40500204805002000000000D5
:101AE000B9040A086800002070477047704700007A
:101AF00021000A0861000A0889000A088D000A0806
:101B0000000000002C003B006E616E00696E6600F4
:101B10006F7666002E006170700025592D256D2DA1
:101B200025645425483A254D3A2553257A0061739A
:101B30006374696D65000000000000000000000093
:101B40002D090A081D090A081F090A0800000000DB
:101B500000000000EB090A08510A0A08290A0A08CD
:101B60002D050A081B0A0A08ED090A08FD090A08DA
:101B70004B0A0A080D0A0A08E5090A0800000000D5
:101B800000000000790B0A08E30B0A08BF0B0A08E3
:101B90002D050A088F0B0A08AB0B0A089D0B0A08D3
:101BA000B90B0A087B0B0A08810B0A080000000029
:101BB00000000000650C0A08AF0C0A08870C0A0830
:101BC000670C0A088F0C0A08970C0A089F0C0A0871
:101BD000A70C0A080000000000000000770D0A08AA
:101BE0006D0D0A08630D0A08E10C0A0877070A0858
:101BF000570D0A08D50D0A08DD0D0A084B0D0A0815
:101C0000430D0A08390D0A082F0D0A08EB0C0A08C3
:101C10000000000000000000950D0A089F0D0A0852
:101C2000A90D0A08B30D0A08BD0D0A08C90D0A0856
:101C3000D50D0A08DD0D0A08E50D0A08F10D0A08A0
:101C4000F90D0A08030E0A080D0E0A08000000002C
:101C500009050A0885070A0895070A08B1070A084E
:101C6000810D0A085D0E0A08890F0A0800000000AD
:041C70000000000070
:101C74002E1B0A08080000200000000000000000DD
:101C84000000000000000000000000000000000050
:101C94000000000000000000000000000000000040
:101CA4000000000000000000000000000000000030
:101CB4000000000000000000000000000000000020
:101CC4000000000000000000000000000000000010
:0C1CD4000000000000000000D905002006
:101CE000FFFFFFFF00000102030405060708090AC1
:101CF0000B0C0D0E0F101112131415161718191ABC
:081D00001B1C1D1E1F20280002
:041D080078563412C3
:04000005080A0020C5
:00000001FF
