:02000004080AE8
:1000000000000A08FC0F0A080000060006000501AF
:080010000402FD0800000000DD
:04001800F40D0A08D1
:10001C0009480A4908B5884205D0094A824202D0EB
:10002C00121A00F02DFE0748074A0021121A00F0A0
:10003C0035FE064808BD00BF00000020640F0A080A
:10004C007000002070000020B9050020B9050020C8
:10005C0070B500F03BFB0025054E064CA41BA40814
:10006C00A54200D170BD56F8043B98470135F7E71F
:10007C003C0F0A08580F0A0800F046B808B500F003
:10008C0057F8BDE8084000F0D9BA00F06FB9007815
:10009C00B0FA80F0400970470123037070470000EC
:1000AC0010B51449044600F002FA20B10022124B9C
:1000BC0001201A7007E02046104900F0F8F918B139
:1000CC0001200D4B187010BD20460D4900F0EFF9C2
:1000DC0010B10222084BEBE700F020FC094900F0BC
:1000EC001EFA00F01BFC216800F02CFA4FF0FF30D8
:1000FC00E9E700BF080E0A08000000200D0E0A08F0
:10010C00110E0A08160E0A0808B50649064A0748D1
:10011C0000F024FB00F002FCBDE808404FF416513F
:10012C0000F0E2BBAD000A08250E0A083D070A08DC
:10013C007047000008B5024B1B685B68019308BD53
:10014C009C01060808B5024B1B685B69019308BD4E
:10015C009C01060808B5024B1B689B69019308BDFE
:10016C00C401060808B5024B1B685B6A019308BD05
:10017C00C401060808B5024B1B689B6A019308BDB5
:10018C00C401060808B5024B1B68DB6A019308BD65
:10019C00C401060808B5024B1B681B6B019308BD14
:1001AC00C401060808B5024B1B685B6B019308BDC4
:1001BC00C401060808B5024B1B681B6C019308BDF3
:1001CC00C401060808B5024B1B681B68019308BDE7
:1001DC00D801060808B5024B1B685B68019308BD83
:1001EC00D801060808B5024B1B681B69019308BDB2
:1001FC00D801060808B5024B1B685B69019308BD62
:10020C00D801060808B5024B1B689B69019308BD11
:10021C00D801060808B5024B1B68DB69019308BDC1
:10022C00D801060808B5024B1B681B6A019308BD70
:10023C00D801060808B5024B1B689B6C019308BDDE
:10024C00C001060808B5024B1B685B68019308BD2A
:10025C00A401060808B5034B1B68D3F89030019332
:10026C0008BD0000A401060808B5034B1B68D3F8B1
:10027C009C30019308BD0000A401060808B5024B90
:10028C001B685B68019308BDC801060808B5024BE2
:10029C001B689B68019308BDC801060808B5024B92
:1002AC001B68DB68019308BDC801060808B5024B42
:1002BC001B681B69019308BDC801060808B5024BF1
:1002CC001B685B69019308BDC801060808B5024BA1
:1002DC001B689B69019308BDC801060808B5024B51
:1002EC001B68DB69019308BDC801060808B5024B01
:1002FC001B681B6A019308BDC801060808B5024BB0
:10030C001B681B6B019308BDC801060808B5024B9E
:10031C001B685B6B019308BDC801060808B5024B4E
:10032C001B681B6C019308BDC801060808B5024B7D
:10033C001B685B6C019308BDC801060808B5024B2D
:10034C001B685B68019308BDCC01060808B5024B1D
:10035C001B68DB6B019308BDCC01060808B5024B8A
:10036C001B681B68019308BDA001060808B5024B69
:10037C001B685B68019308BDA001060808B5024B19
:10038C001B689B68019308BDA001060808B5024BC9
:10039C001B685B6C019308BDA001060802220020BB
:1003AC00044B1A60044B054A1860988098719A6047
:1003BC00FFF748BF7C000020700000200000FFFF0A
:1003CC0010B504460068FFF7D1FF204610BD10B5EC
:1003DC000446006808B1FFF7C9FF0023C4E90133E4
:1003EC00236010BD38B504460D4600680131FFF797
:1003FC00C5FF10B1C4E90005012038BD10B5036874
:10040C00044623B143688B4201D3012010BD204622
:10041C00FFF7E8FF0028F9D0A368002BF5D122687C
:10042C001370F2E770B50E46114604461546FFF7F9
:10043C00E5FF20B92046FFF7CAFF204670BD2A46CB
:10044C0031462068A56000F01BFC00212268A368DF
:10045C00D154F2E738B5002304460D46C0E9003309
:10046C008360037339B1084600F04EFC29460246FE
:10047C002046FFF7D7FF204638BD884210B50B4603
:10048C00044604D0096821B19A68FFF7CBFF2046D7
:10049C0010BDFFF79CFFFAE7002310B50446C0E936
:1004AC00003383600373FFF7E8FF204610BD08B5E7
:1004BC0082683AB921B10878B0FA80F0400900E0BE
:1004CC00012008BD006809B90078F5E700F012FCBE
:1004DC00F2E7F8B506460D4600248F18BD420CD045
:1004EC00336830469B6815F8011B9847031E01DBE7
:1004FC001C44F3E7002C08BF1C462046F8BD70B521
:10050C0005460C46084649B100F0FEFB2B68024636
:10051C0021462846BDE87040DB68184770BD08B519
:10052C00FFF7EDFF08BD03689B68184738B50D2130
:10053C000546FFF7F8FF0A2104462846FFF7F3FFAC
:10054C00204438BD38B50546FFF7D9FF0446284688
:10055C00FFF7ECFF204438BD0023012A98BF0A2284
:10056C0030B58BB00C468DF8243009A92546B4FB68
:10057C00F2F404FB1253DBB2092B94BF3033373344
:10058C00DBB2AA4201F8013DF0D9FFF7B8FF0BB07E
:10059C0030BD002340681A461946FFF78FBE000095
:1005AC00014B024A1A607047800000202D0E0A0889
:1005BC00024B1A68024B1A60704700BF04000020FF
:1005CC00840000200022014B9A60704788000020B4
:1005DC00014B1860704700BF0800002008B5134B92
:1005EC0043B100F09BF903681B699847002801DDB3
:1005FC00AFF300800E4B43B100F040FA03681B6967
:10060C009847002801DDAFF300800A4B0BB1AFF324
:10061C000080094B43B100F0BBF903681B69984794
:10062C00002801DDAFF3008008BD00BF0000000012
:10063C0000000000000000000000000008B5FFF7FB
:10064C00CDFFFFF77FFD014B186008BD04050020AE
:10065C000548064A08B5121A054900F011FB054B6E
:10066C00054A1A6008BD00BF004002400440024029
:10067C00600F0A08004002401E1C279A002307B591
:10068C001A466FF077010093FFF7EEFD03B05DF8AB
:10069C0004FB000007B543880A2B08D0502B0BD164
:1006AC00094B1B684BB103B05DF804EB1847FFF71F
:1006BC00E5FF03B05DF804FB00231A466FF07701E9
:1006CC000093FFF7D1FDF4E79C000020002110B54A
:1006DC001148FFF75BFE114B1A68114B9A420CBF85
:1006EC00012200220F4B1A7001D0FFF7B1FFFFF768
:1006FC0021FD044600F0DAFA0B4B13B12046AFF3A0
:10070C00008000210848FFF721FEBDE810400021C1
:10071C000648FFF79FBD00BFDD050A0800400240F8
:10072C001E1C279A9800002000000000A1060A0851
:10073C0010B588B004466846FFF78CFE694604A8DD
:10074C00FFF7AAFE04A8A047044604A8FFF738FE4A
:10075C006846FFF735FE204608B010BD1FB50023D4
:10076C001024CDE90201019269461A461846ADF8EB
:10077C000230ADF80040FFF7E1FD04B010BD70474A
:10078C0010B50446182100F073FA204610BDF8B5D8
:10079C000E46002400F10807051D17F8011D0A225A
:1007AC003046FFF7D9FEAF42044401D12046F8BDD4
:1007BC00002CF2D02E213046FFF7B5FE0444ECE7B6
:1007CC0010B50446044B1122002140F8043B00F004
:1007DC0065FA204610BD00BF580E0A080346074AAA
:1007EC0010B543F8042B01F1100251F8044B91425F
:1007FC0043F8044BF9D10A781A7010BD580E0A0848
:10080C00024AC0E90021042202757047580E0A08FA
:10081C0010B59DF8084044EA0324042344EA02443A
:10082C0044EA01644460037510BD000037B5044D03
:10083C0005609DF818500095FFF7EAFF03B030BD36
:10084C00580E0A08417470477047704708B500216C
:10085C00007CFFF7D7FC40EAE07008BD08B5012129
:10086C00007CFFF7CFFC40EAE07008BD08B5007CC7
:10087C00FFF7C0FC20EAE07008BD08B5007CFFF76C
:10088C00B1FC20EAE07008BD38B50446007C0D468A
:10089C00FFF7B0FC002801DC607C28B12946207CE5
:1008AC00FFF7B8FC20EAE07038BD007CFFF7BABC5B
:1008BC0010B50446142100F0DBF9204610BD70473A
:1008CC0010B54FF47A73044608460021C4E90113AD
:1008DC00044B20742360012311466374FFF772FCF0
:1008EC00204610BD6C0E0A080022007CFFF772BC7B
:1008FC0010B504461422002100F0D0F9054B204617
:10090C006360054BE36040F2011323818123238252
:10091C0010BD00BFD0000020D101002030B50E4D1D
:10092C0087B001A8FFF7E4FF2978BFF35B8F11F0C4
:10093C0001040ED12846FFF7AAFB50B1214601AAAB
:10094C000648FFF7BDFF2846FFF7A6FB044800F05A
:10095C0091F9024807B030BDA0000020A80000208B
:10096C0055080A0810B504461422002100F096F927
:10097C00054B20466360054BE36040F20113238175
:10098C008123238210BD00BF52020020530300209C
:10099C0010B50E4C86B001A8FFF7E4FF2378BFF327
:1009AC005B8FDB070ED42046FFF771FB50B10121A2
:1009BC0001AA0748FFF784FF2046FFF76DFB0548A7
:1009CC0000F058F9024806B010BD00BFA40000208A
:1009DC00BC000020CB080A08704741747047704770
:1009EC0008B5007CFFF7E6FB20EAE07008BD08B50F
:1009FC00007CFFF7BFFB20EAE07008BD08B5007C67
:100A0C00FFF7C8FB40EAE07008BD08B5007CFFF7B3
:100A1C00B9FB40EAE07008BD007CFFF7C3BB70B5C2
:100A2C00467C04460D462EB12946207CBDE870401C
:100A3C00FFF798BB007CFFF7BDFB0028F4DC3046C9
:100A4C0070BD10B50446142100F012F9204610BDFB
:100A5C004FF0000C10B50446084611464FF47A725C
:100A6C00C4E901C2044A20742260012262741A464D
:100A7C00FFF770FB204610BD9C0E0A0838B50C4DD4
:100A8C002978BFF35B8F11F001040FD12846FFF7D3
:100A9C00FEFA58B12146074B074A0848FFF7D8FF22
:100AAC002846FFF7F9FA064800F0E4F8034838BD89
:100ABC00D40300205C040020D8030020E0040020B4
:100ACC00EB090A08002240681146FFF7EFBBF0B5AE
:100ADC00154689B011220E460446002103A800F0E9
:100AEC00DDF8284600F010F9002781B2736828461B
:100AFC00009703AAFFF79EFB30B139462046FFF75B
:100B0C007FFE204609B0F0BD204603A9FFF766FE24
:100B1C00F7E7002240681146FFF7E8BB0022406867
:100B2C001146FFF7F3BB00224068FFF7E7BB00223A
:100B3C00406881F00101FFF7D1BB002340681A46E1
:100B4C001946FFF7C3BB002240681146FFF79EBB56
:100B5C00002202214068FFF7A1BB002340681A461F
:100B6C00FFF78CBB0422024B5A60024A1A60704792
:100B7C00F4040020CC0E0A08002340681A46FFF744
:100B8C007DBB002202214068FFF788BB0022406831
:100B9C001146FFF77BBB002240681146FFF786BB6E
:100BAC00002340681A461946FFF788BB00234068AB
:100BBC001A461946FFF78ABB00214068FFF7AEBB07
:100BCC0000214068FFF7B2BB0022406881F00101B0
:100BDC00FFF784BB00224068FFF790BB00224068FF
:100BEC001146FFF793BB002240681146FFF77EBB0E
:100BFC0070B515468EB0044608A8FFF7E1FD11222A
:100C0C00002103A800F04AF80026284600F07CF8E2
:100C1C000A4B009681B25B68284603AAFFF70AFBD1
:100C2C0030B131462046FFF7EBFD20460EB070BDCB
:100C3C00204603A9FFF7D2FDF7E700BFF40400201C
:100C4C00024B034A1A6000225A607047FC040020D1
:100C5C00080F0A08002307B51A46194600930348E3
:100C6C00FFF7E4FD03B05DF804FB00BF08050020AE
:100C7C00FFF70BBA002301461A46184600F04CB891
:100C8C000A44914200F1FF3300D1704710B511F8BE
:100C9C00014B914203F8014FF9D110BD03460244B8
:100CAC00934200D1704703F8011BF9E738B50D4B9F
:100CBC0004461D68AB6B7BB91820FFF74FFB0A4A43
:100CCC000A4BA863C0E90023094B012283600B2364
:100CDC0083810023C0E904230022AB6B1C615A61A1
:100CEC0038BD00BF080000200E33CDAB34126DE6CA
:100CFC00ECDE050010F8012B11F8013B012A28BF8E
:100D0C009A42F7D0D01A7047034613F8012B002AE9
:100D1C00FBD1181A013870472DE9F843DFF8BC8075
:100D2C000646D8F800001F460D46914600F058F8CC
:100D3C00264B1C6834B9264C1C60264B13B11B681F
:100D4C00C4F8883063681F2B07DDD8F8000000F06A
:100D5C0049F84FF0FF30BDE8F8835EB3D4F8880053
:100D6C0088B91D4B23B9D8F8000000F03AF8F0E729
:100D7C004FF48470FFF7F2FA0028F4D00023C0E996
:100D8C004033C4F8880001226368022E40F8239097
:100D9C0002FA03F200EB8301D0F8003143EA0203BC
:100DAC00C0F80031C1F8807002BFD0F804311A438A
:100DBC00C0F804216368D8F800005A1C0233626042
:100DCC0044F8235000F00EF80020C4E7AC050020D6
:100DDC00200500200000000069030A086C000020B8
:100DEC0070477047704700001D000A085D000A0834
:100DFC0085000A0889000A0800000000436F6F6C28
:100E0C00004F6666004865617400496E76616C69D6
:100E1C0064204D6F64653A20007365744D6F646592
:100E2C00006170700025592D256D2D2564542548C1
:100E3C003A254D3A2553257A0061736374696D65C3
:100E4C000000000000000000000000009B070A08E2
:100E5C008B070A088D070A0800000000000000003C
:100E6C0057080A08BD080A0895080A08DF040A088A
:100E7C0087080A0859080A0869080A08B7080A08FE
:100E8C0079080A0851080A08000000000000000058
:100E9C00E5090A084F0A0A082B0A0A08DF040A089F
:100EAC00FB090A08170A0A08090A0A08250A0A0887
:100EBC00E7090A08ED090A0800000000000000001C
:100ECC00670B0A085D0B0A08530B0A08D10A0A08BB
:100EDC009F050A08470B0A08C50B0A08CD0B0A0820
:100EEC003B0B0A08330B0A08290B0A081F0B0A08CC
:100EFC00DB0A0A080000000000000000850B0A084D
:100F0C008F0B0A08990B0A08A30B0A08AD0B0A08E9
:100F1C00B90B0A08C50B0A08CD0B0A08D50B0A0831
:100F2C00E10B0A08E90B0A08F30B0A08FD0B0A0887
:100F3C00A9030A08AD050A08BD050A08D1050A0867
:100F4C00710B0A084D0C0A08610C0A08000000001D
:040F5C000000000091
:040F6000000000008D
:100F640001000000450E0A080C00002000000000EB
:100F7400000000000000000000000000000000006D
:100F8400000000000000000000000000000000005D
:100F9400000000000000000000000000000000004D
:100FA400000000000000000000000000000000003D
:100FB400000000000000000000000000000000002D
:100FC400000000000000000000000000B105002047
:100FD400FFFFFFFF00000102030405060708090ADA
:100FE4000B0C0D0E0F101112131415161718191AD5
:080FF4001B1C1D1E1F2028001C
:040FFC0078563412DD
:04000005080A001CC9
:00000001FF
