:02000004080AE8
:1000000000000A08B0120A080000060006000501F8
:080010000402FD0800000000DD
:040018008C100A0836
:10001C0009480A4908B5884205D0094A824202D0EB
:10002C00121A00F083FF0748074A0021121A00F049
:10003C008BFF064808BD00BF0000002014120A0800
:10004C00740000207400002001060020010600202E
:10005C0070B500F0B1FB0025054E064CA41BA4089E
:10006C00A54200D170BD56F8043B98470135F7E71F
:10007C00F0110A080C120A0800F014B808B500F0C8
:10008C0047F8BDE8084000F04FBB00F063BA00F041
:10009C0069BA0078B0FA80F0400970470123037008
:1000AC007047000008B5144B0121188800F0AAFE17
:1000BC00124B0321188800F0A5FE00F07FFC4FF4D2
:1000CC00165100F061FC00F0DFF80D4B00F5FA70F2
:1000DC00186000F0D9F80B4B00F57A70186000F03E
:1000EC00D3F8094B00F5FA60186000F0CDF8074B17
:1000FC0000F57A70186008BD040000200000002094
:10010C0084000020880000208C000020800000204B
:10011C002DE9F04100F0B8F83D4B0546188800F089
:10012C009BFE012804463B4F3B4E0FD1D7F8008075
:10013C00B8F1000F0AD100F041FC384900F079FA0F
:10014C0033680133022BC8BF434633603C60344FE5
:10015C003B68AB421ED200F031FC002C80462EDAFC
:10016C002D2100F057FA61420A22404600F06BFA4A
:10017C0000F024FC34688046002C22DA2D2100F09B
:10018C0049FA61420A22404600F05DFA3B6803F5E9
:10019C007A733B603368B3B9224C2368AB420CD200
:1001AC00214B197881F001011970204B188800F04F
:1001BC003AFE236803F5FA732360BDE8F08121460B
:1001CC00D2E72146DEE7012B10D1194C2368AB4254
:1001DC00F3D2154B197881F001011970134B188863
:1001EC0000F021FE236803F57A73E5E7114C2368D0
:1001FC00AB42E2D20C4B197881F0010119700B4B18
:10020C00188800F010FE236803F5FA63D4E700BFEA
:10021C00000000207C00002074000020A0100A08C0
:10022C0080000020840000207800002004000020C2
:10023C00880000208C00002008B5024B1B689B68CE
:10024C00019308BDB001060808B5024B1B68DB68BA
:10025C00019308BDB001060808B5024B1B681B6969
:10026C00019308BDB001060808B5024B1B685B6919
:10027C00019308BDB001060808B5024B1B685B680A
:10028C00019308BD9C01060808B5024B1B685B690D
:10029C00019308BD9C01060808B5024B1B685B6CFA
:1002AC00019308BDD001060808B5024B1B689B6C76
:1002BC00019308BDD001060808B5024B1B689B6969
:1002CC00019308BDC401060808B5024B1B685B6AA4
:1002DC00019308BDC401060808B5024B1B689B6A54
:1002EC00019308BDC401060808B5024B1B68DB6A04
:1002FC00019308BDC401060808B5024B1B681B6BB3
:10030C00019308BDC401060808B5024B1B685B6B62
:10031C00019308BDC401060808B5024B1B689B6B12
:10032C00019308BDC401060808B5024B1B681B6C81
:10033C00019308BDC401060808B5024B1B681B6E6F
:10034C00019308BDAC01060808B5024B1B685B6E37
:10035C00019308BDAC01060808B5024B1B689B6EE7
:10036C00019308BDAC01060808B5024B1B68DB6E97
:10037C00019308BDAC01060808B5024B1B681B6F46
:10038C00019308BDAC01060808B5024B1B685B6FF6
:10039C00019308BDAC01060808B5034B1B68D3F8E4
:1003AC008030019308BD0000AC01060808B5024B73
:1003BC001B68DB69019308BDB401060808B5024B44
:1003CC001B681B6A019308BDB401060808B5024BF3
:1003DC001B681B68019308BDD801060808B5024BC1
:1003EC001B685B68019308BDD801060808B5024B71
:1003FC001B681B69019308BDD801060808B5024BA0
:10040C001B685B69019308BDD801060808B5024B4F
:10041C001B689B69019308BDD801060808B5024BFF
:10042C001B68DB69019308BDD801060808B5024BAF
:10043C001B681B6A019308BDD801060808B5024B5E
:10044C001B689B6C019308BDC001060808B5024BE4
:10045C001B685B68019308BDA401060808B5034B33
:10046C001B68D3F89030019308BD0000A401060866
:10047C0008B5034B1B68D3F89C30019308BD0000F2
:10048C00A401060808B5024B1B685B68019308BD04
:10049C00C801060808B5024B1B689B68019308BD90
:1004AC00C801060808B5024B1B68DB68019308BD40
:1004BC00C801060808B5024B1B681B69019308BDEF
:1004CC00C801060808B5024B1B685B69019308BD9F
:1004DC00C801060808B5024B1B689B69019308BD4F
:1004EC00C801060808B5024B1B68DB69019308BDFF
:1004FC00C801060808B5024B1B681B6A019308BDAE
:10050C00C801060808B5024B1B681B6B019308BD9C
:10051C00C801060808B5024B1B685B6B019308BD4C
:10052C00C801060808B5024B1B681B6C019308BD7B
:10053C00C801060808B5024B1B685B6C019308BD2B
:10054C00C801060808B5024B1B68DB6B019308BD9C
:10055C00CC01060808B5024B1B681B68019308BD4B
:10056C00A001060808B5024B1B685B68019308BD27
:10057C00A001060808B5024B1B685B6C019308BD13
:10058C00A001060870B5002604460D4640F8086F19
:10059C00FFF782FE28462570FFF708FF20466660AD
:1005AC0070BD000002220020044B1A60044B054A67
:1005BC001860988098719A60FFF748BF9C000020E3
:1005CC00900000200000FFFFF8B506460D46002401
:1005DC008F18BD420CD0336830469B6815F8011B50
:1005EC009847031E01DB1C44F3E7002C08BF1C4694
:1005FC002046F8BD70B505460C46084649B100F0DA
:10060C00CFFC2B68024621462846BDE87040DB68CB
:10061C00184770BD03689B68184738B50D2105460F
:10062C00FFF7F8FF0A2104462846FFF7F3FF2044A2
:10063C0038BD38B50546FFF7DDFF04462846FFF701
:10064C00ECFF204438BD0023012A98BF0A2230B5A4
:10065C008BB00C468DF8243009A92546B4FBF2F476
:10066C0004FB1253DBB2092B94BF30333733DBB2AC
:10067C00AA4201F8013DF0D9FFF7BCFF0BB030BD29
:10068C00002340681A461946FFF71CBF014B024A6B
:10069C001A607047A0000020B7100A08024B1A68B5
:1006AC00024B1A60704700BF08000020A400002015
:1006BC000022014B9A607047A8000020014B186083
:1006CC00704700BF0C00002008B5134B43B100F07D
:1006DC0075F903681B699847002801DDAFF30080AA
:1006EC000E4B43B100F01AFA03681B6998470028B7
:1006FC0001DDAFF300800A4B0BB1AFF30080094B67
:10070C0043B100F095F903681B699847002801DD97
:10071C00AFF3008008BD00BF000000000000000027
:10072C00000000000000000008B5FFF7CDFFFFF748
:10073C00ABFD014B186008BD340500200548064A86
:10074C0008B5121A054900F0F1FB054B054A1A6071
:10075C0008BD00BF004002400440024010120A08CD
:10076C00004002401E1C279A002307B51A466FF062
:10077C0077010093FFF77CFE03B05DF804FB0000EB
:10078C0007B543880A2B08D0502B0BD1094B1B689B
:10079C004BB103B05DF804EB1847FFF7E5FF03B06E
:1007AC005DF804FB00231A466FF077010093FFF706
:1007BC005FFEF4E7BC000020002110B51148FFF7E4
:1007CC00D9FE114B1A68114B9A420CBF0122002220
:1007DC000F4B1A7001D0FFF7B1FFFFF74DFD044628
:1007EC0000F0BAFB0B4B13B12046AFF30080002195
:1007FC000848FFF7A7FEBDE8104000210648FFF7A8
:10080C002DBE00BFC9060A08004002401E1C279AD4
:10081C00B8000020000000008D070A08704710B5D2
:10082C000446182100F078FB204610BDF8B50E46A2
:10083C00002400F10807051D17F8011D0A22304697
:10084C00FFF701FFAF42044401D12046F8BD002C54
:10085C00F2D02E213046FFF7DDFE0444ECE7000019
:10086C0010B50446044B1122002140F8043B00F063
:10087C006BFB204610BD00BFE0100A080346074A78
:10088C0010B543F8042B01F1100251F8044B9142BE
:10089C0043F8044BF9D10A781A7010BDE0100A081D
:1008AC00024AC0E90021042202757047E0100A08D0
:1008BC0010B59DF8084044EA0324042344EA02449A
:1008CC0044EA01644460037510BD000037B5044D63
:1008DC0005609DF818500095FFF7EAFF03B030BD96
:1008EC00E0100A08417470477047704708B5002142
:1008FC00007CFFF78BFD40EAE07008BD08B50121D4
:10090C00007CFFF783FD40EAE07008BD08B5007C71
:10091C00FFF774FD20EAE07008BD08B5007CFFF716
:10092C0065FD20EAE07008BD38B50446007C0D4634
:10093C00FFF764FD002801DC607C28B12946207C8F
:10094C00FFF76CFD20EAE07038BD007CFFF76EBD50
:10095C0010B50446142100F0DFFA204610BD704794
:10096C0010B54FF47A73044608460021C4E901130C
:10097C00044B20742360012311466374FFF726FD9A
:10098C00204610BDF4100A080022007CFFF726BD9B
:10099C0010B504461422002100F0D6FA054B20466F
:1009AC006360054BE36040F20113238181232382B2
:1009BC0010BD00BFF0000020F101002030B50E4D3D
:1009CC0087B001A8FFF7E4FF2978BFF35B8F11F024
:1009DC0001040ED12846FFF75CFB50B1214601AA59
:1009EC000648FFF7BDFF2846FFF758FB044800F008
:1009FC0097FA024807B030BDC0000020C8000020A4
:100A0C00F5080A0810B504461422002100F09CFADF
:100A1C00054B20466360054BE36040F201132381D4
:100A2C008123238210BD00BF7202002073030020BB
:100A3C0010B50E4C86B001A8FFF7E4FF2378BFF386
:100A4C005B8FDB070ED42046FFF723FB50B101214F
:100A5C0001AA0748FFF784FF2046FFF71FFB054854
:100A6C0000F05EFA024806B010BD00BFC4000020C2
:100A7C00DC0000206B090A0870474174704770470E
:100A8C0008B5007CFFF750FC20EAE07008BD08B503
:100A9C00007CFFF721FC20EAE07008BD08B5007C63
:100AAC00FFF72AFC40EAE07008BD08B5007CFFF7B0
:100ABC001BFC40EAE07008BD007CFFF725BC70B55C
:100ACC00467C04460D462EB12946207CBDE870407C
:100ADC00FFF7FABB007CFFF727FC0028F4DC30465C
:100AEC0070BD10B50446142100F016FA204610BD56
:100AFC004FF0000C10B50446084611464FF47A72BC
:100B0C00C4E901C2044A20742260012262741A46AC
:100B1C00FFF7D2FB204610BD24110A0838B50C4D46
:100B2C002978BFF35B8F11F001040FD12846FFF732
:100B3C00B0FA58B12146074B074A0848FFF7D8FFCF
:100B4C002846FFF7ABFA064800F0EAF9034838BD2F
:100B5C00F40300207C040020F80300200005002092
:100B6C008B0A0A087047F8B5064615460C468F18CE
:100B7C00BC4206D0336830469B6814F8011B98477A
:100B8C00F6E72846F8BD0022007CFFF7D5BB002114
:100B9C00007CFFF7D9BB0021007CFFF7DDBB0021F7
:100BAC00007CFFF7E1BB0021007CFFF7E5BB10B533
:100BBC000446142100F0B0F9204610BD10B54FF4D6
:100BCC007A73044608460021C4E90113034B11460D
:100BDC0023602074FFF7E0FB204610BD54110A0877
:100BEC00002240681146FFF765BCF0B5154689B088
:100BFC0011220E460446002103A800F0A5F9284650
:100C0C0000F0CEF9002781B273682846009703AA3A
:100C1C00FFF714FC30B139462046FFF741FE204661
:100C2C0009B0F0BD204603A9FFF728FEF7E7002224
:100C3C0040681146FFF75EBC002240681146FFF782
:100C4C0069BC00224068FFF75DBC0022406881F05F
:100C5C000101FFF747BC002340681A461946FFF70D
:100C6C0039BC002240681146FFF714BC0022022157
:100C7C004068FFF717BC002340681A46FFF702BC18
:100C8C000422024B5A60024A1A6070471405002075
:100C9C007C110A08002340681A46FFF7F3BB0022B8
:100CAC0002214068FFF7FEBB002240681146FFF7A7
:100CBC00F1BB002240681146FFF7FCBB00234068E3
:100CCC001A461946FFF7FEBB002340681A46194620
:100CDC00FFF700BC00214068FFF724BC00214068EE
:100CEC00FFF728BC0022406881F00101FFF7FABB36
:100CFC0000224068FFF706BC002240681146FFF74F
:100D0C0009BC002240681146FFF7F4BB70B51546CC
:100D1C008EB0044608A8FFF7A3FD1122002103A8FA
:100D2C0000F012F90026284600F03AF90A4B00961A
:100D3C0081B25B68284603AAFFF780FB30B13146CD
:100D4C002046FFF7ADFD20460EB070BD204603A92E
:100D5C00FFF794FDF7E700BF14050020024B034A90
:100D6C001A6000225A6070471C050020B8110A084E
:100D7C00024B986808B1FFF797BA70472805002016
:100D8C00172870B5044601D9002070BDA0F10D03E1
:100D9C00022B0BD9012824D800F09AF80021007CF2
:100DAC00FFF7F2FA80F00100C0B2EEE7124E317894
:100DBC00BFF35B8F11F001050DD13046FFF769F9D8
:100DCC0048B129460D48FFF7DDFB3046FFF766F9C1
:100DDC000B4800F0A5F8094B1878FFF7EFFA00283C
:100DEC00D2D1123C012C05D8FFF798FE007CFFF7FE
:100DFC0093FAD7E70120C8E7240500202805002036
:100E0C007D0D0A08172838B504460D460AD8FF2967
:100E1C0008D0FFF7B5FF28B129462046BDE8384079
:100E2C00FFF70ABA38BD38B504460D46FFF70CFA81
:100E3C00FF2810D0062804D84D2323FA00F0C3074E
:100E4C0009D42046FFF79CFF28B129462046BDE86F
:100E5C003840FFF701BA38BD10B50446FFF7F4F976
:100E6C00031FDBB2012B08D92046FFF789FF20B105
:100E7C002046BDE81040FFF7F7B9002010BD000078
:100E8C00002307B51A46194600930348FFF71EFDC9
:100E9C0003B05DF804FB00BF38050020704700006C
:100EAC00002370B5202543801423084E044603808C
:100EBC00314685600561284600F030F831466060A7
:100ECC00284600F02BF8E060204670BDEC110A08B3
:100EDC0030B50E4D87B02978BFF35B8F11F001044C
:100EEC0011D12846FFF7D5F868B101A8FFF7D8FF54
:100EFC00214601AA0648FFF761FE2846FFF7CEF807
:100F0C00044800F00DF8024807B030BD5005002031
:100F1C0054050020A90E0A08FFF7B9B8FFF7B5B8B9
:100F2C00002301461A46184600F042B80A44914282
:100F3C0000F1FF3300D1704710B511F8014B91420D
:100F4C0003F8014FF9D110BD03460244934200D17E
:100F5C00704703F8011BF9E738B50D4B04461D68C3
:100F6C00AB6B7BB91820FFF7F5FA0A4A0A4BA8635A
:100F7C00C0E90023094B012283600B2383810023EA
:100F8C00C0E904230022AB6B1C615A6138BD00BF61
:100F9C000C0000200E33CDAB34126DE6ECDE0500F8
:100FAC00034613F8012B002AFBD1181A013870479D
:100FBC002DE9F843DFF8BC800646D8F800001F4640
:100FCC000D46914600F058F8264B1C6834B9264C57
:100FDC001C60264B13B11B68C4F8883063681F2B48
:100FEC0007DDD8F8000000F049F84FF0FF30BDE8FD
:100FFC00F8835EB3D4F8880088B91D4B23B9D8F8B0
:10100C00000000F03AF8F0E74FF48470FFF7A2FA12
:10101C000028F4D00023C0E94033C4F88800012232
:10102C006368022E40F8239002FA03F200EB83016E
:10103C00D0F8003143EA0203C0F80031C1F88070E7
:10104C0002BFD0F804311A43C0F804216368D8F801
:10105C0000005A1C0233626044F8235000F00EF872
:10106C000020C4E7F4050020680500200000000003
:10107C0061050A0870000020704770477047000037
:10108C001D000A085D000A0885000A0889000A0884
:10109C0000000000427574746F6E2070726573737B
:1010AC002064657465637465642E0061707000253E
:1010BC00592D256D2D25645425483A254D3A255337
:1010CC00257A0061736374696D650000000000008F
:1010DC000000000039080A0829080A082B080A0829
:1010EC000000000000000000F7080A085D090A086B
:1010FC0035090A08D5050A0827090A08F9080A0853
:10110C0009090A0857090A0819090A08F1080A08FE
:10111C000000000000000000850A0A08EF0A0A0817
:10112C00CB0A0A08D5050A089B0A0A08B70A0A0856
:10113C00A90A0A08C50A0A08870A0A088D0A0A08B1
:10114C000000000000000000710B0A08BB0B0A082D
:10115C00930B0A08730B0A089B0B0A08A30B0A08CB
:10116C00AB0B0A08B30B0A080000000000000000DB
:10117C00830C0A08790C0A086F0C0A08ED0B0A0894
:10118C008D060A08630C0A08E10C0A08E90C0A0827
:10119C00570C0A084F0C0A08450C0A083B0C0A08A5
:1011AC00F70B0A080000000000000000A10C0A0860
:1011BC00AB0C0A08B50C0A08BF0C0A08C90C0A08C3
:1011CC00D50C0A08E10C0A08E90C0A08F10C0A080B
:1011DC00FD0C0A08050D0A080F0D0A08190D0A085E
:1011EC0000000000B1050A0899060A08A9060A08B9
:1011FC00BD060A088D0C0A08690D0A088D0E0A082E
:04120C0000000000DE
:0412100000000000DA
:101214000300000007000000CF100A08100000209F
:1012240000000000000000000000000000000000BA
:1012340000000000000000000000000000000000AA
:10124400000000000000000000000000000000009A
:10125400000000000000000000000000000000008A
:10126400000000000000000000000000000000007A
:10127400000000000000000000000000000000006A
:04128400F905002048
:10128800FFFFFFFF00000102030405060708090A23
:101298000B0C0D0E0F101112131415161718191A1E
:0812A8001B1C1D1E1F20280065
:0412B0007856341226
:04000005080A001CC9
:00000001FF
