:02000004080AE8
:1000000000000A0894240A08000006000600050102
:080010000402FD0800000000DD
:0400180064220A084C
:10001C0009480A4908B5884205D0094A824202D0EB
:10002C00121A02F06FF80748074A0021121A02F060
:10003C0077F8064808BD00BF00000020F4230A082A
:10004C007800002078000020090600200906002016
:10005C0070B501F09DFC0025054E064CA41BA408B0
:10006C00A54200D170BD56F8043B98470135F7E71F
:10007C00C4230A08E8230A0800F014B808B500F0F5
:10008C0027F8BDE8084001F03BBC01F065BB01F06E
:10009C006BBB0078B0FA80F0400970470123037005
:1000AC007047000008B5084B0321188801F096FF33
:1000BC00064800F07BF801F06DFDBDE808404FF4F8
:1000CC00165101F04DBD00BF000000208000002043
:1000DC0070B51C4B1C4D188801F0AAFF041E14BFF0
:1000EC00012200222A7020D00021FF22084601F0B4
:1000FC0087F968220646E821F42001F081F90446CC
:10010C0032460021114801F037F9224601210F48EF
:10011C0001F032F90D4800F07FF801F03BFD297831
:10012C000A22BDE8704001F07ABB2246214601F05C
:10013C0067F9064602462146044801F01DF932468D
:10014C00E4E700BF000000207800002080000020C1
:10015C00044B054A05491B7812780988044800F0BD
:10016C004AB800BF7C0000200800002004000020DA
:10017C008000002038B50446C0680D4608B101F077
:10018C00F3FAA379062B0CBF04200320684380B23A
:10019C00A08001F0E1FAE06028B10021A28801F012
:1001AC00BFFF658038BDA0806080FBE710B50446BA
:1001BC000121C07901F012FF0021E07901F01FFF4D
:1001CC000123237010BD38B5037805460C461BB1CE
:1001DC000021C07901F002FF2B78EC7153B1A4B26D
:1001EC002046012101F0FAFE2046BDE838400021EE
:1001FC0001F005BF38BD70B5002504461646837165
:10020C00C0E9035505700572FFF7B4FF204631466F
:10021C00FFF7D9FF204670BDC368002B00F0418466
:10022C00F0B583790446023BDBB2042B8CBF32253C
:10023C00284A87B098BF52F8235001F01FF9236960
:10024C00C01AA842F9D372B6A388A579ADF80A30C2
:10025C00BDF80A30022DE1689BB200F06E82072DCA
:10026C0000F06B82062D00F01D84052D00F0A1839B
:10027C00082D00F09E83002D40F04F85002B00F0E0
:10028C0092834FF40006144A0496BDF80A300331E9
:10029C00033B9BB2ADF80A3011F8033CDBB28DF88E
:1002AC00073011F8023CDBB28DF8063011F8013C36
:1002BC00DBB28DF808309DF807709DF806309DF87C
:1002CC0008001B0243EA0743034303938DF80550D0
:1002DC001BE100BF78220A0894000020004600BFF2
:1002EC0000BF00BF00BF00BF00BF00BF00BF00BF0A
:1002FC0000BF00BF00BF00BF00BF00BF00BF00BFFA
:10030C0000BF00BF00BF00BF00BF00BF00BF00BFE9
:10031C0000BF00BF00BF00BF00BF00BF00BF00BFD9
:10032C0000BF00BF00BF00BF00BF00BF00BF00BFC9
:10033C0000BF00BF00BF00BF00BF00BF00BF00BFB9
:10034C0000BF00BF00BF00BF00BF00BF00BF00BFA9
:10035C0000BF00BF00BF00BF00BF00BF00BF00BF99
:10036C0000BF00BF00BF00BF00BF00BF00BF00BF89
:10037C0000BF00BF00BF00BF00BF00BF00BF00BF79
:10038C0000BF00BF00BF00BF00BF00BF00BF00BF69
:10039C0000BF00BF00BF00BF00BF00BF00BF00BF59
:1003AC0000BF00BF00BF00BF00BF00BF00BF00BF49
:1003BC0000BF00BF00BF00BF00BF00BF00BF00BF39
:1003CC0000BF00BF00BF00BF00BF00BF00BF00BF29
:1003DC0000BF00BF00BF00BF00BF00BF00BF00BF19
:1003EC0000BF00BFE3791068C3EBC30300EB8307C6
:1003FC00BF8850F823305F83004600BF00BF00BFAA
:10040C0000BF00BF00BF00BF00BF00BF00BF00BFE8
:10041C0000BF00BF00BF00BF00BF00BF00BF00BFD8
:10042C0000BF00BF00BF00BF00BF00BF00BF00BFC8
:10043C0000BF00BF00BF00BF00BF00BF00BF00BFB8
:10044C0000BF00BF00BF00BF00BF00BF00BF00BFA8
:10045C0000BF00BF00BF00BF00BF00BF00BF00BF98
:10046C0000BF00BF00BF00BF00BF00BF00BF00BF88
:10047C0000BF00BF00BF00BF00BF00BF00BF00BF78
:10048C0000BF00BF00BF00BF00BF00BF00BF00BF68
:10049C0000BF00BF00BF00BF00BF00BF00BF00BF58
:1004AC0000BF00BF00BF00BF00BF00BF00BF00BF48
:1004BC0000BF00BF00BF00BF00BF00BF00BF00BF38
:1004CC0000BF00BF00BF00BF00BF00BF00BF00BF28
:1004DC0000BF00BF00BF00BF00BF00BF00BF00BF18
:1004EC0000BF00BF00BF00BF00BF00BF00BF00BF08
:1004FC0000BF049B5B0804939DF805300133DBB20D
:10050C00172B8DF8053000F22787E3791068C3EBC1
:10051C00C30300EB8307BF8850F823301F83039875
:10052C00049B18427FF4DAAE004600BF00BF00BF48
:10053C0000BF00BF00BF00BF00BF00BF00BF00BFB7
:10054C0000BF00BF00BF00BF00BF00BF00BF00BFA7
:10055C0000BF00BF00BF00BF00BF00BF00BF00BF97
:10056C0000BF00BF00BF00BF00BF00BF00BF00BF87
:10057C0000BF00BF00BF00BF00BFE3791068C3EB32
:10058C00C30300EB8307BF8850F823305F8300461A
:10059C0000BF00BF00BF00BF00BF00BF00BF00BF57
:1005AC0000BF00BF00BF00BF00BF00BF00BF00BF47
:1005BC0000BF00BF00BF00BF00BF00BF00BF00BF37
:1005CC0000BF00BF00BF00BF00BF00BF00BF00BF27
:1005DC0000BF00BF00BF00BF00BF00BF00BF00BF17
:1005EC0000BF00BF00BF00BF00BF00BF00BF00BF07
:1005FC0000BF00BF00BF00BF00BF00BF00BF00BFF7
:10060C0000BF00BF00BF00BF00BF00BF00BF00BFE6
:10061C0000BF00BF00BF00BF00BF00BF00BF00BFD6
:10062C0000BF00BF00BF00BF00BF00BF00BF00BFC6
:10063C0000BF00BF00BF00BF00BF00BF00BF00BFB6
:10064C0000BF00BF00BF00BF00BF00BF00BF00BFA6
:10065C0000BF00BF00BF00BF00BF00BF00BF00BF96
:10066C0000BF00BF00BF00BF00BF00BF00BF00BF86
:10067C0000BF00BF00BF00BF00BF00BF00BF00BF76
:10068C0000BF00BF00BF00BF00BF00BF00BF00BF66
:10069C0000BF00BF00BF00BF00BF00BF00BF00BF56
:1006AC0000BF00BF00BF00BF00BF00BF00BF00BF46
:1006BC0000BF00BF00BF00BF00BF00BF00BF00BF36
:1006CC0000BF00BF00BF00BF00BF00BF00BF00BF26
:1006DC0000BF00BF00BF00BF00BF00BF00BF00BF16
:1006EC0000BF00BF00BF00BF00BF00BF00BF00BF06
:1006FC0000BF00BF00BF00BF00BF00BF00BF00BFF6
:10070C0000BF00BF00BF00BF00BF00BF00BF00BFE5
:10071C0000BF00BF00BF00BF00BF00BF00BF00BFD5
:10072C0000BF00BF00BF00BF00BF00BF00BF00BFC5
:10073C0000BF00BF00BF00BFDBE6002B00F0338121
:10074C004FF400050026134A0495BDF80A30033116
:10075C00033B9BB2ADF80A3011F8033CDBB28DF8C9
:10076C00063011F8023CDBB28DF8073011F8013C71
:10077C00DBB28DF808309DF806709DF807309DF8B7
:10078C0008001B0243EA0743034303938DF80560FB
:10079C0080E000BF94000020004600BF00BF00BFF7
:1007AC0000BF00BF00BF00BF00BF00BF00BF00BF45
:1007BC0000BF00BF00BF00BF00BF00BF00BF00BF35
:1007CC0000BF00BF00BF00BF00BF00BF00BF00BF25
:1007DC0000BF00BF00BF00BF00BF00BF00BF00BF15
:1007EC0000BF00BF00BF00BF00BF00BF00BF00BF05
:1007FC0000BF00BF00BF00BF00BF00BF00BF00BFF5
:10080C0000BF00BF00BF00BF00BF00BF00BF00BFE4
:10081C0000BF00BF00BF00BF00BF00BF00BF00BFD4
:10082C0000BF00BF00BF00BF00BF00BF00BF00BFC4
:10083C0000BFE3791068C3EBC30300EB8307BF88E9
:10084C0050F823305F83004600BF00BF00BF00BFDD
:10085C0000BF00BF00BF00BF00BF00BF00BF00BF94
:10086C0000BF00BF00BF00BF00BF00BF00BF00BF84
:10087C0000BF00BF00BF00BF00BF00BF049B5B08F0
:10088C0004939DF805300133DBB2172B8DF805303E
:10089C0000F28380E3791068C3EBC30300EB83079A
:1008AC00BF8850F823301F830398049B18427FF4B1
:1008BC0073AF004600BF00BF00BF00BF00BF00BF4A
:1008CC0000BF00BF00BF00BF00BF00BF00BF00BF24
:1008DC0000BF00BF00BF00BF00BFE3791068C3EBCF
:1008EC00C30300EB8307BF8850F823305F830046B7
:1008FC0000BF00BF00BF00BF00BF00BF00BF00BFF4
:10090C0000BF00BF00BF00BF00BF00BF00BF00BFE3
:10091C0000BF00BF00BF00BF00BF00BF00BF00BFD3
:10092C0000BF00BF00BF00BF00BF00BF00BF00BFC3
:10093C0000BF00BF00BF00BF00BF00BF00BF00BFB3
:10094C0000BF00BF00BF00BF00BF00BF00BF00BFA3
:10095C0000BF00BF00BF00BF00BF00BF00BF00BF93
:10096C0000BF00BF00BF00BF00BF00BF00BF00BF83
:10097C0000BF00BF00BF00BF00BF00BF00BF00BF73
:10098C0000BF00BF00BF00BF00BF00BF00BF00BF63
:10099C0000BF00BF00BF00BF70E7BDF80A309BB2BC
:1009AC00002B7FF4D1AE62B600F068FD206107B079
:1009BC00F0BD002BF7D04FF4000E0026544B1868F6
:1009CC00544BCDF810E0BDF80A200331033A92B233
:1009DC00ADF80A2011F8032CD2B28DF8062011F8CC
:1009EC00022CD2B28DF8072011F8012CD2B28DF85E
:1009FC0008209DF806C09DF807209DF8087012028B
:100A0C0042EA0C423A4303928DF80560E2795D6844
:100A1C00C2EBC20200EB8207BF8850F8222005957A
:100A2C001783039F049A174225D05A68059FD21B3F
:100A3C004F2AFAD9E279C2EBC20200EB8207BF88D7
:100A4C0050F8222057835A6805925A68059FD21B8A
:100A5C00072AFAD9049A520804929DF8052001320B
:100A6C00D2B2172A8DF80520D0D9BDF80A2092B23F
:100A7C00002AA6D197E75A68059FD21B182AFAD9E3
:100A8C00E279C2EBC20200EB8207BF8850F8222049
:100A9C0057835A6805925A68059FD21B452AFAD982
:100AAC00D8E77047002B3FF47EAF4FF0004500268F
:100ABC00174A0495BDF80A300431043B9BB2ADF8DB
:100ACC000A3011F8043CDBB28DF8073011F8033C06
:100ADC00DBB28DF8063011F8023CDBB28DF8083031
:100AEC0011F8013CDBB28DF809309DF807C09DF878
:100AFC0006309DF808001B049DF8097043EA0C634E
:100B0C003B4343EA002303938DF805607FE000BF6D
:100B1C0094000020001000E0004600BF00BF00BFA2
:100B2C0000BF00BF00BF00BF00BF00BF00BF00BFC1
:100B3C0000BF00BF00BF00BF00BF00BF00BF00BFB1
:100B4C0000BF00BF00BF00BF00BF00BF00BF00BFA1
:100B5C0000BF00BF00BF00BF00BF00BF00BF00BF91
:100B6C0000BF00BF00BF00BF00BF00BF00BF00BF81
:100B7C0000BF00BF00BF00BF00BF00BF00BF00BF71
:100B8C0000BF00BF00BFE3791068C3EBC30300EBE9
:100B9C008307BF8850F823305F83004600BF00BF37
:100BAC0000BF00BF00BF00BF00BF00BF00BF00BF41
:100BBC0000BF00BF00BF00BF00BF00BF00BF00BF31
:100BCC0000BF00BF00BF00BF00BF00BF00BF00BF21
:100BDC0000BF00BF00BF00BF00BF00BF00BF00BF11
:100BEC0000BF00BF00BF00BF00BF00BF00BF00BF01
:100BFC0000BF00BF00BF00BF049B5B0804939DF8BF
:100C0C0005300133DBB21F2B8DF805307ED8E3792C
:100C1C001068C3EBC30300EB8307BF8850F8233085
:100C2C001F830398049B18427FF476AF004600BFE5
:100C3C0000BF00BF00BF00BF00BF00BF00BF00BFB0
:100C4C0000BF00BF00BF00BF00BF00BF00BF00BFA0
:100C5C0000BF00BFE3791068C3EBC30300EB83074D
:100C6C00BF8850F823305F83004600BF00BF00BF31
:100C7C0000BF00BF00BF00BF00BF00BF00BF00BF70
:100C8C0000BF00BF00BF00BF00BF00BF00BF00BF60
:100C9C0000BF00BF00BF00BF00BF00BF00BF00BF50
:100CAC0000BF00BF00BF00BF00BF00BF00BF00BF40
:100CBC0000BF00BF00BF00BF00BF00BF00BF00BF30
:100CCC0000BF00BF00BF00BF00BF00BF00BF00BF20
:100CDC0000BF00BF00BF00BF00BF00BF00BF00BF10
:100CEC0000BF00BF00BF00BF00BF00BF00BF00BF00
:100CFC0000BF00BF00BF00BF00BF00BF00BF00BFF0
:100D0C0000BF00BF00BF00BF00BF75E7BDF80A30D1
:100D1C009BB2002B7FF4CDAE45E6032D00F02B816A
:100D2C00002B3FF440AE4FF400050026174A049503
:100D3C00BDF80A30E079033B9BB2ADF80A300B7872
:100D4C001768DBB28DF807304B78C0EBC000DBB214
:100D5C008DF808308B7807EB800CDBB28DF8063001
:100D6C009DF807E09DF80830BCF804C01B0243EA6C
:100D7C000E439DF806E057F8200043EA0E03039358
:100D8C0003318DF80560A0F81AC07CE094000020B7
:100D9C00049B5B080493004600BF00BF00BF00BF6C
:100DAC0000BF00BF00BF00BF00BF00BF00BF00BF3F
:100DBC0000BF00BF00BF00BF00BF00BF00BF00BF2F
:100DCC0000BF00BF00BF00BF00BF00BF00BF00BF1F
:100DDC0000BF00BF00BF00BF00BF00BF00BF00BF0F
:100DEC0000BF00BF00BF00BF00BF00BF00BF00BFFF
:100DFC0000BF00BF00BF00BF00BF00BF00BF00BFEF
:100E0C0000BF00BF00BF00BF00BF00BF00BF00BFDE
:100E1C0000BF00BF00BF00BF00BF00BFE079176874
:100E2C009DF80530C0EBC00007EB800CBCF804C08B
:100E3C0057F820000133DBB28DF80530A0F818C04C
:100E4C00004600BF00BF00BF00BF00BF00BF00BF17
:100E5C0000BF00BF00BF00BF00BF00BF00BF00BF8E
:100E6C0000BF00BF00BF00BF00BF9DF80530182BAE
:100E7C007AD0E3791068C3EBC30300EB8307BF8818
:100E8C0050F823305F830398049B184280D10046AE
:100E9C0000BF00BF00BF00BF00BF00BF00BF00BF4E
:100EAC0000BF00BF00BF00BF00BF00BF00BF00BF3E
:100EBC00E3791068C3EBC30300EB8307BF8850F8DA
:100ECC0023301F839DF805300133DBB28DF80530DC
:100EDC00049B5B080493004600BF00BF00BF00BF2B
:100EEC0000BF00BF00BF00BF00BF00BF00BF00BFFE
:100EFC0000BF00BF00BF00BF00BF00BF00BF00BFEE
:100F0C0000BF00BF00BF00BF00BF00BF00BF00BFDD
:100F1C0000BF00BF00BF00BF00BF00BF00BF00BFCD
:100F2C0000BF00BF00BF00BF00BF00BF00BF00BFBD
:100F3C0000BF00BF00BF00BF00BF00BF00BF00BFAD
:100F4C0000BF00BF00BF00BF00BF00BF00BF00BF9D
:100F5C0000BF00BF00BF00BF00BF00BF00BF00BF8D
:100F6C009DF80530182B84D1BDF80A309BB2002BAC
:100F7C007FF4DDAE17E5002B3FF415AD4FF4000503
:100F8C000026134A0495BDF80A300331033B9BB28B
:100F9C00ADF80A3011F8033CDBB28DF8073011F8CC
:100FAC00023CDBB28DF8063011F8013CDBB28DF857
:100FBC0008309DF807709DF806309DF808001B025C
:100FCC0043EA0743034303938DF80560E1E000BF58
:100FDC0094000020004600BF00BF00BF00BF00BF50
:100FEC0000BF00BF00BF00BF00BF00BF00BF00BFFD
:100FFC0000BF00BF00BF00BF00BF00BF00BF00BFED
:10100C0000BF00BF00BF00BF00BF00BF00BF00BFDC
:10101C0000BF00BF00BF00BF00BF00BF00BF00BFCC
:10102C0000BF00BF00BF00BF00BF00BF00BF00BFBC
:10103C0000BF00BF00BF00BF00BF00BF00BF00BFAC
:10104C0000BF00BF00BF00BF00BF00BF00BF00BF9C
:10105C0000BF00BF00BF00BF00BF00BF00BF00BF8C
:10106C0000BF00BF00BF00BF00BF00BF00BF00BF7C
:10107C0000BF00BF00BF00BF00BF00BF00BF00BF6C
:10108C0000BF00BF00BF00BF00BF00BF00BF00BF5C
:10109C0000BF00BF00BF00BF00BF00BF00BF00BF4C
:1010AC0000BF00BF00BF00BF00BF00BF00BF00BF3C
:1010BC0000BF00BF00BF00BF00BF00BF00BF00BF2C
:1010CC0000BF00BF00BF00BF00BF00BF00BF00BF1C
:1010DC0000BF00BF00BF00BF00BF00BF00BF00BF0C
:1010EC0000BF00BF00BF00BF00BF00BF00BF00BFFC
:1010FC0000BF00BF00BFE3791068C3EBC30300EB74
:10110C008307BF8850F823305F83004600BF00BFC1
:10111C0000BF00BF00BF00BF00BF00BF00BF00BFCB
:10112C0000BF00BF00BF00BF00BF00BF00BF00BFBB
:10113C0000BF00BF00BF00BF00BF00BF00BF00BFAB
:10114C0000BF00BF00BF00BF00BF00BF00BF00BF9B
:10115C0000BF00BF00BF00BF00BF00BF00BF00BF8B
:10116C0000BF00BF00BF00BF00BF00BF00BF00BF7B
:10117C0000BF00BF00BF00BF00BF049B5B0804930F
:10118C009DF805300133DBB2172B8DF8053000F2DA
:10119C00EB80E3791068C3EBC30300EB8307BF88D4
:1011AC0050F823301F830398049B18427FF412AF2E
:1011BC00004600BF00BF00BF00BF00BF00BF00BFA4
:1011CC0000BF00BF00BF00BF00BF00BF00BF00BF1B
:1011DC0000BF00BF00BF00BF00BF00BF00BF00BF0B
:1011EC0000BF00BF00BF00BF00BF00BF00BF00BFFB
:1011FC0000BF00BF00BF00BF00BF00BF00BF00BFEB
:10120C0000BF00BF00BF00BF00BF00BF00BF00BFDA
:10121C0000BF00BF00BF00BF00BF00BF00BF00BFCA
:10122C0000BF00BF00BF00BF00BF00BF00BF00BFBA
:10123C0000BFE3791068C3EBC30300EB8307BF88DF
:10124C0050F823305F83004600BF00BF00BF00BFD3
:10125C0000BF00BF00BF00BF00BF00BF00BF00BF8A
:10126C0000BF00BF00BF00BF00BF00BF00BF00BF7A
:10127C0000BF00BF00BF00BF00BF00BF00BF00BF6A
:10128C0000BF00BF00BF00BF00BF00BF00BF00BF5A
:10129C0000BF00BF00BF00BF00BF00BF00BF00BF4A
:1012AC0000BF00BF00BF00BF00BF00BF00BF00BF3A
:1012BC0000BF00BF00BF00BF00BF00BF00BF00BF2A
:1012CC0000BF00BF00BF00BF00BF00BF00BF00BF1A
:1012DC0000BF00BF00BF00BF00BF00BF00BF00BF0A
:1012EC0000BF00BF00BF00BF00BF00BF00BF00BFFA
:1012FC0000BF00BF00BF00BF00BF00BF00BF00BFEA
:10130C0000BF00BF00BF00BF00BF00BF00BF00BFD9
:10131C0000BF00BF00BF00BF00BF00BF00BF00BFC9
:10132C0000BF00BF00BF00BF00BF00BF00BF00BFB9
:10133C0000BF00BF00BF00BF00BF00BF00BF00BFA9
:10134C0000BF00BF00BF00BF00BF00BF00BF00BF99
:10135C0000BF00BF00BF10E7BDF80A309BB2002BE6
:10136C007EF492AFFFF71FBBBDF80A309BB2002B87
:10137C007FF408AEFFF717BB4388F0B58B4226D934
:10138C00057AC2F30743C2F30724D6B23DB16B43CF
:10139C006C436E43C3F30723C4F30724360A90F857
:1013AC0006C0C768BCF1060F0CBF042503256943B2
:1013BC00ACF1020C7D18BCF1060F1DD8DFE80CF067
:1013CC00041C08040F0404007C546B70AE70F0BD58
:1013DC00FE2B28BFFE237B546E70AC70F7E77B545A
:1013EC006C70AE70037A120E13B9D2B2EA70EEE7DB
:1013FC005A43C2F30722F9E77B546C70AE70E6E7F0
:10140C0042EA012242EA00407047000008B500F0B1
:10141C0005F8014B186008BD9400002008B5024B7C
:10142C001B681B68019308BDB001060808B5024B88
:10143C001B689B68019308BDB001060808B5024BF8
:10144C001B68DB68019308BDB001060808B5024BA8
:10145C001B681B69019308BDB001060808B5024B57
:10146C001B685B69019308BDB001060808B5024B07
:10147C001B685B68019308BD9C01060808B5024B0C
:10148C001B681B69019308BD9C01060808B5024B3B
:10149C001B685B69019308BD9C01060808B5024BEB
:1014AC001B685B6C019308BDD001060808B5024BA4
:1014BC001B689B6C019308BDD001060808B5024B54
:1014CC001B689B69019308BDC401060808B5024B53
:1014DC001B685B6A019308BDC401060808B5024B82
:1014EC001B689B6A019308BDC401060808B5024B32
:1014FC001B68DB6A019308BDC401060808B5024BE2
:10150C001B681B6B019308BDC401060808B5024B90
:10151C001B685B6B019308BDC401060808B5024B40
:10152C001B689B6B019308BDC401060808B5024BF0
:10153C001B681B6C019308BDC401060808B5024B5F
:10154C001B681B6E019308BDAC01060808B5024B65
:10155C001B685B6E019308BDAC01060808B5024B15
:10156C001B689B6E019308BDAC01060808B5024BC5
:10157C001B68DB6E019308BDAC01060808B5024B75
:10158C001B681B6F019308BDAC01060808B5024B24
:10159C001B685B6F019308BDAC01060808B5034BD3
:1015AC001B68D3F88030019308BD0000AC0106081D
:1015BC0008B5024B1B68DB69019308BDB401060832
:1015CC0008B5024B1B681B6A019308BDB4010608E1
:1015DC0008B5024B1B681B68019308BDD8010608AF
:1015EC0008B5024B1B685B68019308BDD80106085F
:1015FC0008B5024B1B681B69019308BDD80106088E
:10160C0008B5024B1B685B69019308BDD80106083D
:10161C0008B5024B1B689B69019308BDD8010608ED
:10162C0008B5024B1B68DB69019308BDD80106089D
:10163C0008B5024B1B681B6A019308BDD80106084C
:10164C0008B5024B1B689B6C019308BDC0010608D2
:10165C0008B5024B1B685B68019308BDA401060822
:10166C0008B5034B1B68D3F89030019308BD0000FC
:10167C00A401060808B5034B1B68D3F89C300193F2
:10168C0008BD0000A401060808B5024B1B685B6886
:10169C00019308BDC801060808B5024B1B689B687E
:1016AC00019308BDC801060808B5024B1B68DB682E
:1016BC00019308BDC801060808B5024B1B681B69DD
:1016CC00019308BDC801060808B5024B1B685B698D
:1016DC00019308BDC801060808B5024B1B689B693D
:1016EC00019308BDC801060808B5024B1B68DB69ED
:1016FC00019308BDC801060808B5024B1B681B6A9C
:10170C00019308BDC801060808B5024B1B681B6B8A
:10171C00019308BDC801060808B5024B1B685B6B3A
:10172C00019308BDC801060808B5024B1B681B6C69
:10173C00019308BDC801060808B5024B1B685B6C19
:10174C00019308BDC801060808B5024B1B68DB6B8A
:10175C00019308BDCC01060808B5024B1B681B6839
:10176C00019308BDA001060808B5024B1B685B6815
:10177C00019308BDA001060808B5024B1B685B6C01
:10178C00019308BDA001060870B5002604460D465D
:10179C0040F8086FFFF782FE28462570FFF708FF18
:1017AC002046666070BD000002220020044B1A60C7
:1017BC00044B054A1860988098719A60FFF748BFEF
:1017CC00A4000020980000200000FFFFF8B506469A
:1017DC000D4600248F18BD420CD0336830469B68F0
:1017EC0015F8011B9847031E01DB1C44F3E7002C82
:1017FC0008BF1C462046F8BD70B505460C46084689
:10180C0049B100F0B9FC2B68024621462846BDE8D8
:10181C007040DB68184770BD03689B68184700234D
:10182C00012A98BF0A2230B58BB00C468DF82430B3
:10183C0009A92546B4FBF2F404FB1253DBB2092BC5
:10184C0094BF30333733DBB2AA4201F8013DF0D9F3
:10185C00FFF7D2FF0BB030BD002340681A46194683
:10186C00FFF732BF014B024A1A607047A8000020F4
:10187C008C220A08024B1A68024B1A60704700BF90
:10188C000C000020AC0000200022014B9A60704735
:10189C00B0000020014B1860704700BF1000002002
:1018AC0008B5134B43B100F075F903681B699847F1
:1018BC00002801DDAFF300800E4B43B100F01AFAA3
:1018CC0003681B699847002801DDAFF300800A4BC1
:1018DC000BB1AFF30080094B43B100F095F90368ED
:1018EC001B699847002801DDAFF3008008BD00BFDD
:1018FC0000000000000000000000000000000000DC
:10190C0008B5FFF7CDFFFFF7C1FD014B186008BD0F
:10191C003C0500200548064A08B5121A054900F096
:10192C00F1FB054B054A1A6008BD00BF00400240A0
:10193C0004400240F0230A08004002401E1C279A73
:10194C00002307B51A466FF077010093FFF792FE5C
:10195C0003B05DF804FB000007B543880A2B08D0E0
:10196C00502B0BD1094B1B684BB103B05DF804EB4A
:10197C001847FFF7E5FF03B05DF804FB00231A4698
:10198C006FF077010093FFF775FEF4E7C4000020B9
:10199C00002110B51148FFF7EFFE114B1A68114BDF
:1019AC009A420CBF012200220F4B1A7001D0FFF794
:1019BC00B1FFFFF75BFD044600F0BAFB0B4B13B114
:1019CC002046AFF3008000210848FFF7BDFEBDE8BC
:1019DC00104000210648FFF743BE00BFA1180A08BB
:1019EC00004002401E1C279AC0000020000000008E
:1019FC0065190A08704710B50446182100F078FBE9
:101A0C00204610BDF8B50E46002400F10807051D50
:101A1C0017F8011D0A223046FFF701FFAF420444BC
:101A2C0001D12046F8BD002CF2D02E213046FFF714
:101A3C00F3FE0444ECE7000010B50446044B1122FD
:101A4C00002140F8043B00F06BFB204610BD00BFAA
:101A5C00B4220A080346074A10B543F8042B01F1D7
:101A6C00100251F8044B914243F8044BF9D10A7817
:101A7C001A7010BDB4220A08024AC0E900210422DF
:101A8C0002757047B4220A0810B59DF8084044EA64
:101A9C000324042344EA024444EA016444600375C9
:101AAC0010BD000037B5044D05609DF81850009529
:101ABC00FFF7EAFF03B030BDB4220A084174704747
:101ACC007047704708B50021007CFFF7A1FD40EA84
:101ADC00E07008BD08B50121007CFFF799FD40EAD4
:101AEC00E07008BD08B5007CFFF78AFD20EAE070C5
:101AFC0008BD08B5007CFFF77BFD20EAE07008BD4F
:101B0C0038B50446007C0D46FFF77AFD002801DC51
:101B1C00607C28B12946207CFFF782FD20EAE0702A
:101B2C0038BD007CFFF784BD10B50446142100F0CD
:101B3C00DFFA204610BD704710B54FF47A73044697
:101B4C0008460021C4E90113044B207423600123CF
:101B5C0011466374FFF73CFD204610BDC8220A08ED
:101B6C000022007CFFF73CBD10B504461422002176
:101B7C0000F0D6FA054B20466360054BE36040F25B
:101B8C00011323818123238210BD00BFF8000020A4
:101B9C00F901002030B50E4D87B001A8FFF7E4FF26
:101BAC002978BFF35B8F11F001040ED12846FEF7A4
:101BBC0070FA50B1214601AA0648FFF7BDFF28462E
:101BCC00FEF76CFA044800F097FA024807B030BDF3
:101BDC00C8000020D0000020CD1A0A0810B5044619
:101BEC001422002100F09CFA054B20466360054B43
:101BFC00E36040F2011323818123238210BD00BFD7
:101C0C007A0200207B03002010B50E4C86B001A890
:101C1C00FFF7E4FF2378BFF35B8FDB070ED420467E
:101C2C00FEF737FA50B1012101AA0748FFF784FFEC
:101C3C002046FEF733FA054800F05EFA024806B07B
:101C4C0010BD00BFCC000020E4000020431B0A089C
:101C5C00704741747047704708B5007CFFF766FC0D
:101C6C0020EAE07008BD08B5007CFFF737FC20EADD
:101C7C00E07008BD08B5007CFFF740FC40EAE0705E
:101C8C0008BD08B5007CFFF731FC40EAE07008BDE8
:101C9C00007CFFF73BBC70B5467C04460D462EB16C
:101CAC002946207CBDE87040FFF710BC007CFFF794
:101CBC003DFC0028F4DC304670BD10B50446142100
:101CCC0000F016FA204610BD4FF0000C10B504467B
:101CDC00084611464FF47A72C4E901C2044A2074D2
:101CEC002260012262741A46FFF7E8FB204610BD01
:101CFC00F8220A0838B50C4D2978BFF35B8F11F028
:101D0C0001040FD12846FEF7C4F958B12146074B00
:101D1C00074A0848FFF7D8FF2846FEF7BFF90648E0
:101D2C0000F0EAF9034838BDFC03002084040020CD
:101D3C000004002008050020631C0A087047F8B551
:101D4C00064615460C468F18BC4206D03368304602
:101D5C009B6814F8011B9847F6E72846F8BD00224B
:101D6C00007CFFF7EBBB0021007CFFF7EFBB0021F1
:101D7C00007CFFF7F3BB0021007CFFF7F7BB0021D1
:101D8C00007CFFF7FBBB10B50446142100F0B0F942
:101D9C00204610BD10B54FF47A7304460846002156
:101DAC00C4E90113034B114623602074FFF7F6FBC3
:101DBC00204610BD28230A08002240681146FFF770
:101DCC007BBCF0B5154689B011220E4604460021A5
:101DDC0003A800F0A5F9284600F0CEF9002781B23F
:101DEC0073682846009703AAFFF72AFC30B13946DE
:101DFC002046FFF741FE204609B0F0BD204603A95E
:101E0C00FFF728FEF7E7002240681146FFF774BC85
:101E1C00002240681146FFF77FBC00224068FFF7A4
:101E2C0073BC0022406881F00101FFF75DBC002308
:101E3C0040681A461946FFF74FBC0022406811460D
:101E4C00FFF72ABC002202214068FFF72DBC0023BB
:101E5C0040681A46FFF718BC0422024B5A60024A2B
:101E6C001A6070471C05002050230A0800234068A4
:101E7C001A46FFF709BC002202214068FFF714BC88
:101E8C00002240681146FFF707BC0022406811464B
:101E9C00FFF712BC002340681A461946FFF714BC22
:101EAC00002340681A461946FFF716BC002140680B
:101EBC00FFF73ABC00214068FFF73EBC00224068A7
:101ECC0081F00101FFF710BC00224068FFF71CBC39
:101EDC00002240681146FFF71FBC002240681146E3
:101EEC00FFF70ABC70B515468EB0044608A8FFF77C
:101EFC00A3FD1122002103A800F012F900262846A8
:101F0C0000F03AF90A4B009681B25B68284603AAA6
:101F1C00FFF796FB30B131462046FFF7ADFD20466A
:101F2C000EB070BD204603A9FFF794FDF7E700BF84
:101F3C001C050020024B034A1A6000225A607047AD
:101F4C00240500208C230A08024B986808B1FFF77F
:101F5C00ADBA704730050020172870B5044601D97A
:101F6C00002070BDA0F10D03022B0BD9012824D841
:101F7C0000F09AF80021007CFFF708FB80F00100CC
:101F8C00C0B2EEE7124E3178BFF35B8F11F0010552
:101F9C000DD13046FEF77DF848B129460D48FFF7C4
:101FAC00F3FB3046FEF77AF80B4800F0A5F8094B26
:101FBC001878FFF705FB0028D2D1123C012C05D86C
:101FCC00FFF798FE007CFFF7A9FAD7E70120C8E7D6
:101FDC002C05002030050020551F0A08172838B59D
:101FEC0004460D460AD8FF2908D0FFF7B5FF28B1E3
:101FFC0029462046BDE83840FFF718BA38BD38B539
:10200C0004460D46FFF71AFAFF2810D0062804D80C
:10201C004D2323FA00F0C30709D42046FFF79CFF99
:10202C0028B129462046BDE83840FFF70FBA38BD25
:10203C0010B50446FFF702FA031FDBB2012B08D9D7
:10204C002046FFF789FF20B12046BDE81040FFF77E
:10205C0005BA002010BD0000002307B51A4619462A
:10206C0000930348FFF71EFD03B05DF804FB00BFAF
:10207C004005002070470000002370B520254380E8
:10208C001423084E044603803146856005612846BA
:10209C0000F030F831466060284600F02BF8E06024
:1020AC00204670BDC0230A0830B50E4D87B0297884
:1020BC00BFF35B8F11F0010411D12846FDF7E9FF46
:1020CC0068B101A8FFF7D8FF214601AA0648FFF71F
:1020DC0061FE2846FDF7E2FF044800F00DF80248C7
:1020EC0007B030BD580500205C05002081200A088F
:1020FC00FDF7CDBFFDF7C9BF002301461A461846B0
:10210C0000F042B80A44914200F1FF3300D170470D
:10211C0010B511F8014B914203F8014FF9D110BDE4
:10212C0003460244934200D1704703F8011BF9E7C0
:10213C0038B50D4B04461D68AB6B7BB91820FFF707
:10214C000BFB0A4A0A4BA863C0E90023094B012286
:10215C0083600B2383810023C0E904230022AB6B33
:10216C001C615A6138BD00BF100000200E33CDAB8E
:10217C0034126DE6ECDE0500034613F8012B002A41
:10218C00FBD1181A013870472DE9F843DFF8BC80F1
:10219C000646D8F800001F460D46914600F058F848
:1021AC00264B1C6834B9264C1C60264B13B11B689B
:1021BC00C4F8883063681F2B07DDD8F8000000F0E6
:1021CC0049F84FF0FF30BDE8F8835EB3D4F88800CF
:1021DC0088B91D4B23B9D8F8000000F03AF8F0E7A5
:1021EC004FF48470FFF7B8FA0028F4D00023C0E94C
:1021FC004033C4F8880001226368022E40F8239013
:10220C0002FA03F200EB8301D0F8003143EA020337
:10221C00C0F80031C1F8807002BFD0F804311A4305
:10222C00C0F804216368D8F800005A1C02336260BD
:10223C0044F8235000F00EF80020C4E7FC05002001
:10224C00700500200000000065170A0874000020CB
:10225C0070477047704700001D000A085D000A08AF
:10226C0085000A0889000A08000000002C01000003
:10227C0018000000F40100002C01000050000000C8
:10228C006170700025592D256D2D25645425483A13
:10229C00254D3A2553257A0061736374696D650089
:1022AC000000000000000000111A0A08011A0A08B8
:1022BC00031A0A080000000000000000CF1A0A08E8
:1022CC00351B0A080D1B0A08D9170A08FF1A0A0839
:1022DC00D11A0A08E11A0A082F1B0A08F11A0A086F
:1022EC00C91A0A0800000000000000005D1C0A0862
:1022FC00C71C0A08A31C0A08D9170A08731C0A0869
:10230C008F1C0A08811C0A089D1C0A085F1C0A08FD
:10231C00651C0A080000000000000000491D0A08A6
:10232C00931D0A086B1D0A084B1D0A08731D0A0829
:10233C007B1D0A08831D0A088B1D0A08000000007B
:10234C00000000005B1E0A08511E0A08471E0A08FE
:10235C00C51D0A0865180A083B1E0A08B91E0A089A
:10236C00C11E0A082F1E0A08271E0A081D1E0A086D
:10237C00131E0A08CF1D0A08000000000000000010
:10238C00791E0A08831E0A088D1E0A08971E0A0861
:10239C00A11E0A08AD1E0A08B91E0A08C11E0A08A9
:1023AC00C91E0A08D51E0A08DD1E0A08E71E0A08FF
:1023BC00F11E0A08000000005D010A0819140A0841
:1023CC00B5170A0871180A0881180A0895180A081E
:1023DC00651E0A08411F0A0865200A080000000053
:0423EC0000000000ED
:0423F00000000000E9
:1023F400020000000200000004000000A4220A08F9
:102404001400002000000000000000000000000094
:1024140000000000000000000000000000000000B8
:1024240000000000000000000000000000000000A8
:102434000000000000000000000000000000000098
:102444000000000000000000000000000000000088
:102454000000000000000000000000000000000078
:08246400000000000106002049
:10246C00FFFFFFFF00000102030405060708090A2D
:10247C000B0C0D0E0F101112131415161718191A28
:08248C001B1C1D1E1F2028006F
:042494007856341230
:04000005080A001CC9
:00000001FF
