:02000004080AE8
:1000000000000A08943B0A080000060006000501EB
:080010000402FD0800000000DD
:04001800EC370A08AF
:1000200009480A4908B5884205D0094A824202D0E7
:10003000121A03F07FFA0748074A0021121A03F048
:1000400087FA064808BD00BF00000020F43A0A08FD
:1000500078000020780000202906002029060020D2
:1000600070B501F0D3FF0025054E064CA41BA40873
:10007000A54200D170BD56F8043B98470135F7E71B
:10008000C83A0A08EC3A0A0800F074B808B500F05B
:10009000C7F8BDE8084001F071BF01F01DBD01F0D7
:1000A0001BBD01F021BD0078B0FA80F04009704717
:1000B000012303707047000008B501F081FE024B78
:1000C0001860012008BD00BF8000002010B51A494B
:1000D000044601F063FE20B100220120174B1A7084
:1000E00010BD2046164901F059FE18B10120134BEE
:1000F0001870F5E72046134901F050FE20B10222A6
:100100000E4B01201A70EBE720460F4901F046FE26
:1001100020B10322094B01201A70E1E702F03CFBF9
:100120000A4901F078FE02F037FB216801F086FEF3
:100130004FF0FF30D4E700BF00380A080800002065
:1001400005380A0809380A080E380A0817380A0854
:1001500013B50446054B00221B7805498DF8003085
:100160003C2302F0D3F8204602B010BD7C000020F2
:100170000E380A0810B5154800F098F9144C002301
:1001800002221449144801F07FFC00230222134983
:10019000134801F079FC2046124A134901F0C3FFCD
:1001A000124A1349204601F0BEFF02F0F5FA4FF45F
:1001B000165102F0D7FA0121072002F025FDBDE813
:1001C000104000210A2002F01FBD00BF980000204F
:1001D000FB200A08B000002026380A088000002012
:1001E00033380A0840380A08CD000A0848380A0897
:1001F000B9000A0838B5046805467CB16368013B5C
:1002000063605BB9236820469B689847A368013BFD
:10021000A3601BB923682046DB689847284638BD91
:1002200000222DE9F04F114687B0FF2001F068FA57
:100230000022FF218046104601F062FA002181462B
:10024000FF22084601F05CFA6F4C824621780029B3
:1002500040F08C8002466D4801F00EFA6B4800F0C9
:100260005BF90121072002F0E0FC0A2001F02CFEDE
:100270000A2002F0F3FC664E664F3060A0F51B705A
:1002800002F0AAFE5EA3D3E9002303F039F803F0DD
:100290001FF900213860072002F0C7FC02F07CFA49
:1002A00035688346002D7BDA2D2101F0B8FD6942C7
:1002B0000A22584601F0CCFD02F06EFA564901F0D0
:1002C000AAFD02F069FA3D688346002D6ADA2D2105
:1002D00001F0A5FD69420A22584601F0B9FD02F07D
:1002E0005BFA4D4901F097FD02F056FA0A22217897
:1002F00001F0AEFD02F050FA484901F09FFD4FF4C5
:100300007A7001F0E1FD3968454F0A2202A801F038
:1003100032FD444D02A9384601F014FD02A801F057
:100320007DFC2B680A2B3FDD3F4B40491B7802A820
:100330008DF800303A683C2301F0E8FF03A8FFF78E
:1003400059FF00232B603368B3F5617F2FDA022356
:1003500023702178002939D152462C4801F08CF9BC
:100360002A4800F0D9F807B0BDE8F08F012905D17F
:100370004A460021254801F07FF96FE7022905D19F
:1003800042460021214801F077F967E703297FF40D
:1003900065AF02A8FFF7DCFE03A8FFF72BFF5DE7C0
:1003A000294685E7294696E701332B60CBE7A3F280
:1003B000A3323A2A02D800232370CAE740F2DD3282
:1003C0009342CCBF032301232370C2E7012905D147
:1003D0004A4600210D4801F04FF9C1E7022905D135
:1003E00042460021094801F047F9B9E70329B7D18E
:1003F00002A8FFF7ADFE03A8FFF7FCFEB0E700BFC1
:10040000CDCCCCCCCCCC28400800002098000020DB
:10041000AC000020B000002051380A0853380A0808
:1004200088000020840000207C00002055380A0845
:10043000002208B5084B09491A70094B094A1B7874
:1004400009881278084800F056F8BDE808400749C6
:10045000074801F02DBC00BF7C00002000000020F8
:1004600078000020040000209800002025380A08A9
:100470008800002038B50446C0680D4608B101F078
:1004800033FBA379062B0CBF04200320684380B202
:10049000A08001F021FBE06028B10021A28803F0D8
:1004A00057F8658038BDA0806080FBE710B5044632
:1004B0000121C07902F0A8FB0021E07902F0B5FB30
:1004C0000123237010BD38B5037805460C461BB1D7
:1004D0000021C07902F098FB2B78EC7153B1A4B2E3
:1004E0002046012102F090FB2046BDE83840002163
:1004F00002F09BBB38BD70B50025044616468371DB
:10050000C0E9035505700572FFF7B4FF2046314678
:10051000FFF7D9FF204670BDC368002B00F041846F
:10052000F0B583790446023BDBB2042B8CBF322545
:10053000284A87B098BF52F8235001F027F9236961
:10054000C01AA842F9D372B6A388A579ADF80A30CB
:10055000BDF80A30022DE1689BB200F06E82072DD3
:1005600000F06B82062D00F01D84052D00F0A183A4
:10057000082D00F09E83002D40F04F85002B00F0E9
:1005800092834FF40006144A0496BDF80A300331F2
:10059000033B9BB2ADF80A3011F8033CDBB28DF897
:1005A000073011F8023CDBB28DF8063011F8013C3F
:1005B000DBB28DF808309DF807709DF806309DF885
:1005C00008001B0243EA0743034303938DF80550D9
:1005D0001BE100BF60380A08B4000020004600BFDD
:1005E00000BF00BF00BF00BF00BF00BF00BF00BF13
:1005F00000BF00BF00BF00BF00BF00BF00BF00BF03
:1006000000BF00BF00BF00BF00BF00BF00BF00BFF2
:1006100000BF00BF00BF00BF00BF00BF00BF00BFE2
:1006200000BF00BF00BF00BF00BF00BF00BF00BFD2
:1006300000BF00BF00BF00BF00BF00BF00BF00BFC2
:1006400000BF00BF00BF00BF00BF00BF00BF00BFB2
:1006500000BF00BF00BF00BF00BF00BF00BF00BFA2
:1006600000BF00BF00BF00BF00BF00BF00BF00BF92
:1006700000BF00BF00BF00BF00BF00BF00BF00BF82
:1006800000BF00BF00BF00BF00BF00BF00BF00BF72
:1006900000BF00BF00BF00BF00BF00BF00BF00BF62
:1006A00000BF00BF00BF00BF00BF00BF00BF00BF52
:1006B00000BF00BF00BF00BF00BF00BF00BF00BF42
:1006C00000BF00BF00BF00BF00BF00BF00BF00BF32
:1006D00000BF00BF00BF00BF00BF00BF00BF00BF22
:1006E00000BF00BFE3791068C3EBC30300EB8307CF
:1006F000BF8850F823305F83004600BF00BF00BFB3
:1007000000BF00BF00BF00BF00BF00BF00BF00BFF1
:1007100000BF00BF00BF00BF00BF00BF00BF00BFE1
:1007200000BF00BF00BF00BF00BF00BF00BF00BFD1
:1007300000BF00BF00BF00BF00BF00BF00BF00BFC1
:1007400000BF00BF00BF00BF00BF00BF00BF00BFB1
:1007500000BF00BF00BF00BF00BF00BF00BF00BFA1
:1007600000BF00BF00BF00BF00BF00BF00BF00BF91
:1007700000BF00BF00BF00BF00BF00BF00BF00BF81
:1007800000BF00BF00BF00BF00BF00BF00BF00BF71
:1007900000BF00BF00BF00BF00BF00BF00BF00BF61
:1007A00000BF00BF00BF00BF00BF00BF00BF00BF51
:1007B00000BF00BF00BF00BF00BF00BF00BF00BF41
:1007C00000BF00BF00BF00BF00BF00BF00BF00BF31
:1007D00000BF00BF00BF00BF00BF00BF00BF00BF21
:1007E00000BF00BF00BF00BF00BF00BF00BF00BF11
:1007F00000BF049B5B0804939DF805300133DBB216
:10080000172B8DF8053000F22787E3791068C3EBCA
:10081000C30300EB8307BF8850F823301F8303987E
:10082000049B18427FF4DAAE004600BF00BF00BF51
:1008300000BF00BF00BF00BF00BF00BF00BF00BFC0
:1008400000BF00BF00BF00BF00BF00BF00BF00BFB0
:1008500000BF00BF00BF00BF00BF00BF00BF00BFA0
:1008600000BF00BF00BF00BF00BF00BF00BF00BF90
:1008700000BF00BF00BF00BF00BFE3791068C3EB3B
:10088000C30300EB8307BF8850F823305F83004623
:1008900000BF00BF00BF00BF00BF00BF00BF00BF60
:1008A00000BF00BF00BF00BF00BF00BF00BF00BF50
:1008B00000BF00BF00BF00BF00BF00BF00BF00BF40
:1008C00000BF00BF00BF00BF00BF00BF00BF00BF30
:1008D00000BF00BF00BF00BF00BF00BF00BF00BF20
:1008E00000BF00BF00BF00BF00BF00BF00BF00BF10
:1008F00000BF00BF00BF00BF00BF00BF00BF00BF00
:1009000000BF00BF00BF00BF00BF00BF00BF00BFEF
:1009100000BF00BF00BF00BF00BF00BF00BF00BFDF
:1009200000BF00BF00BF00BF00BF00BF00BF00BFCF
:1009300000BF00BF00BF00BF00BF00BF00BF00BFBF
:1009400000BF00BF00BF00BF00BF00BF00BF00BFAF
:1009500000BF00BF00BF00BF00BF00BF00BF00BF9F
:1009600000BF00BF00BF00BF00BF00BF00BF00BF8F
:1009700000BF00BF00BF00BF00BF00BF00BF00BF7F
:1009800000BF00BF00BF00BF00BF00BF00BF00BF6F
:1009900000BF00BF00BF00BF00BF00BF00BF00BF5F
:1009A00000BF00BF00BF00BF00BF00BF00BF00BF4F
:1009B00000BF00BF00BF00BF00BF00BF00BF00BF3F
:1009C00000BF00BF00BF00BF00BF00BF00BF00BF2F
:1009D00000BF00BF00BF00BF00BF00BF00BF00BF1F
:1009E00000BF00BF00BF00BF00BF00BF00BF00BF0F
:1009F00000BF00BF00BF00BF00BF00BF00BF00BFFF
:100A000000BF00BF00BF00BF00BF00BF00BF00BFEE
:100A100000BF00BF00BF00BF00BF00BF00BF00BFDE
:100A200000BF00BF00BF00BF00BF00BF00BF00BFCE
:100A300000BF00BF00BF00BFDBE6002B00F033812A
:100A40004FF400050026134A0495BDF80A3003311F
:100A5000033B9BB2ADF80A3011F8033CDBB28DF8D2
:100A6000063011F8023CDBB28DF8073011F8013C7A
:100A7000DBB28DF808309DF806709DF807309DF8C0
:100A800008001B0243EA0743034303938DF8056004
:100A900080E000BFB4000020004600BF00BF00BFE0
:100AA00000BF00BF00BF00BF00BF00BF00BF00BF4E
:100AB00000BF00BF00BF00BF00BF00BF00BF00BF3E
:100AC00000BF00BF00BF00BF00BF00BF00BF00BF2E
:100AD00000BF00BF00BF00BF00BF00BF00BF00BF1E
:100AE00000BF00BF00BF00BF00BF00BF00BF00BF0E
:100AF00000BF00BF00BF00BF00BF00BF00BF00BFFE
:100B000000BF00BF00BF00BF00BF00BF00BF00BFED
:100B100000BF00BF00BF00BF00BF00BF00BF00BFDD
:100B200000BF00BF00BF00BF00BF00BF00BF00BFCD
:100B300000BFE3791068C3EBC30300EB8307BF88F2
:100B400050F823305F83004600BF00BF00BF00BFE6
:100B500000BF00BF00BF00BF00BF00BF00BF00BF9D
:100B600000BF00BF00BF00BF00BF00BF00BF00BF8D
:100B700000BF00BF00BF00BF00BF00BF049B5B08F9
:100B800004939DF805300133DBB2172B8DF8053047
:100B900000F28380E3791068C3EBC30300EB8307A3
:100BA000BF8850F823301F830398049B18427FF4BA
:100BB00073AF004600BF00BF00BF00BF00BF00BF53
:100BC00000BF00BF00BF00BF00BF00BF00BF00BF2D
:100BD00000BF00BF00BF00BF00BFE3791068C3EBD8
:100BE000C30300EB8307BF8850F823305F830046C0
:100BF00000BF00BF00BF00BF00BF00BF00BF00BFFD
:100C000000BF00BF00BF00BF00BF00BF00BF00BFEC
:100C100000BF00BF00BF00BF00BF00BF00BF00BFDC
:100C200000BF00BF00BF00BF00BF00BF00BF00BFCC
:100C300000BF00BF00BF00BF00BF00BF00BF00BFBC
:100C400000BF00BF00BF00BF00BF00BF00BF00BFAC
:100C500000BF00BF00BF00BF00BF00BF00BF00BF9C
:100C600000BF00BF00BF00BF00BF00BF00BF00BF8C
:100C700000BF00BF00BF00BF00BF00BF00BF00BF7C
:100C800000BF00BF00BF00BF00BF00BF00BF00BF6C
:100C900000BF00BF00BF00BF70E7BDF80A309BB2C5
:100CA000002B7FF4D1AE62B600F070FD206107B07A
:100CB000F0BD002BF7D04FF4000E0026544B1868FF
:100CC000544BCDF810E0BDF80A200331033A92B23C
:100CD000ADF80A2011F8032CD2B28DF8062011F8D5
:100CE000022CD2B28DF8072011F8012CD2B28DF867
:100CF00008209DF806C09DF807209DF80870120294
:100D000042EA0C423A4303928DF80560E2795D684D
:100D1000C2EBC20200EB8207BF8850F82220059583
:100D20001783039F049A174225D05A68059FD21B48
:100D30004F2AFAD9E279C2EBC20200EB8207BF88E0
:100D400050F8222057835A6805925A68059FD21B93
:100D5000072AFAD9049A520804929DF80520013214
:100D6000D2B2172A8DF80520D0D9BDF80A2092B248
:100D7000002AA6D197E75A68059FD21B182AFAD9EC
:100D8000E279C2EBC20200EB8207BF8850F8222052
:100D900057835A6805925A68059FD21B452AFAD98B
:100DA000D8E77047002B3FF47EAF4FF00045002698
:100DB000174A0495BDF80A300431043B9BB2ADF8E4
:100DC0000A3011F8043CDBB28DF8073011F8033C0F
:100DD000DBB28DF8063011F8023CDBB28DF808303A
:100DE00011F8013CDBB28DF809309DF807C09DF881
:100DF00006309DF808001B049DF8097043EA0C6357
:100E00003B4343EA002303938DF805607FE000BF76
:100E1000B4000020001000E0004600BF00BF00BF8B
:100E200000BF00BF00BF00BF00BF00BF00BF00BFCA
:100E300000BF00BF00BF00BF00BF00BF00BF00BFBA
:100E400000BF00BF00BF00BF00BF00BF00BF00BFAA
:100E500000BF00BF00BF00BF00BF00BF00BF00BF9A
:100E600000BF00BF00BF00BF00BF00BF00BF00BF8A
:100E700000BF00BF00BF00BF00BF00BF00BF00BF7A
:100E800000BF00BF00BFE3791068C3EBC30300EBF2
:100E90008307BF8850F823305F83004600BF00BF40
:100EA00000BF00BF00BF00BF00BF00BF00BF00BF4A
:100EB00000BF00BF00BF00BF00BF00BF00BF00BF3A
:100EC00000BF00BF00BF00BF00BF00BF00BF00BF2A
:100ED00000BF00BF00BF00BF00BF00BF00BF00BF1A
:100EE00000BF00BF00BF00BF00BF00BF00BF00BF0A
:100EF00000BF00BF00BF00BF049B5B0804939DF8C8
:100F000005300133DBB21F2B8DF805307ED8E37935
:100F10001068C3EBC30300EB8307BF8850F823308E
:100F20001F830398049B18427FF476AF004600BFEE
:100F300000BF00BF00BF00BF00BF00BF00BF00BFB9
:100F400000BF00BF00BF00BF00BF00BF00BF00BFA9
:100F500000BF00BFE3791068C3EBC30300EB830756
:100F6000BF8850F823305F83004600BF00BF00BF3A
:100F700000BF00BF00BF00BF00BF00BF00BF00BF79
:100F800000BF00BF00BF00BF00BF00BF00BF00BF69
:100F900000BF00BF00BF00BF00BF00BF00BF00BF59
:100FA00000BF00BF00BF00BF00BF00BF00BF00BF49
:100FB00000BF00BF00BF00BF00BF00BF00BF00BF39
:100FC00000BF00BF00BF00BF00BF00BF00BF00BF29
:100FD00000BF00BF00BF00BF00BF00BF00BF00BF19
:100FE00000BF00BF00BF00BF00BF00BF00BF00BF09
:100FF00000BF00BF00BF00BF00BF00BF00BF00BFF9
:1010000000BF00BF00BF00BF00BF75E7BDF80A30DA
:101010009BB2002B7FF4CDAE45E6032D00F02B8173
:10102000002B3FF440AE4FF400050026174A04950C
:10103000BDF80A30E079033B9BB2ADF80A300B787B
:101040001768DBB28DF807304B78C0EBC000DBB21D
:101050008DF808308B7807EB800CDBB28DF806300A
:101060009DF807E09DF80830BCF804C01B0243EA75
:101070000E439DF806E057F8200043EA0E03039361
:1010800003318DF80560A0F81AC07CE0B4000020A0
:10109000049B5B080493004600BF00BF00BF00BF75
:1010A00000BF00BF00BF00BF00BF00BF00BF00BF48
:1010B00000BF00BF00BF00BF00BF00BF00BF00BF38
:1010C00000BF00BF00BF00BF00BF00BF00BF00BF28
:1010D00000BF00BF00BF00BF00BF00BF00BF00BF18
:1010E00000BF00BF00BF00BF00BF00BF00BF00BF08
:1010F00000BF00BF00BF00BF00BF00BF00BF00BFF8
:1011000000BF00BF00BF00BF00BF00BF00BF00BFE7
:1011100000BF00BF00BF00BF00BF00BFE07917687D
:101120009DF80530C0EBC00007EB800CBCF804C094
:1011300057F820000133DBB28DF80530A0F818C055
:10114000004600BF00BF00BF00BF00BF00BF00BF20
:1011500000BF00BF00BF00BF00BF00BF00BF00BF97
:1011600000BF00BF00BF00BF00BF9DF80530182BB7
:101170007AD0E3791068C3EBC30300EB8307BF8821
:1011800050F823305F830398049B184280D10046B7
:1011900000BF00BF00BF00BF00BF00BF00BF00BF57
:1011A00000BF00BF00BF00BF00BF00BF00BF00BF47
:1011B000E3791068C3EBC30300EB8307BF8850F8E3
:1011C00023301F839DF805300133DBB28DF80530E5
:1011D000049B5B080493004600BF00BF00BF00BF34
:1011E00000BF00BF00BF00BF00BF00BF00BF00BF07
:1011F00000BF00BF00BF00BF00BF00BF00BF00BFF7
:1012000000BF00BF00BF00BF00BF00BF00BF00BFE6
:1012100000BF00BF00BF00BF00BF00BF00BF00BFD6
:1012200000BF00BF00BF00BF00BF00BF00BF00BFC6
:1012300000BF00BF00BF00BF00BF00BF00BF00BFB6
:1012400000BF00BF00BF00BF00BF00BF00BF00BFA6
:1012500000BF00BF00BF00BF00BF00BF00BF00BF96
:101260009DF80530182B84D1BDF80A309BB2002BB5
:101270007FF4DDAE17E5002B3FF415AD4FF400050C
:101280000026134A0495BDF80A300331033B9BB294
:10129000ADF80A3011F8033CDBB28DF8073011F8D5
:1012A000023CDBB28DF8063011F8013CDBB28DF860
:1012B00008309DF807709DF806309DF808001B0265
:1012C00043EA0743034303938DF80560E1E000BF61
:1012D000B4000020004600BF00BF00BF00BF00BF39
:1012E00000BF00BF00BF00BF00BF00BF00BF00BF06
:1012F00000BF00BF00BF00BF00BF00BF00BF00BFF6
:1013000000BF00BF00BF00BF00BF00BF00BF00BFE5
:1013100000BF00BF00BF00BF00BF00BF00BF00BFD5
:1013200000BF00BF00BF00BF00BF00BF00BF00BFC5
:1013300000BF00BF00BF00BF00BF00BF00BF00BFB5
:1013400000BF00BF00BF00BF00BF00BF00BF00BFA5
:1013500000BF00BF00BF00BF00BF00BF00BF00BF95
:1013600000BF00BF00BF00BF00BF00BF00BF00BF85
:1013700000BF00BF00BF00BF00BF00BF00BF00BF75
:1013800000BF00BF00BF00BF00BF00BF00BF00BF65
:1013900000BF00BF00BF00BF00BF00BF00BF00BF55
:1013A00000BF00BF00BF00BF00BF00BF00BF00BF45
:1013B00000BF00BF00BF00BF00BF00BF00BF00BF35
:1013C00000BF00BF00BF00BF00BF00BF00BF00BF25
:1013D00000BF00BF00BF00BF00BF00BF00BF00BF15
:1013E00000BF00BF00BF00BF00BF00BF00BF00BF05
:1013F00000BF00BF00BFE3791068C3EBC30300EB7D
:101400008307BF8850F823305F83004600BF00BFCA
:1014100000BF00BF00BF00BF00BF00BF00BF00BFD4
:1014200000BF00BF00BF00BF00BF00BF00BF00BFC4
:1014300000BF00BF00BF00BF00BF00BF00BF00BFB4
:1014400000BF00BF00BF00BF00BF00BF00BF00BFA4
:1014500000BF00BF00BF00BF00BF00BF00BF00BF94
:1014600000BF00BF00BF00BF00BF00BF00BF00BF84
:1014700000BF00BF00BF00BF00BF049B5B08049318
:101480009DF805300133DBB2172B8DF8053000F2E3
:10149000EB80E3791068C3EBC30300EB8307BF88DD
:1014A00050F823301F830398049B18427FF412AF37
:1014B000004600BF00BF00BF00BF00BF00BF00BFAD
:1014C00000BF00BF00BF00BF00BF00BF00BF00BF24
:1014D00000BF00BF00BF00BF00BF00BF00BF00BF14
:1014E00000BF00BF00BF00BF00BF00BF00BF00BF04
:1014F00000BF00BF00BF00BF00BF00BF00BF00BFF4
:1015000000BF00BF00BF00BF00BF00BF00BF00BFE3
:1015100000BF00BF00BF00BF00BF00BF00BF00BFD3
:1015200000BF00BF00BF00BF00BF00BF00BF00BFC3
:1015300000BFE3791068C3EBC30300EB8307BF88E8
:1015400050F823305F83004600BF00BF00BF00BFDC
:1015500000BF00BF00BF00BF00BF00BF00BF00BF93
:1015600000BF00BF00BF00BF00BF00BF00BF00BF83
:1015700000BF00BF00BF00BF00BF00BF00BF00BF73
:1015800000BF00BF00BF00BF00BF00BF00BF00BF63
:1015900000BF00BF00BF00BF00BF00BF00BF00BF53
:1015A00000BF00BF00BF00BF00BF00BF00BF00BF43
:1015B00000BF00BF00BF00BF00BF00BF00BF00BF33
:1015C00000BF00BF00BF00BF00BF00BF00BF00BF23
:1015D00000BF00BF00BF00BF00BF00BF00BF00BF13
:1015E00000BF00BF00BF00BF00BF00BF00BF00BF03
:1015F00000BF00BF00BF00BF00BF00BF00BF00BFF3
:1016000000BF00BF00BF00BF00BF00BF00BF00BFE2
:1016100000BF00BF00BF00BF00BF00BF00BF00BFD2
:1016200000BF00BF00BF00BF00BF00BF00BF00BFC2
:1016300000BF00BF00BF00BF00BF00BF00BF00BFB2
:1016400000BF00BF00BF00BF00BF00BF00BF00BFA2
:1016500000BF00BF00BF10E7BDF80A309BB2002BEF
:101660007EF492AFFFF71FBBBDF80A309BB2002B90
:101670007FF408AEFFF717BB4388F0B58B4226D93D
:10168000057AC2F30743C2F30724D6B23DB16B43D8
:101690006C436E43C3F30723C4F30724360A90F860
:1016A00006C0C768BCF1060F0CBF042503256943BB
:1016B000ACF1020C7D18BCF1060F1DD8DFE80CF070
:1016C000041C08040F0404007C546B70AE70F0BD61
:1016D000FE2B28BFFE237B546E70AC70F7E77B5463
:1016E0006C70AE70037A120E13B9D2B2EA70EEE7E4
:1016F0005A43C2F30722F9E77B546C70AE70E6E7F9
:1017000042EA012242EA00407047000008B500F0BA
:1017100005F8014B186008BDB400002008B5024B65
:101720001B681B68019308BDB001060808B5024B91
:101730001B685B68019308BDB001060808B5024B41
:101740001B689B68019308BDB001060808B5024BF1
:101750001B68DB68019308BDB001060808B5024BA1
:101760001B681B69019308BDB001060808B5024B50
:101770001B681B6B019308BDB001060808B5024B3E
:101780001B685B68019308BD9C01060808B5024B05
:101790001B681B69019308BD9C01060808B5024B34
:1017A0001B685B69019308BD9C01060808B5024BE4
:1017B0001B685B6C019308BDD001060808B5024B9D
:1017C0001B689B6C019308BDD001060808B5024B4D
:1017D0001B689B69019308BDC401060808B5024B4C
:1017E0001B685B6A019308BDC401060808B5024B7B
:1017F0001B689B6A019308BDC401060808B5024B2B
:101800001B68DB6A019308BDC401060808B5024BDA
:101810001B681B6B019308BDC401060808B5024B89
:101820001B685B6B019308BDC401060808B5024B39
:101830001B689B6B019308BDC401060808B5024BE9
:101840001B681B6C019308BDC401060808B5024B58
:101850001B681B6E019308BDAC01060808B5024B5E
:101860001B685B6E019308BDAC01060808B5024B0E
:101870001B689B6E019308BDAC01060808B5024BBE
:101880001B68DB6E019308BDAC01060808B5024B6E
:101890001B681B6F019308BDAC01060808B5024B1D
:1018A0001B685B6F019308BDAC01060808B5034BCC
:1018B0001B68D3F88030019308BD0000AC01060816
:1018C00008B5024B1B68DB69019308BDB40106082B
:1018D00008B5024B1B681B6A019308BDB4010608DA
:1018E00008B5024B1B681B68019308BDD8010608A8
:1018F00008B5024B1B685B68019308BDD801060858
:1019000008B5024B1B681B69019308BDD801060886
:1019100008B5024B1B685B69019308BDD801060836
:1019200008B5024B1B689B69019308BDD8010608E6
:1019300008B5024B1B68DB69019308BDD801060896
:1019400008B5024B1B681B6A019308BDD801060845
:1019500008B5024B1B689B6C019308BDC0010608CB
:1019600008B5024B1B685B68019308BDA40106081B
:1019700008B5024B1B685B69019308BDA40106080A
:1019800008B5024B1B68DB6C019308BDA401060877
:1019900008B5024B1B685B6D019308BDA4010608E6
:1019A00008B5034B1B68D3F89030019308BD0000C5
:1019B000A401060808B5034B1B68D3F89C300193BB
:1019C00008BD0000A401060808B5024B1B685B684F
:1019D000019308BDC801060808B5024B1B689B6847
:1019E000019308BDC801060808B5024B1B68DB68F7
:1019F000019308BDC801060808B5024B1B681B69A6
:101A0000019308BDC801060808B5024B1B685B6955
:101A1000019308BDC801060808B5024B1B689B6905
:101A2000019308BDC801060808B5024B1B68DB69B5
:101A3000019308BDC801060808B5024B1B681B6A64
:101A4000019308BDC801060808B5024B1B681B6B53
:101A5000019308BDC801060808B5024B1B685B6B03
:101A6000019308BDC801060808B5024B1B681B6C32
:101A7000019308BDC801060808B5024B1B685B6CE2
:101A8000019308BDC801060808B5024B1B681B6816
:101A9000019308BDCC01060808B5024B1B685B68C2
:101AA000019308BDCC01060808B5024B1B685B69B1
:101AB000019308BDCC01060808B5024B1B681B6AE0
:101AC000019308BDCC01060808B5024B1B68DB6B0F
:101AD000019308BDCC01060808B5024B1B681B68C2
:101AE000019308BDA001060808B5024B1B685B689E
:101AF000019308BDA001060808B5024B1B689B684E
:101B0000019308BDA001060808B5024B1B68DB6AFB
:101B1000019308BDA001060808B5024B1B681B6BAA
:101B2000019308BDA001060808B5024B1B685B6C59
:101B3000019308BDA001060870B5002604460D46B5
:101B400040F8086FFFF732FE28462570FFF7B8FE11
:101B50002046666070BD000002220020044B1A601F
:101B6000044B054A1860988098719A60FFF7F8BE98
:101B7000C4000020B80000200000FFFF10B504469C
:101B800001F03FFD431E20462344834206D90278DC
:101B9000197800F8011B03F80129F6E710BD70B5AC
:101BA0000C46911E222922D8254668B1B0FBF2F6D8
:101BB00002FB1600C1B2092894BF30315731C9B2B7
:101BC000304605F8011BF0E72A46302123449342B2
:101BD00002D902F8011BFAE75A1BAB4238BF0022B8
:101BE00000232046AB54FFF7C9FF204670BD0020FC
:101BF000FCE738B5031E0C4615460DDA2D22B3F16D
:101C0000004F0CBF1846584201230A702A46194457
:101C1000FFF7C5FF204638BD0123F9E710B504469C
:101C20000068FFF761FF204610BD10B5044600684C
:101C300008B1FFF759FF0023C4E90133236010BD49
:101C400038B504460D4600680131FFF755FF10B165
:101C5000C4E90005012038BD10B50368044623B16E
:101C600043688B4201D3012010BD2046FFF7E8FFF7
:101C70000028F9D0A368002BF5D122681370F2E791
:101C800070B50E46114604461546FFF7E5FF20B92C
:101C90002046FFF7CAFF204670BD2A46314620681D
:101CA000A56001F047FC00212268A368D154F2E747
:101CB00038B5002304460D46C0E900338360037342
:101CC00039B1084601F09DFC294602462046FFF73F
:101CD000D7FF204638BD38B5054600680C4668B1C8
:101CE0006A688B689A4207D3096801F067FCA368A9
:101CF000AB600023A36038BDFFF7F6FE23682B60BE
:101D000063686B60A368AB600023C4E90033F1E74C
:101D1000884210B50B46044604D0096821B19A6880
:101D2000FFF7AEFF204610BDFFF77FFFFAE7002365
:101D300010B50446C0E9003383600373FFF7E8FF82
:101D4000204610BD884210B5044601D0FFF7C3FFFE
:101D5000204610BD38B505460C4649B1084601F08D
:101D600050FC214602462846FFF78AFF284638BD28
:101D7000FFF75BFFFAE710B5002304468AB0C4E919
:101D80000033A3602373084601A9FFF732FF204602
:101D900001A9FFF7DFFF20460AB010BD08B5826831
:101DA0003AB921B10878B0FA80F0400900E001208A
:101DB00008BD006809B90078F5E701F0F5FBF2E726
:101DC000006808B101F0B2BB7047F8B506460D4691
:101DD00000248F18BD420CD0336830469B6815F83C
:101DE000011B9847031E01DB1C44F3E7002C08BFCE
:101DF0001C462046F8BD70B505460C46084649B15C
:101E000001F0FFFB2B68024621462846BDE87040E2
:101E1000DB68184770BD08B5FFF7EDFF08BD036824
:101E20009B68184738B50D210546FFF7F8FF0A21D2
:101E300004462846FFF7F3FF204438BD38B5054671
:101E4000FFF7D9FF04462846FFF7ECFF204438BDD2
:101E50000023012A98BF0A2230B58BB00C468DF8BA
:101E6000243009A92546B4FBF2F404FB1253DBB27B
:101E7000092B94BF30333733DBB2AA4201F8013D5E
:101E8000F0D9FFF7B8FF0BB030BD002340681A4609
:101E90001946FFF7B9BD0B68036013B15A680132E8
:101EA0005A607047014B024A1A607047C800002010
:101EB00074380A08024B1A68024B1A60704700BF58
:101EC0000C000020CC0000200021FFF751BD10B510
:101ED0008368044613B1032201469847204610BD8B
:101EE00013B56C460B46024603C884E8030093E82A
:101EF000030082E8030094E8030083E8030002B0D3
:101F000010BD00000022014B9A607047D0000020F5
:101F1000014B1860704700BF1000002008B5134B3C
:101F200043B100F039FC03681B699847002801DDC4
:101F3000AFF300800E4B43B100F0DEFC03681B6979
:101F40009847002801DDAFF300800A4B0BB1AFF3D7
:101F50000080094B43B100F059FC03681B699847A6
:101F6000002801DDAFF3008008BD00BF00000000C5
:101F700000000000000000000000000008B5FFF7AE
:101F8000CDFFFFF70BFC014B186008BD5C0500207E
:101F90000548064A08B5121A054901F0CBFA054B67
:101FA000054A1A6008BD00BF0040024004400240DC
:101FB000F03A0A08004002401E1C279A002307B589
:101FC0001A466FF077010093FFF7F4FC03B05DF859
:101FD00004FB000007B543880A2B08D0502B0BD117
:101FE000094B1B684BB103B05DF804EB1847FFF7D2
:101FF000E5FF03B05DF804FB00231A466FF077019C
:102000000093FFF7D7FCF4E7E4000020002110B5AF
:102010001148FFF789FD114B1A68114B9A420CBF0A
:10202000012200220F4B1A7001D0FFF7B1FFFFF71A
:10203000A5FB044601F094FA0B4B13B12046AFF315
:10204000008000210848FFF73FFDBDE81040002157
:102050000648FFF7A5BC00BF111F0A080040024058
:102060001E1C279AE000002000000000D51F0A086F
:1020700070470020704710B50446102100F052FE52
:10208000204610BD08B5FFF7F6FF08BD002230B5A9
:102090004FF69C74026084808D888C800C688580EB
:1020A00004600A6030BD10B504460068FFF71CFDEF
:1020B000204610BD38B5C468F4B12378022B03D193
:1020C00004F10C00FFF7EFFF656835B12846FFF714
:1020D000FEFE1021284600F025FEA56835B12846F1
:1020E000FFF7F5FE1021284600F01CFE2046BDE853
:1020F0003840142100F016BE38BD10B588B0044633
:102100006846FFF7D5FD694604A8FFF710FE04A84E
:10211000A047044604A8FFF781FD6846FFF77EFD4F
:10212000204608B010BD1FB500231024CDE90201E0
:10213000019269461A461846ADF80230ADF80040E3
:10214000FFF7AAFC04B010BD73B50E46044656F85E
:10215000043B0D4601A831460093FFF79CFE009B0F
:10216000019A23600023626001A801930093FEF7A7
:1021700041F83046FEF73EF82846082100F0D2FD2F
:10218000204602B070BD826810B50AB900F0CEFDDD
:10219000C368BDE81040184708B5006800F1100199
:1021A000FFF7F1FF08BD826810B50AB900F0BEFD67
:1021B000C368BDE81040184708B5006800F1100179
:1021C000FFF7F1FF08BD000038B5002304460360A7
:1021D00010200D46FDF761FF28B10123C0E901334E
:1021E000024BC56003602060204638BD9C380A0859
:1021F00038B5002383608B6804460D462BB102225C
:102200009847EB68E360AB68A360204638BD0000E8
:10221000F0B589B004686846FFF738FF4FF0020355
:10222000D4E84F2F002A03D1C4E8413F0029F7D159
:1022300025D104F10C0569462846FFF727FF012345
:10224000BFF35B8F63700020BFF35B8F04F1080363
:1022500053E8006F43E80002002AF9D1BFF35B8F17
:102260006EB1FFF78DFB78B129463046FFF78BFF43
:102270003046FFF72CFE1021304600F053FD684633
:10228000FFF711FF09B0F0BD314602A8FFF7B0FF1C
:10229000E068B4F9105008B101F098F906901020E8
:1022A000ADF81C50FDF7F9FE0546E8B10027876040
:1022B0001820FDF7F2FE044688B10146876002A8A7
:1022C000FFF70EFE049BA268A360059B0492E268E0
:1022D00006A9E36004F110000592FFF7D7FE084B52
:1022E0002C60EB60074BAB6006A8FFF7DCFE02A892
:1022F000FFF7EDFD002229460348FFF749FBB7E74A
:1023000099210A0831240A0841290A082DE9F047D1
:102310008AB005460C46174698469DF84890FFF748
:10232000C3FB07AE824638BB4FF62E73059005A956
:102330003046ADF81830FFF7A9FE1420FDF7ADFECA
:10234000044648B1022303700123C0E901AA437087
:1023500031460C30FFF79AFE2846214640F8044BE0
:10236000FFF732FF3046FFF79EFE05A8FFF79BFE02
:1023700028460AB0BDE8F0870C234FF0000A14206D
:10238000CDE908AA0793FDF788FE014628B1C0E908
:1023900001AA80F800A080F801A004A80391FFF72B
:1023A00013FF224B08200893FDF777FE824628B1E1
:1023B000039B04A940F8043BFFF76DFD42463946F4
:1023C000204600965FFA89F3CDF824A0FFF774FB4E
:1023D000B8B9039B5B7803F0FF0293B94FF69C7387
:1023E00005A903A80592ADF81830FFF711FF05A85D
:1023F000FFF759FE05A80999FFF7A6FE06A8FDF705
:10240000F9FE039B04A906A80593FFF744FD059B6D
:10241000069A2B6000236A6006A806930593FDF7D1
:10242000E9FE04A8FDF7E6FEA2E700BFF5240A08CE
:10243000022AF8B5054607D0032A18D0012A01D18F
:102440000B6803600020F8BD18200E68FDF725FE1C
:10245000044650B13146FFF7CBFE3069B6F914702F
:1024600008B101F0B3F82061A7822C60EAE70468A4
:10247000002CE7D004F11000FFF715FE2046FFF70F
:1024800026FD1821204600F04DFCDBE738B500237F
:1024900083608B6804460D462BB102229847EB6897
:1024A000E360AB68A360204638BD022A70B50446DD
:1024B00007D0032A12D0012A01D10B680360002043
:1024C00070BD14200E68FDF7E8FD054620B13146C9
:1024D000FFF7DCFF337C2B742560F0E70468002CE9
:1024E000EDD02046FFF7F3FC1421204600F01AFC43
:1024F000E5E70000F0B5044689B00D4601A8114695
:10250000FFF722FEA4B124B21DB1284601F05EF807
:10251000054601A803A90395ADF81040FFF778FE22
:1025200003A8FFF7C0FD02A8FDF764FE09B0F0BDE7
:102530000123019DD5E84F2F002A03D1C5E8413F73
:102540000029F7D1EFD12B73BFF35B8F6B70BFF313
:102550005B8F2B1D53E8006F43E80042002AF9D13E
:10256000BFF35B8F002EDED02046FFF709FA074647
:1025700060B1304605F10C01FFF715FE3046FFF75C
:10258000A6FC1021304600F0CDFBCCE7314603A875
:10259000FFF77CFF2B7B10208DF81C30FDF77DFDB5
:1025A0000546D0B187601420FDF777FD044678B169
:1025B0000146876003A8FFF793FC059BA268A36010
:1025C000069B0592E268E3609DF81C300692237436
:1025D000064B2C60EB60064BAB6003A8FFF777FC63
:1025E000002229460348FFF7D3F9C7E7B9210A08B3
:1025F000AB240A0841290A08704710B5044618217F
:1026000000F090FB204610BDF8B50E46002400F106
:102610000807051D17F8011D0A223046FFF718FCB0
:10262000AF42044401D12046F8BD002CF2D02E2147
:102630003046FFF7F4FB0444ECE7000010B5044615
:10264000044B1122002140F8043B00F081FF20469A
:1026500010BD00BFB8380A080346074A10B543F852
:10266000042B01F1100251F8044B914243F8044B42
:10267000F9D10A781A7010BDB8380A08024AC0E9C0
:102680000021042202757047B8380A0810B59DF879
:10269000084044EA0324042344EA024444EA01646F
:1026A0004460037510BD000037B5044D05609DF80A
:1026B00018500095FFF7EAFF03B030BDB8380A089C
:1026C000417470477047704708B50021007CFFF7E0
:1026D00027F940EAE07008BD08B50121007CFFF74A
:1026E0001FF940EAE07008BD08B5007CFFF710F95B
:1026F00020EAE07008BD08B5007CFFF701F920EA88
:10270000E07008BD38B50446007C0D46FFF700F9BF
:10271000002801DC607C28B12946207CFFF708F9FD
:1027200020EAE07038BD007CFFF70AB910B5044616
:10273000142100F0F7FA204610BD704710B54FF491
:102740007A73044608460021C4E90113044B20743F
:102750002360012311466374FFF7C2F8204610BDC1
:10276000CC380A080022007CFFF7C2B810B5044636
:102770001422002100F0ECFE054B20466360054B5F
:10278000E36040F2011323818123238210BD00BF47
:10279000180100201902002030B50E4D87B001A8A5
:1027A000FFF7E4FF2978BFF35B8F11F001040ED12E
:1027B0002846FDF778FC50B1214601AA0648FFF7EC
:1027C000BDFF2846FDF774FC044800F0A9FE02484E
:1027D00007B030BDE8000020F0000020C5260A0840
:1027E00010B504461422002100F0B2FE054B20462D
:1027F0006360054BE36040F2011323818123238250
:1028000010BD00BF9A0200209B03002010B50E4CA3
:1028100086B001A8FFF7E4FF2378BFF35B8FDB07E7
:102820000ED42046FDF73FFC50B1012101AA074814
:10283000FFF784FF2046FDF73BFC054800F070FEE3
:10284000024806B010BD00BFEC00002004010020CB
:102850003B270A08704741747047704708B5007CF1
:10286000FEF7ECFF20EAE07008BD08B5007CFEF73B
:10287000BDFF20EAE07008BD08B5007CFEF7C6FF8A
:1028800040EAE07008BD08B5007CFEF7B7FF40EAFB
:10289000E07008BD007CFEF7C1BF70B5467C044601
:1028A0000D462EB12946207CBDE87040FEF796BF4C
:1028B000007CFEF7C3FF0028F4DC304670BD10B585
:1028C0000446142100F02EFA204610BD4FF0000CF3
:1028D00010B50446084611464FF47A72C4E901C2A5
:1028E000044A20742260012262741A46FEF76EFFC9
:1028F000204610BDFC380A0838B50C4D2978BFF3C6
:102900005B8F11F001040FD12846FDF7CCFB58B1C5
:102910002146074B074A0848FFF7D8FF2846FDF72E
:10292000C7FB064800F0FCFD034838BD1C0400202E
:10293000A404002020040020280500205B280A08A9
:1029400010B5836804460BB900F0F0F9C3689847E6
:10295000A3681BB103222146204698472046BDE8C4
:102960001040102100F0DEB97047F8B50646154654
:102970000C468F18BC4206D0336830469B6814F86A
:10298000011B9847F6E72846F8BD0022007CFEF7B9
:102990005DBF0021007CFEF761BF0021007CFEF7D7
:1029A00065BF0021007CFEF769BF0021007CFEF7B7
:1029B0006DBF10B50446142100F0B4F9204610BDD7
:1029C00010B54FF47A73044608460021C4E9011398
:1029D000034B114623602074FEF768FF204610BDAC
:1029E0002C390A08002240681146FFF705B8F0B5F7
:1029F000154689B011220E460446002103A800F0B6
:102A0000A7FD284600F0FDFD002781B27368284627
:102A1000009703AAFEF79CFF30B139462046FFF726
:102A20002DFE204609B0F0BD204603A9FFF714FE95
:102A3000F7E7002240681146FEF7FEBF002240681B
:102A40001146FFF709B800224068FEF7FDBF0022DB
:102A5000406881F00101FEF7E7BF002340681A4695
:102A60001946FEF7D9BF002240681146FEF7B4BFF1
:102A7000002202214068FEF7B7BF002340681A46D3
:102A8000FEF7A2BF0422024B5A60024A1A60704746
:102A90003C05002054390A08002340681A46FEF716
:102AA00093BF002202214068FEF79EBF00224068CB
:102AB0001146FEF791BF002240681146FEF79CBF09
:102AC000002340681A461946FEF79EBF002340685F
:102AD0001A461946FEF7A0BF00214068FEF7C4BFA2
:102AE00000214068FEF7C8BF0022406881F0010164
:102AF000FEF79ABF00224068FEF7A6BF002240689A
:102B00001146FEF7A9BF002240681146FEF794BFA8
:102B100070B515468EB0044608A8FFF78FFD112248
:102B2000002103A800F014FD0026284600F069FDEE
:102B30000A4B009681B25B68284603AAFEF708FF9D
:102B400030B131462046FFF799FD20460EB070BDEA
:102B5000204603A9FFF780FDF7E700BF3C050020F2
:102B6000024B034A1A6000225A6070474405002055
:102B700090390A08024B986808B1FEF71FBE7047EB
:102B800050050020172870B5044601D9002070BDFB
:102B9000A0F10D03022B0BD9012824D800F09EF8D8
:102BA0000021007CFEF77AFE80F00100C0B2EEE763
:102BB000124E3178BFF35B8F11F001050DD1304615
:102BC000FDF771FA48B129460D48FEF7B5FF3046CA
:102BD000FDF76EFA0B4800F0A3FC094B1878FEF7DE
:102BE00077FE0028D2D1123C012C05D8FFF784FED5
:102BF000007CFEF71BFED7E70120C8E74C0500204C
:102C000050050020752B0A08172838B504460D46D4
:102C10000AD8FF2908D0FFF7B5FF28B1294620467A
:102C2000BDE83840FEF78ABD38BD38B504460D46CC
:102C3000FEF78CFDFF2810D0062804D84D2323FA78
:102C400000F0C30709D42046FFF79CFF28B12946AE
:102C50002046BDE83840FEF781BD38BD10B50446BA
:102C600009289CBF0A34A4B22046FFF78BFF50B15D
:102C700003212046FEF75AFD032804D12046BDE873
:102C80001040FEF773BD002010BD0000002307B503
:102C90001A46194600930348FFF706FD03B05DF896
:102CA00004FB00BF6005002070470000002370B5E2
:102CB000202543801423084E044603803146856056
:102CC0000561284600F030F831466060284600F083
:102CD0002BF8E060204670BDC4390A0830B50E4DAF
:102CE00087B02978BFF35B8F11F0010411D128461A
:102CF000FDF7D9F968B101A8FFF7D8FF214601AA6D
:102D00000648FFF75DFE2846FDF7D2F9044800F0BB
:102D100007FC024807B030BD780500207C05002084
:102D2000A92C0A08FDF7BDB9FDF7B9B908B5FEF73A
:102D3000EBFE000081F0004102E000BF83F00043A1
:102D400030B54FEA41044FEA430594EA050F08BF46
:102D500090EA020F1FBF54EA000C55EA020C7FEA0A
:102D6000645C7FEA655C00F0E2804FEA5454D4EB87
:102D70005555B8BF6D420CDD2C4480EA020281EA51
:102D8000030382EA000083EA010180EA020281EA89
:102D90000303362D88BF30BD11F0004F4FEA0131DB
:102DA0004FF4801C4CEA113102D0404261EB4101EA
:102DB00013F0004F4FEA03334CEA133302D0524270
:102DC00063EB430394EA050F00F0A780A4F101042C
:102DD000D5F1200E0DDB02FA0EFC22FA05F2801866
:102DE00041F1000103FA0EF2801843FA05F359414C
:102DF0000EE0A5F120050EF1200E012A03FA0EFCCB
:102E000028BF4CF0020C43FA05F3C01851EBE371F4
:102E100001F0004507D54FF0000EDCF1000C7EEB11
:102E200000006EEB0101B1F5801F1BD3B1F5001F4F
:102E30000CD349085FEA30004FEA3C0C04F101046E
:102E40004FEA445212F5800F80F09A80BCF1004F97
:102E500008BF5FEA500C50F1000041EB045141EA19
:102E6000050130BD5FEA4C0C404141EB0101013CE2
:102E700028BFB1F5801FE9D291F0000F04BF0146D1
:102E80000020B1FA81F308BF2033A3F10B03B3F1A3
:102E900020020CDA0C3208DD02F1140CC2F10C0233
:102EA00001FA0CF021FA02F10CE002F11402D8BF91
:102EB000C2F1200C01FA02F120FA0CFCDCBF41EA5D
:102EC0000C019040E41AA2BF01EB0451294330BD2C
:102ED0006FEA04041F3C1CDA0C340EDC04F1140409
:102EE000C4F1200220FA04F001FA02F340EA0300E0
:102EF00021FA04F345EA030130BDC4F10C04C4F126
:102F0000200220FA02F001FA04F340EA0300294605
:102F100030BD21FA04F0294630BD94F0000F83F44F
:102F2000801306BF81F480110134013D4EE77FEA32
:102F3000645C18BF7FEA655C29D094EA050F08BF7E
:102F400090EA020F05D054EA000C04BF194610465F
:102F500030BD91EA030F1EBF0021002030BD5FEAA3
:102F6000545C05D14000494128BF41F0004130BDCB
:102F700014F580043CBF01F5801130BD01F000451F
:102F800045F0FE4141F470014FF0000030BD7FEA92
:102F9000645C1ABF194610467FEA655C1CBF0B468D
:102FA000024650EA013406BF52EA033591EA030FA4
:102FB00041F4002130BD00BF90F0000F04BF00219C
:102FC000704730B54FF4806404F132044FF00005CF
:102FD0004FF0000150E700BF90F0000F04BF002148
:102FE000704730B54FF4806404F1320410F00045AE
:102FF00048BF40424FF000013EE700BF42004FEAA9
:10300000E2014FEA31014FEA02701FBF12F07F4325
:1030100093F07F4F81F06051704732F07F4208BFDC
:10302000704793F07F4F04BF41F40021704730B5E3
:103030004FF4607401F0004521F000411CE700BF2F
:1030400050EA010208BF704730B54FF000050AE0B2
:1030500050EA010208BF704730B511F0004502D5B3
:10306000404261EB41014FF4806404F132045FEAB5
:10307000915C3FF4D8AE4FF003025FEADC0C18BF5E
:1030800003325FEADC0C18BF033202EBDC02C2F150
:10309000200300FA03FC20FA02F001FA03FE40EAE2
:1030A0000E0021FA02F11444BDE600BF70B54FF0E6
:1030B000FF0C4CF4E06C1CEA11541DBF1CEA1355C4
:1030C00094EA0C0F95EA0C0F00F0DEF82C4481EA2C
:1030D000030621EA4C5123EA4C5350EA013518BF4C
:1030E00052EA033541F4801143F4801338D0A0FB39
:1030F00002CE4FF00005E1FB02E506F00042E0FBE6
:1031000003E54FF00006E1FB03569CF0000F18BFEB
:103110004EF0010EA4F1FF04B6F5007F64F5407493
:1031200004D25FEA4E0E6D4146EB060642EAC62126
:1031300041EA55514FEAC52040EA5E504FEACE2E93
:10314000B4F1FD0C88BFBCF5E06F1ED8BEF1004F96
:1031500008BF5FEA500E50F1000041EB045170BD12
:1031600006F0004646EA010140EA020081EA030156
:10317000B4EB5C04C2BFD4EB0C0541EA045170BD52
:1031800041F480114FF0000E013C00F3AB8014F1CC
:10319000360FDEBF002001F0004170BDC4F1000415
:1031A000203C35DA0C341BDC04F11404C4F1200596
:1031B00000FA05F320FA04F001FA05F240EA0200F1
:1031C00001F0004221F0004110EBD37021FA04F627
:1031D00042EB06015EEA430E08BF20EAD37070BDE1
:1031E000C4F10C04C4F1200500FA04F320FA05F040
:1031F00001FA04F240EA020001F0004110EBD37042
:1032000041F100015EEA430E08BF20EAD37070BDB1
:10321000C4F1200500FA05F24EEA020E20FA04F38A
:1032200001FA05F243EA020321FA04F001F0004139
:1032300021FA04F220EA020000EBD3705EEA430EAA
:1032400008BF20EAD37070BD94F0000F0FD101F0D9
:103250000046400041EB010111F4801F08BF013C12
:10326000F7D041EA060195F0000F18BF704703F050
:103270000046520043EB030313F4801F08BF013DD7
:10328000F7D043EA0603704794EA0C0F0CEA135593
:1032900018BF95EA0C0F0CD050EA410618BF52EA4D
:1032A0004306D1D181EA030101F000414FF0000053
:1032B00070BD50EA410606BF1046194652EA430661
:1032C00019D094EA0C0F02D150EA013613D195EAD5
:1032D0000C0F05D152EA03361CBF104619460AD11D
:1032E00081EA030101F0004141F0FE4141F4700127
:1032F0004FF0000070BD41F0FE4141F4780170BD17
:1033000070B54FF0FF0C4CF4E06C1CEA11541DBF7B
:103310001CEA135594EA0C0F95EA0C0F00F0A7F87D
:10332000A4EB050481EA030E52EA03354FEA0131AA
:1033300000F088804FEA03334FF0805545EA1313BD
:1033400043EA12634FEA022245EA111545EA106585
:103350004FEA00260EF000419D4208BF964244F11C
:10336000FD0404F5407402D25B084FEA3202B61A3B
:1033700065EB03055B084FEA32024FF480104FF40F
:10338000002CB6EB020E75EB030E22BFB61A754683
:1033900040EA0C005B084FEA3202B6EB020E75EB16
:1033A000030E22BFB61A754640EA5C005B084FEA7E
:1033B0003202B6EB020E75EB030E22BFB61A75464B
:1033C00040EA9C005B084FEA3202B6EB020E75EB56
:1033D000030E22BFB61A754640EADC0055EA060E17
:1033E00018D04FEA051545EA16754FEA06164FEA5A
:1033F000C30343EA52734FEAC2025FEA1C1CC0D106
:1034000011F4801F0BD141EA00014FF000004FF092
:10341000004CB6E711F4801F04BF01430020B4F153
:10342000FD0C88BFBCF5E06F3FF6AFAEB5EB030C0B
:1034300004BFB6EB020C5FEA500C50F1000041EB08
:10344000045170BD0EF0004E4EEA113114EB5C04D5
:10345000C2BFD4EB0C0541EA045170BD41F48011A8
:103460004FF0000E013C90E645EA060E8DE60CEAB0
:10347000135594EA0C0F08BF95EA0C0F3FF43BAFCD
:1034800094EA0C0F0AD150EA01347FF434AF95EA84
:103490000C0F7FF425AF104619462CE795EA0C0F68
:1034A00006D152EA03353FF4FDAE1046194622E735
:1034B00050EA410618BF52EA43067FF4C5AE50EA0F
:1034C00041047FF40DAF52EA43057FF4EBAE12E7FF
:1034D0004FEA410212F5001215D211D56FF478733C
:1034E000B3EB625212D94FEAC12343F0004343EADF
:1034F000505311F0004F23FA02F018BF40427047BA
:103500004FF00000704750EA013005D111F0004043
:1035100008BF6FF0004070474FF00000704700BFD9
:10352000002301461A46184600F0F8B80A22002186
:1035300000F0EAB80A44914200F1FF3300D170472D
:1035400010B511F8014B914203F8014FF9D110BDAC
:1035500003460244934200D1704703F8011BF9E788
:1035600038B50D4B04461D68AB6B7BB91820FEF7D0
:10357000B3FA0A4A0A4BA863C0E90023094B0122A7
:1035800083600B2383810023C0E904230022AB6BFB
:103590001C615A6138BD00BF100000200E33CDAB56
:1035A00034126DE6ECDE050010F8012B11F8013B3A
:1035B000012A28BF9A42F7D0D01A7047034611F863
:1035C000012B03F8012B002AF9D17047024B014669
:1035D000186800F003B800BF1000002070B5044662
:1035E00008460D4600F00DF8461C31462046FEF711
:1035F00093FA044618B132462946FFF79BFF20464E
:1036000070BD034613F8012B002AFBD1181A0138AC
:10361000704700002DE9F0478C468646394E6046DB
:103620001CF8014BA55D15F00805F8D12D2C33D100
:103630004FF001089CF8004000F1020C002B5CD018
:10364000102B0CD1302C0AD19CF8000000F0DF00C8
:1036500058284DD110239CF801400CF1020C002693
:1036600008F10047013FB7FBF3F9304603FB197A35
:10367000A4F13005092D18D82C46A34224DD751C71
:1036800007D081451DD301D1A2451ADB012600FBDD
:1036900003401CF8014BEBE72B2C08BF9CF80040C3
:1036A000A84608BF00F1020CC8E7A4F14105192D96
:1036B00001D8373CE1E7A4F16105192D04D8573C46
:1036C000DBE74FF0FF36E4E7731C06D122233846D0
:1036D000CEF8003042B9BDE8F087B8F1000F00D055
:1036E0004042002AF7D00EB10CF1FF311160F2E731
:1036F0003024002BB3D10823B1E7302CA4D00A2307
:10370000ADE700BFC6390A0813460A46014602481B
:103710000068FFF77FBF00BF100000202DE9F843CD
:10372000DFF8BC800646D8F800001F460D469146DB
:1037300000F058F8264B1C6834B9264C1C60264B08
:1037400013B11B68C4F8883063681F2B07DDD8F8F5
:10375000000000F049F84FF0FF30BDE8F8835EB399
:10376000D4F8880088B91D4B23B9D8F8000000F0C0
:103770003AF8F0E74FF48470FEF7AEF90028F4D081
:103780000023C0E94033C4F8880001226368022E98
:1037900040F8239002FA03F200EB8301D0F80031E5
:1037A00043EA0203C0F80031C1F8807002BFD0F8CC
:1037B00004311A43C0F804216368D8F800005A1C89
:1037C0000233626044F8235000F00EF80020C4E792
:1037D0001C0600209005002000000000D91A0A08ED
:1037E00074000020704770477047000021000A08ED
:1037F00061000A0889000A088D000A08000000001C
:10380000436F6F6C004F66660048656174005265D7
:1038100064416C65727400496E76616C6964204D18
:103820006F64653A200063757272656E745F7465CB
:103830006D7000646573697265645F74656D7000B6
:103840007365744D6F6465007365745F74656D7046
:10385000002C003B004772616E7454656D7000006F
:103860002C01000018000000F40100002C010000F1
:10387000500000006170700025592D256D2D2564C4
:103880005425483A254D3A2553257A0061736374CF
:10389000696D6500000000000000000071200A084A
:1038A00077200A08B5200A0885200A0873200A082C
:1038B000000000000000000009260A08F9250A0897
:1038C000FB250A080000000000000000C7260A08C7
:1038D0002D270A0805270A08CB1D0A08F7260A081B
:1038E000C9260A08D9260A0827270A08E9260A0845
:1038F000C1260A08000000000000000055280A0840
:10390000BF280A089B280A08CB1D0A086B280A084A
:1039100087280A0879280A0895280A0857280A08D3
:103920005D280A08000000000000000069290A085C
:10393000B3290A088B290A086B290A0893290A085F
:103940009B290A08A3290A08AB290A0800000000DD
:10395000000000007B2A0A08712A0A08672A0A0860
:10396000E5290A088B1E0A085B2A0A08D92A0A08D0
:10397000E12A0A084F2A0A08472A0A083D2A0A08A3
:10398000332A0A08EF290A0800000000000000009E
:10399000992A0A08A32A0A08AD2A0A08B72A0A0897
:1039A000C12A0A08CD2A0A08D92A0A08E12A0A08DF
:1039B000E92A0A08F52A0A08FD2A0A08072B0A0834
:1039C000112B0A0800002020202020202020202861
:1039D00028282828202020202020202020202020C7
:1039E00020202020202088101010101010101010FF
:1039F000101010101010040404040404040404043F
:103A000010101010101010414141414141010101BD
:103A10000101010101010101010101010101010196
:103A200001101010101010424242424242020202A3
:103A30000202020202020202020202020202020266
:103A40000210101010200000000000000000000014
:103A50000000000000000000000000000000000066
:103A60000000000000000000000000000000000056
:103A70000000000000000000000000000000000046
:103A80000000000000000000000000000000000036
:103A90000000000000000000000000000000000026
:103AA0000000000000000000000000000000000016
:103AB0000000000000000000000000000000000006
:103AC000000000000000000031040A080D170A0879
:103AD000591B0A08A51E0A08B51E0A08051F0A0870
:103AE000852A0A08612B0A088D2C0A0800000000AC
:043AF00000000000D2
:103AF4000100000004000000010000008C380A08E6
:103B0400140000200000000000000000000000007D
:103B140000000000000000000000000000000000A1
:103B24000000000000000000000000000000000091
:103B34000000000000000000000000000000000081
:103B44000000000000000000000000000000000071
:103B54000000000000000000000000000000000061
:083B6400000000002106002012
:103B6C00FFFFFFFF00000102030405060708090A16
:103B7C000B0C0D0E0F101112131415161718191A11
:083B8C001B1C1D1E1F20280058
:043B94007856341219
:04000005080A0020C5
:00000001FF
