:02000004080AE8
:1000000000000A0800120A080000060006000501A8
:080010000402FD0800000000DD
:04001800D80F0A08EB
:10001C0009480A4908B5884205D0094A824202D0EB
:10002C00121A00F029FF0748074A0021121A00F0A3
:10003C0031FF064808BD00BF0000002064110A080B
:10004C007400002074000020F1050020F105002050
:10005C0070B500F059FB0025054E064CA41BA408F6
:10006C00A54200D170BD56F8043B98470135F7E71F
:10007C0040110A085C110A0800F014B808B500F029
:10008C0029F8BDE8084000F0F7BA00F011BA00F00A
:10009C0017BA0078B0FA80F040097047012303705A
:1000AC007047000008B5094B0321188800F052FE78
:1000BC00074B0021188800F04DFE00F027FCBDE82E
:1000CC0008404FF4165100F007BC00BF00000020A0
:1000DC0004000020F8B5234B234F188800F05EFE77
:1000EC00224B3860188800F046FE002814BF01220D
:1000FC0000221F4B1F4E1A7032D033785BBB00F0BE
:10010C0005FC1D4900F034FA00F000FC1B4B0546C1
:10011C001C68002C20DA2D2100F02EFA61420A22F4
:10012C00284600F038FA00F0F1FB154900F020FAEF
:10013C0000F0ECFB3C680546002C0FDA2D2100F09A
:10014C001BFA61420A22284600F025FA284600F0E4
:10015C0016FA01233370F8BD2146E0E72146F1E79A
:10016C003070F8E7040000207C0000200000002024
:10017C007900002078000020EC0F0A0874000020A1
:10018C00FC0F0A0808B5024B1B685B68019308BD9D
:10019C00B001060808B5024B1B689B68019308BDAB
:1001AC00B001060808B5024B1B68DB68019308BD5B
:1001BC00B001060808B5024B1B685B69019308BDCA
:1001CC00B001060808B5024B1B681B6B019308BDF8
:1001DC00B001060808B5024B1B685B68019308BDAB
:1001EC009C01060808B5024B1B685B69019308BDAE
:1001FC009C01060808B5024B1B685B6C019308BD9B
:10020C00D001060808B5024B1B689B6C019308BD16
:10021C00D001060808B5024B1B689B69019308BD09
:10022C00C401060808B5024B1B685B6A019308BD44
:10023C00C401060808B5024B1B689B6A019308BDF4
:10024C00C401060808B5024B1B68DB6A019308BDA4
:10025C00C401060808B5024B1B681B6B019308BD53
:10026C00C401060808B5024B1B685B6B019308BD03
:10027C00C401060808B5024B1B689B6B019308BDB3
:10028C00C401060808B5024B1B681B6C019308BD22
:10029C00C401060808B5024B1B681B6E019308BD10
:1002AC00AC01060808B5024B1B685B6E019308BDD8
:1002BC00AC01060808B5024B1B689B6E019308BD88
:1002CC00AC01060808B5024B1B68DB6E019308BD38
:1002DC00AC01060808B5024B1B681B6F019308BDE7
:1002EC00AC01060808B5024B1B685B6F019308BD97
:1002FC00AC01060808B5034B1B68D3F8803001939A
:10030C0008BD0000AC01060808B5024B1B68DB6990
:10031C00019308BDB401060808B5024B1B681B6AA3
:10032C00019308BDB401060808B5024B1B681B6895
:10033C00019308BDD801060808B5024B1B685B6821
:10034C00019308BDD801060808B5024B1B681B6950
:10035C00019308BDD801060808B5024B1B685B6900
:10036C00019308BDD801060808B5024B1B689B69B0
:10037C00019308BDD801060808B5024B1B68DB6960
:10038C00019308BDD801060808B5024B1B681B6A0F
:10039C00019308BDD801060808B5024B1B689B6C7D
:1003AC00019308BDC001060808B5024B1B685B68C9
:1003BC00019308BDA401060808B5034B1B68D3F8CC
:1003CC009030019308BD0000A401060808B5034B4A
:1003DC001B68D3F89C30019308BD0000A4010608EB
:1003EC0008B5024B1B685B68019308BDC801060881
:1003FC0008B5024B1B689B68019308BDC801060831
:10040C0008B5024B1B68DB68019308BDC8010608E0
:10041C0008B5024B1B681B69019308BDC80106088F
:10042C0008B5024B1B685B69019308BDC80106083F
:10043C0008B5024B1B689B69019308BDC8010608EF
:10044C0008B5024B1B68DB69019308BDC80106089F
:10045C0008B5024B1B681B6A019308BDC80106084E
:10046C0008B5024B1B681B6B019308BDC80106083D
:10047C0008B5024B1B685B6B019308BDC8010608ED
:10048C0008B5024B1B681B6C019308BDC80106081C
:10049C0008B5024B1B685B6C019308BDC8010608CC
:1004AC0008B5024B1B68DB6B019308BDCC01060839
:1004BC0008B5024B1B681B68019308BDA001060818
:1004CC0008B5024B1B685B68019308BDA0010608C8
:1004DC0008B5024B1B685B6C019308BDA0010608B4
:1004EC0070B5002604460D4640F8086FFFF782FEF3
:1004FC0028462570FFF708FF2046666070BD000097
:10050C0002220020044B1A60044B054A18609880A4
:10051C0098719A60FFF748BF8C0000208000002083
:10052C000000FFFFF8B506460D4600248F18BD42AB
:10053C000CD0336830469B6815F8011B9847031E96
:10054C0001DB1C44F3E7002C08BF1C462046F8BD19
:10055C0070B505460C46084649B100F0C7FC2B683F
:10056C00024621462846BDE87040DB68184770BD3E
:10057C0008B5FFF7EDFF08BD03689B68184738B551
:10058C000D210546FFF7F8FF0A2104462846FFF720
:10059C00F3FF204438BD0023012A98BF0A2230B54E
:1005AC008BB00C468DF8243009A92546B4FBF2F427
:1005BC0004FB1253DBB2092B94BF30333733DBB25D
:1005CC00AA4201F8013DF0D9FFF7C2FF0BB030BDD4
:1005DC00002340681A461946FFF722BF014B024A16
:1005EC001A6070479000002008100A08024B1A6825
:1005FC00024B1A60704700BF0800002094000020D6
:10060C000022014B9A60704798000020014B186043
:10061C00704700BF0C00002008B5134B43B100F02D
:10062C0075F903681B699847002801DDAFF300805A
:10063C000E4B43B100F01AFA03681B699847002867
:10064C0001DDAFF300800A4B0BB1AFF30080094B17
:10065C0043B100F095F903681B699847002801DD48
:10066C00AFF3008008BD00BF0000000000000000D8
:10067C00000000000000000008B5FFF7CDFFFFF7F9
:10068C00B1FD014B186008BD240500200548064A41
:10069C0008B5121A054900F0EFFB054B054A1A6024
:1006AC0008BD00BF004002400440024060110A082F
:1006BC00004002401E1C279A002307B51A466FF013
:1006CC0077010093FFF782FE03B05DF804FB000096
:1006DC0007B543880A2B08D0502B0BD1094B1B684C
:1006EC004BB103B05DF804EB1847FFF7E5FF03B01F
:1006FC005DF804FB00231A466FF077010093FFF7B7
:10070C0065FEF4E7AC000020002110B51148FFF79E
:10071C00DFFE114B1A68114B9A420CBF01220022CA
:10072C000F4B1A7001D0FFF7B1FFFFF753FD0446D2
:10073C0000F0B8FB0B4B13B12046AFF30080002147
:10074C000848FFF7ADFEBDE8104000210648FFF752
:10075C0033BE00BF19060A08004002401E1C279A2F
:10076C00A800002000000000DD060A08704710B544
:10077C000446182100F076FB204610BDF8B50E4655
:10078C00002400F10807051D17F8011D0A22304648
:10079C00FFF701FFAF42044401D12046F8BD002C05
:1007AC00F2D02E213046FFF7E7FE0444ECE70000C0
:1007BC0010B50446044B1122002140F8043B00F014
:1007CC0069FB204610BD00BF30100A080346074ADB
:1007DC0010B543F8042B01F1100251F8044B91426F
:1007EC0043F8044BF9D10A781A7010BD30100A087E
:1007FC00024AC0E9002104220275704730100A0831
:10080C0010B59DF8084044EA0324042344EA02444A
:10081C0044EA01644460037510BD000037B5044D13
:10082C0005609DF818500095FFF7EAFF03B030BD46
:10083C0030100A08417470477047704708B50021A2
:10084C00007CFFF791FD40EAE07008BD08B501217E
:10085C00007CFFF789FD40EAE07008BD08B5007C1C
:10086C00FFF77AFD20EAE07008BD08B5007CFFF7C1
:10087C006BFD20EAE07008BD38B50446007C0D46DF
:10088C00FFF76AFD002801DC607C28B12946207C3A
:10089C00FFF772FD20EAE07038BD007CFFF774BDF5
:1008AC0010B50446142100F0DDFA204610BD704747
:1008BC0010B54FF47A73044608460021C4E90113BD
:1008CC00044B20742360012311466374FFF72CFD45
:1008DC00204610BD44100A080022007CFFF72CBDF6
:1008EC0010B504461422002100F0D4FA054B204622
:1008FC006360054BE36040F2011323818123238263
:10090C0010BD00BFE0000020E101002030B50E4D0D
:10091C0087B001A8FFF7E4FF2978BFF35B8F11F0D4
:10092C0001040ED12846FFF7B4FB50B1214601AAB1
:10093C000648FFF7BDFF2846FFF7B0FB044800F060
:10094C0095FA024807B030BDB0000020B800002076
:10095C0045080A0810B504461422002100F09AFA42
:10096C00054B20466360054BE36040F20113238185
:10097C008123238210BD00BF62020020630300208C
:10098C0010B50E4C86B001A8FFF7E4FF2378BFF337
:10099C005B8FDB070ED42046FFF77BFB50B10121A8
:1009AC0001AA0748FFF784FF2046FFF777FB0548AD
:1009BC0000F05CFA024806B010BD00BFB400002085
:1009CC00CC000020BB080A08704741747047704780
:1009DC0008B5007CFFF756FC20EAE07008BD08B5AE
:1009EC00007CFFF727FC20EAE07008BD08B5007C0E
:1009FC00FFF730FC40EAE07008BD08B5007CFFF75B
:100A0C0021FC40EAE07008BD007CFFF72BBC70B500
:100A1C00467C04460D462EB12946207CBDE870402C
:100A2C00FFF700BC007CFFF72DFC0028F4DC3046FF
:100A3C0070BD10B50446142100F014FA204610BD08
:100A4C004FF0000C10B50446084611464FF47A726C
:100A5C00C4E901C2044A20742260012262741A465D
:100A6C00FFF7D8FB204610BD74100A0838B50C4DA2
:100A7C002978BFF35B8F11F001040FD12846FFF7E3
:100A8C0008FB58B12146074B074A0848FFF7D8FF27
:100A9C002846FFF703FB064800F0E8F9034838BD89
:100AAC00E40300206C040020E8030020F004002084
:100ABC00DB090A087047F8B5064615460C468F1830
:100ACC00BC4206D0336830469B6814F8011B98472B
:100ADC00F6E72846F8BD0022007CFFF7DBBB0021BF
:100AEC00007CFFF7DFBB0021007CFFF7E3BB00219C
:100AFC00007CFFF7E7BB0021007CFFF7EBBB10B5D8
:100B0C000446142100F0AEF9204610BD10B54FF488
:100B1C007A73044608460021C4E90113034B1146BD
:100B2C0023602074FFF7E6FB204610BDA4100A08D2
:100B3C00002240681146FFF76BBCF0B5154689B032
:100B4C0011220E460446002103A800F0A3F9284602
:100B5C0000F0CCF9002781B273682846009703AAED
:100B6C00FFF71AFC30B139462046FFF741FE20460C
:100B7C0009B0F0BD204603A9FFF728FEF7E70022D5
:100B8C0040681146FFF764BC002240681146FFF72D
:100B9C006FBC00224068FFF763BC0022406881F004
:100BAC000101FFF74DBC002340681A461946FFF7B8
:100BBC003FBC002240681146FFF71ABC00220221FC
:100BCC004068FFF71DBC002340681A46FFF708BCBD
:100BDC000422024B5A60024A1A6070470405002036
:100BEC00CC100A08002340681A46FFF7F9BB002214
:100BFC0002214068FFF704BC002240681146FFF751
:100C0C00F7BB002240681146FFF702BC0023406886
:100C1C001A461946FFF704BC002340681A461946C9
:100C2C00FFF706BC00214068FFF72ABC0021406892
:100C3C00FFF72EBC0022406881F00101FFF700BCD9
:100C4C0000224068FFF70CBC002240681146FFF7F9
:100C5C000FBC002240681146FFF7FABB70B5154671
:100C6C008EB0044608A8FFF7A3FD1122002103A8AB
:100C7C0000F010F90026284600F038F90A4B0096CF
:100C8C0081B25B68284603AAFFF786FB30B1314678
:100C9C002046FFF7ADFD20460EB070BD204603A9DF
:100CAC00FFF794FDF7E700BF04050020024B034A51
:100CBC001A6000225A6070470C05002008110A08BF
:100CCC00024B986808B1FFF79DBA704718050020D1
:100CDC00172870B5044601D9002070BDA0F10D0392
:100CEC00022B0BD9012824D800F098F80021007CA5
:100CFC00FFF7F8FA80F00100C0B2EEE7124E31783F
:100D0C00BFF35B8F11F001050DD13046FFF7C1F930
:100D1C0048B129460D48FFF7E3FB3046FFF7BEF913
:100D2C000B4800F0A3F8094B1878FFF7F5FA0028E8
:100D3C00D2D1123C012C05D8FFF798FE007CFFF7AE
:100D4C0099FAD7E70120C8E7140500201805002000
:100D5C00CD0C0A08172838B504460D460AD8FF29C9
:100D6C0008D0FFF7B5FF28B129462046BDE838402A
:100D7C00FFF710BA38BD10B50446FFF713FA031F7E
:100D8C00DBB2012B08D92046FFF7A2FF20B1204689
:100D9C00BDE81040FFF70EBA002010BD10B5044698
:100DAC0009289CBF0A34A4B22046FFF791FF50B12A
:100DBC0003212046FFF7E6F9032804D12046BDE8BD
:100DCC001040FFF7FFB9002010BD0000002307B54D
:100DDC001A46194600930348FFF720FD03B05DF84F
:100DEC0004FB00BF2805002070470000002370B5ED
:100DFC00202543801423084E044603803146856029
:100E0C000561284600F030F831466060284600F055
:100E1C002BF8E060204670BD3C110A0830B50E4D31
:100E2C0087B02978BFF35B8F11F0010411D12846EC
:100E3C00FFF72FF968B101A8FFF7D8FF214601AAE7
:100E4C000648FFF763FE2846FFF728F9044800F030
:100E5C000DF8024807B030BD4005002044050020C5
:100E6C00F50D0A08FFF713B9FFF70FB90023014678
:100E7C001A46184600F042B80A44914200F1FF337A
:100E8C0000D1704710B511F8014B914203F8014F96
:100E9C00F9D110BD03460244934200D1704703F8C8
:100EAC00011BF9E738B50D4B04461D68AB6B7BB9DC
:100EBC001820FFF7FDFA0A4A0A4BA863C0E9002381
:100ECC00094B012283600B2383810023C0E9042397
:100EDC000022AB6B1C615A6138BD00BF0C000020B6
:100EEC000E33CDAB34126DE6ECDE0500034613F881
:100EFC00012B002AFBD1181A013870472DE9F84351
:100F0C00DFF8BC800646D8F800001F460D46914617
:100F1C0000F058F8264B1C6834B9264C1C60264B44
:100F2C0013B11B68C4F8883063681F2B07DDD8F831
:100F3C00000000F049F84FF0FF30BDE8F8835EB3D5
:100F4C00D4F8880088B91D4B23B9D8F8000000F0FC
:100F5C003AF8F0E74FF48470FFF7AAFA0028F4D0BF
:100F6C000023C0E94033C4F8880001226368022ED4
:100F7C0040F8239002FA03F200EB8301D0F8003121
:100F8C0043EA0203C0F80031C1F8807002BFD0F808
:100F9C0004311A43C0F804216368D8F800005A1CC5
:100FAC000233626044F8235000F00EF80020C4E7CE
:100FBC00E40500205805002000000000BD040A08CC
:100FCC007000002070477047704700001D000A0831
:100FDC005D000A0885000A0889000A080000000064
:100FEC00427574746F6E20436F756E74203D2000D3
:100FFC00202C204C6576656C203D200061707000C3
:10100C0025592D256D2D25645425483A254D3A2515
:10101C0053257A0061736374696D650000000000EC
:10102C000000000089070A0879070A087B070A08EC
:10103C00000000000000000047080A08AD080A087C
:10104C0085080A0831050A0877080A0849080A08B9
:10105C0059080A08A7080A0869080A0841080A0872
:10106C000000000000000000D5090A083F0A0A0829
:10107C001B0A0A0831050A08EB090A08070A0A08BC
:10108C00F9090A08150A0A08D7090A08DD090A0825
:10109C000000000000000000C10A0A080B0B0A083F
:1010AC00E30A0A08C30A0A08EB0A0A08F30A0A0840
:1010BC00FB0A0A08030B0A080000000000000000ED
:1010CC00D30B0A08C90B0A08BF0B0A083D0B0A0808
:1010DC00DD050A08B30B0A08310C0A08390C0A089A
:1010EC00A70B0A089F0B0A08950B0A088B0B0A081A
:1010FC00470B0A080000000000000000F10B0A0872
:10110C00FB0B0A08050C0A080F0C0A08190C0A0834
:10111C00250C0A08310C0A08390C0A08410C0A087B
:10112C004D0C0A08550C0A085F0C0A08690C0A08D1
:10113C00000000000D050A08E9050A08F9050A086F
:10114C000D060A08DD0B0A08B90C0A08D90D0A08A5
:04115C00000000008F
:04116000000000008B
:10116400020000000C00000020100A0810000020FB
:10117400000000000000000000000000000000006B
:10118400000000000000000000000000000000005B
:10119400000000000000000000000000000000004B
:1011A400000000000000000000000000000000003B
:1011B400000000000000000000000000000000002B
:1011C400000000000000000000000000000000001B
:0411D400E905002009
:1011D800FFFFFFFF00000102030405060708090AD4
:1011E8000B0C0D0E0F101112131415161718191ACF
:0811F8001B1C1D1E1F20280016
:0412000078563412D6
:04000005080A001CC9
:00000001FF
